:020000040800F2
:10000000C064002031030008BD1B000875160008FD
:1000100099190008D10B0008F93000080000000011
:10002000000000000000000000000000790200084D
:100030000B13000800000000CD0200089D270008F7
:100040004B0300084B0300084B0300084B03000858
:100050004B0300084B0300084B0300084B03000848
:100060004B0300084B0300084B0300084B03000838
:100070004B0300084B0300084B0300084B03000828
:100080004B0300084B0300084B0300080D0D00084C
:10009000D90C00084B0300084B0300080D1300089F
:1000A0004B0300084B0300084B0300084B030008F8
:1000B000492A00084B0300084B0300084B030008C3
:1000C0004B0300084B0300084B0300084B030008D8
:1000D0004B030008E92D0008292E00084B030008F7
:1000E0004B0300084B0300084B0300084B030008B8
:1000F0004B0300084B0300084B0300084B030008A8
:100100004B0300084B0300084B0300084B03000897
:10011000452D00084B0300084B0300084B03000863
:100120004B0300084B0300084B0300084B03000877
:100130004B0300084B0300084B030008790E00082E
:10014000450E00084B0300084B0300084B03000852
:100150004B0300084B0300084B0300084B03000847
:100160004B0300084B0300084B0300084B03000837
:100170004B0300084B0300084B0300084B03000827
:100180004B0300084B03000800F002F800F064F88D
:100190000AA090E8000C82448344AAF10107DA45E2
:1001A00001D100F059F8AFF2090EBAE80F0013F0D0
:1001B000010F18BFFB1A43F001031847747A0000BF
:1001C000947A00000A444FF0000C10F8013B13F041
:1001D000070408BF10F8014B1D1108BF10F8015BA0
:1001E000641E05D010F8016B641E01F8016BF9D193
:1001F00013F0080F1EBF10F8014BAD1C0C1B09D1EA
:100200006D1E58BF01F801CBFAD505E014F8016B5B
:1002100001F8016B6D1EF9D59142D6D370470000ED
:100220000023002400250026103A28BF78C1FBD8FF
:10023000520728BF30C148BF0B607047642900F0E7
:100240000381732900F04282002070471FB507F038
:1002500054FC1FBD10B510BD00F0AEFA1146FFF7FB
:10026000F5FF04F0A9FA00F0CCFA03B4FFF7F2FFAF
:1002700003BC03F0B5FD00002A4B19680868B0E81C
:10028000F04F80F30988BFF36F8F4FF0000080F3C9
:10029000118870470000000006480068006880F37D
:1002A000088862B661B6BFF34F8FBFF36F8F00DF70
:1002B00000BF00BF08ED00E0DFF80C00016841F46A
:1002C00070010160704700BF88ED00E0EFF3098026
:1002D000BFF36F8F134B1A681EF0100F08BF20ED8D
:1002E000108A20E9F04F106008B44FF0500080F3FE
:1002F0001188BFF34F8FBFF36F8F05F0BDFF4FF035
:10030000000080F3118808BC19680868B0E8F04F55
:100310001EF0100F08BFB0EC108A80F30988BFF3FD
:100320006F8F704704020020EFF3058070470000D4
:100330000948804709480047FEE7FEE7FEE7FEE779
:10034000FEE7FEE7FEE7FEE7FEE7FEE704480549B5
:10035000054A064B70470000B127000889010008D4
:10036000C05E0020C0640020C0600020C06000208B
:10037000704700000FB4044910B503AA029800F0BA
:10038000A9F910BC5DF814FB000200202DE9F04132
:100390000E460446002020622046E168884730B3BC
:1003A000252805D0D4E901219047206A401CF2E7B6
:1003B000E168204600278847050018D0A5F14100D4
:1003C000192802D820354FF40067324629462046C6
:1003D0002760FFF733FF40B1012804D0F61D26F057
:1003E00007060836D8E7361DD6E72846DAE7206A3A
:1003F000BDE8F08170B50C460546012A05D0287885
:10040000800600D5EA69002302E0012305E05B1CB9
:10041000934202D2E05C0028F9D1A869E618C01A1C
:10042000A861286A184428622846AFF3008004E0D7
:10043000D5E9012114F8010B9047B442F8D32846BE
:10044000AFF3008070BD00002DE9F04106460024A6
:1004500010687529314616A510D0AFF3008000282A
:1004600002DA404213A507E031688A0701D512A5D8
:1004700002E0490704D511A5012401E0AFF3008093
:1004800000210A2206F1240709E0B0FBF2FCB0FBD0
:10049000F2F302FB1C00303078541846491C002847
:1004A000F3D123462A463046BDE8F04100F08BB830
:1004B000000000002D0000002B00000020000000C4
:1004C000032A40F2308010F0030C00F0158011F880
:1004D000013BBCF1020F624498BF11F801CB00F858
:1004E000013B38BF11F8013BA2F1040298BF00F8AC
:1004F00001CB38BF00F8013B11F0030300F0FC8092
:10050000083AC0F0088051F8043B083A51F804CB8F
:10051000A0E80810F5E7121D5CBF51F8043B40F855
:10052000043BAFF30080D20724BF11F8013B11F860
:1005300001CB48BF11F8012B24BF00F8013B00F8A4
:1005400001CB48BF00F8012B704702F0FF0343EADC
:10055000032242EA024200F003B94FF0000200B564
:10056000134694469646203922BFA0E80C50A0E8D6
:100570000C50B1F12001BFF4F7AF090728BFA0E884
:100580000C5048BF0CC05DF804EB890028BF40F850
:10059000042B08BF704748BF20F8022B11F0804F92
:1005A00018BF00F8012B70477047704770477047BD
:1005B00010B500F0F5F8006810BD10B5044600F065
:1005C000EFF8046010BD2DE9F0470D4699469246BC
:1005D000044600F124080168880604D5E06921F08A
:1005E0001001216000E00120A84201DD471B00E06E
:1005F0000027A1697A1902EB0900081AA061207886
:10060000C00602D42046AFF30080002608E0D4E9FB
:1006100001211AF806009047206A401C761C2062CF
:100620004E45F4DB2078C0060AD52046AFF30080A3
:1006300006E0D4E9012130209047206A401C206266
:10064000381EA7F10107F4DC07E0D4E9012118F80E
:1006500005009047206A401C2062281EA5F1010574
:10066000F3DC2046AFF300802078000602D502209C
:10067000BDE8F0870120FBE701694A1C02610878A8
:10068000704700B58FB0CDE90131002105910549D2
:100690007944CDE9031011466846FFF777FE0FB0A5
:1006A00000BD0000E5FFFFFF10B5436913B1AFF3D4
:1006B000008001E0FFF79EFE012010BD127800F1DE
:1006C00024010A7000224A700122EDE711684FF000
:1006D000FF32E9E7074B70B50D467B44FFF7D1FFCA
:1006E0000446284600F060F810B14FF0FF3070BDAE
:1006F000204670BDB33F000010B5203AC0F00B801B
:10070000B1E81850203AA0E81850B1E81850A0E815
:100710001850BFF4F5AF5FEA027C24BFB1E818506F
:10072000A0E8185044BF18C918C0BDE810405FEADF
:10073000827C24BF51F8043B40F8043B08BF70475B
:10074000D20728BF31F8023B48BF11F8012B28BF60
:1007500020F8023B48BF00F8012B70474FF0000221
:100760000429C0F0128010F0030C3FF4F8AECCF175
:10077000040CBCF1020F18BF00F8012BA8BF20F831
:10078000022BA1EB0C01FFF7EABE5FEAC17C24BF9C
:1007900000F8012B00F8012B48BF00F8012B70472F
:1007A000004870475C5E0020007B00F080007047CE
:1007B000004870475C5E00207546FFF7F9FFAE46C3
:1007C00005006946534620F00700854618B020B55D
:1007D000FFF7BCFDBDE820404FF000064FF00007DA
:1007E0004FF000084FF0000B21F00701AC46ACE8D9
:1007F000C009ACE8C009ACE8C009ACE8C0098D4646
:10080000704710B50446AFF300802046BDE81040A5
:10081000FFF72BBD10B500F08BFA0121084603F05D
:10082000D5FD0121BDE81040022003F0CFBD00003E
:1008300001B500F500702DED020B88B069460090FF
:1008400000208DF808008DF8090004208DF80A00BA
:100850009DF820008DF80B009DF821008DF80C000C
:100860009DF822008DF80D009DF823008DF80E00F4
:10087000024800F0F2FC0BB000BD00000068004030
:1008800030B5C17A454A9FED462ADFED462A012957
:100890002ED0022957D0032929D18189F2EE090AE5
:1008A0004BBA817BBAEE090A0C01C17B007C44EA99
:1008B000111401F00F0140EA01251021184604F03F
:1008C000BBFF82ED0E0A0C21F0EE420AB0EE620A86
:1008D000204604F0B1FF82ED0F0A0C21F3EE020A6C
:1008E000BBEE020A284604F0A7FF82ED100A30BDD5
:1008F0008189F2EE090A4BBA817BBAEE090A0C0132
:10090000C17B007C44EA111401F00F0140EA01258B
:100910001021184604F090FF82ED000A0C21F0EE41
:10092000420AB0EE620A204604F086FF82ED010A18
:100930000C21F3EE020ABBEE020A284604F07CFF0B
:1009400082ED020A30BD8189F2EE090A4BBA817B41
:10095000BAEE090A0C01C17B007C44EA111401F0D3
:100960000F0140EA01251021184604F065FF82EDD1
:10097000070A0C21F0EE420AB0EE620A204604F0AB
:100980005BFF82ED080A0C21F3EE020ABBEE020ABD
:10099000284604F051FF82ED090A30BD9C0A002070
:1009A0000000FA430000FAC3F0B5074687B0012102
:1009B000042001F081FD0121C80401F089FD234ECE
:1009C00008220A21304600F045FE08220B2130465D
:1009D00000F040FE4FF44060049002208DF81400B7
:1009E0008DF8150000248DF8164001258DF817505C
:1009F00004A9304600F0F2FDADF80440ADF8064021
:100A0000ADF80840ADF80C400C20114CADF80A00D0
:100A100000976946204602F077FA0121204602F04D
:100A200032FA34208DF818008DF8195003208DF813
:100A30001A008DF81B5006A801F0C2F8012240F2FE
:100A40002551204602F048FA07B0F0BD00080240E8
:100A5000004C004010B5114C2178491CC9B22170DE
:100A6000642916D290ED000A0D4A10EE101ADFED3F
:100A70000D0A914202DD30EE600A06E010EE101A17
:100A8000094A914205D930EE200A80ED000AFFF7AD
:100A9000E1FF2078401E207010BD00006C00002097
:100AA000000034430000B443000034C32DED048B38
:100AB00005F0C4FF384DDFED398A9FED399ADFED3F
:100AC000399A394C9FED398A0026686020780628CB
:100AD0005CD2DFE800F0030B1A293847344880ED78
:100AE000038A80ED048A80ED058A4FE095ED000AC7
:100AF000304B314A30EE280A30490A2085ED000A91
:100B0000F2EE000A01F0D0FB3CE095ED000AB0EEF9
:100B1000492AF0EE481A30EE280AB0EE691ADFEDE5
:100B2000280A85ED000A2BE095ED000AB0EE492A6F
:100B3000F0EE481A30EE280AB0EE691ADFED210A0D
:100B400085ED000A1CE095ED000AB0EE492AF0EEB2
:100B5000481A30EE280AB0EE691ADFED1B0A85ED5F
:100B6000000A0DE095ED000AB0EE492AF0EE481AB1
:100B700030EE280AB0EE691ADFED140A85ED000A9E
:100B800004F014F810B185ED008A267002480A219D
:100B9000001D05F09FF999E7780200200AD7233C51
:100BA0000000484400002543D80000200000000059
:100BB000B4030020C806002010010020DC00002043
:100BC00000A095C500303FC500A0A4C40060BCC50E
:100BD000FEE7000070B501218AB0084601F06CFC08
:100BE0000121480601F074FC394C09220B212046F2
:100BF00000F030FD09220C21204600F02BFD4FF4BF
:100C0000C051089102218DF8241008A9204600F057
:100C1000E5FC304E304600F07DF9684600F00DFBF3
:100C200000248DF806408DF8074008208DF8084014
:100C300001258DF802408DF8040003218DF809503C
:100C40008DF803408DF80A408DF80510ADF80010BE
:100C50008DF80B406946304600F034FA8DF81640A6
:100C60008DF817408DF81850ADF80C40ADF81040D5
:100C7000ADF80E40ADF81240ADF814408DF81950A3
:100C800003A800F05DF914208DF81C008DF81D50AC
:100C90008DF81E408DF81F5007A800F091FF13201B
:100CA0008DF81C008DF81D508DF81E508DF81F50CA
:100CB00007A800F085FF01220221304600F0FAF972
:100CC00001221146304600F0F5F90AB070BD00006F
:100CD000000002400064004010B50B4C88B00221B7
:100CE000204600F093F900280BD06A4600212046E8
:100CF00000F05CFA684603F0EFFC0221204600F0A9
:100D0000CDF808B010BD00000064004010B5074CDD
:100D10000121204600F07AF9002805D02046BDE8E0
:100D20001040012100F0BAB810BD0000006400407E
:100D30002DE9F0418AB00121022001F0BDFB012123
:100D4000880601F0C5FB0121480601F0C1FB3B4CC0
:100D500009220C21204600F07DFC09220D212046AD
:100D600000F078FC4FF44051022708918DF8247070
:100D700008A9204600F032FCDFF8C480404600F0AD
:100D8000C9F8684600F059FA00248DF806408DF83D
:100D900007408DF8084008208DF809408DF8024082
:100DA0008DF8040003268DF80A4001258DF80340D4
:100DB0008DF80B508DF80560ADF80060694640462F
:100DC00000F080F90E208DF816008DF817408DF890
:100DD0001850ADF80C40ADF81040ADF80E40ADF82D
:100DE0001240ADF814408DF8195003A800F0A8F88F
:100DF00040208DF81C008DF81D508DF81E708DF868
:100E00001F5007A800F0DCFE3F208DF81C008DF875
:100E10001D508DF81E608DF81F5007A800F0D0FE01
:100E200001220221404600F045F9012211464046C8
:100E300000F040F90AB0BDE8F08100000004024073
:100E40000068004010B50B4C88B00221204600F02D
:100E5000DDF800280BD06A460021204600F0A6F9F4
:100E60000221204600F01AF86846FFF709FD08B095
:100E700010BD00000068004010B5074C012120465D
:100E800000F0C4F8002805D02046BDE8104001213C
:100E900000F004B810BD00000068004030B5082321
:100EA00010240422B1F5007F1DD010DC202929D0A8
:100EB00007DC012921D0042922D0082900D1C460EF
:100EC00030BD402920D0B1F5807FF9D10BE000255D
:100ED000B1F5004F06D008DCB1F5806F03D0B1F555
:100EE000006FEDD18561426030BDB1F5803F0DD01E
:100EF000B1F5003FF8D1446030BD0549816030BD97
:100F0000C36030BD036130BD046130BD436030BD9E
:100F100001010100094910B588424FF0010101D1DA
:100F20004C0601E04FF08064204601F0DDFA2046D7
:100F3000BDE81040002101F0D7BA00000064004075
:100F4000F0B5827A2F4D012191402A6842F00102CA
:100F50002A602C4E1C3632688A433260294A047B50
:100F6000294B0C32A4B914688C4314604488C78898
:100F700044EA0744877A03EBC707C7F8404604886A
:100F8000878844EA0744877A03EBC707C7F84446D3
:100F9000047B012C12D114680C431460847A02681B
:100FA00003EBC4044FEA3242C4F84026847A426814
:100FB00003EBC4034FEA3242C3F84426114AC37A12
:100FC000121D002B136806D00B4313600D4A0389D2
:100FD000143213B104E08B43F7E713688B431360BB
:100FE0000389012B02D113680B431360407B012856
:100FF00002D1306808433060286820F00100286082
:10100000F0BD000000660040006000400246002085
:1010100053690B424AD0B1F5807F3BD013DC0829DD
:101020002ED007DC012926D0022927D004293DD162
:10103000D0682BE0102925D0202926D0402935D191
:101040001069102130E0B1F5004F2BD00BDCB1F569
:10105000007F22D0B1F5806F22D0B1F5006F25D18D
:101060009069702120E0B1F5803F11D0B1F5003FCB
:101070001CD15068E5E790680D4915E0D06802E0A2
:10108000D068DEE7106903210EE0106908210BE04B
:101090005068FBE79069012106E09069022103E0B6
:1010A000906900E05068042100F029B97047000001
:1010B00001010100002A426901D00A4300E08A438D
:1010C0004261704710B50368002223F002030360F9
:1010D000036843F0010303604FF6FF7300E0521C06
:1010E0004468E40701D19A42F9D14268D2073ED060
:1010F0008A79012A02683CD022F080020260CA7913
:10110000012A026838D022F0400202600A7A012ADD
:10111000026834D022F0200202604A7A012A026872
:1011200030D022F0100202608A7A012A02682CD0A4
:1011300022F008020260CA7A012A026828D022F04E
:10114000040202608A78CC78920742EA04620C7941
:1011500042EA04424C79098842EA0452491E0A4391
:10116000C261016821F001010160002114E000204A
:1011700010BD42F08002C1E742F04002C5E742F0F4
:101180002002C9E742F01002CDE742F00802D1E7A1
:1011900042F00402D5E7491C4268D20701D09942C7
:1011A000F9D14068C007E2D1012010BD10B500EBB5
:1011B0000113D3F8B04114F004041472D3F8B04111
:1011C00033D0E4085460D3F8B04104F00204547200
:1011D000D3F8B44104F00F049472D3F8B441240A54
:1011E000D476D3F8B841D472D3F8B841240A147332
:1011F000D3F8B841240C5473D3F8B841240E947337
:10120000D3F8BC41D473D3F8BC41240A1474D3F886
:10121000BC41240C5474D3F8BC311B0E937439B107
:10122000016941F02001016110BD640D1460CAE73D
:10123000C16841F02001C16010BD00218171C17100
:10124000017241728172C1728170C170032101719A
:101250000221417101210180704730B50246002012
:1012600093685B0108D49068000101D5012003E078
:101270009068C00037D5022002EB0012D2F880310E
:1012800003F00103C2F880310B7A73B3D2F88041C6
:101290004D681C434B7A43EAC5031C43C2F88041A6
:1012A0008B7A03F00F038B72D2F8843123F00F0393
:1012B000C2F88431D2F884318C7A2343C2F8843165
:1012C000CB7ACC6843EA0423C2F88831CB7B096926
:1012D00043EA0121C2F88C11D2F8801141F00101DA
:1012E000C2F8801130BD042030BDD2F880314C7A74
:1012F00023430C8843EA4453C2F88031D0E70246C6
:1013000000200A4200D001207047704770B580204D
:1013100000F04CF8E0B1204C4FF08040A1696161D1
:10132000426AE06840F27123584302EB0010A0616A
:10133000A060401A80B2E08063780025012240F668
:101340009801012B09D0884202D36270A5702570E4
:10135000BDE87040802000F023B8884202D3A57019
:101360002270F5E7A0F2B63140F24C42914210D81B
:101370000A4AA17822F81100491CC8B2A0700828B6
:10138000E6D30649420001F11400FFF799F8A57071
:10139000DEE76570DCE70000480000208C030020D9
:1013A0000149086070470000143C0140034A0146AF
:1013B000002012680A4200D001207047143C01400E
:1013C00030B51A4A8379016853B313688B431360AD
:1013D000111D0B680468A3430B60017911440B686D
:1013E000046823430B60114B083319680468A14358
:1013F00019601C1D21680568A943216041791029E5
:1014000005D011440A68006802430A6030BD1968BB
:10141000026811431960216800680143216030BDF2
:101420000079104402688A43026030BD003C0140EC
:101430000349002008700349087048707047000095
:10144000D80000209002002030B52B4B9FED2B0AD6
:101450002B499A8840F20465A2F2B55040F2B45488
:101460004F2802D281ED040A11E023488088400011
:10147000AA4202D3A0F6084003E0A24207D8A0F691
:10148000683000EE900AF8EEE00AC1ED040ADA884E
:10149000A2F2B5504F2802D281ED030A11E016489E
:1014A000C0884000AA4202D3A0F6084003E0A2424E
:1014B00007D8A0F6683000EE900AF8EEE00AC1ED19
:1014C000030A1888A0F27952C72A02D281ED050AD0
:1014D00030BDB0F5C86F02D3A0F5C86004E0B0F528
:1014E000AF6FF5D8A0F5AF604000404200EE100AA3
:1014F000B8EEC00AEAE70000A003002000000000E8
:10150000B40300202DE9F0412F4D314C40F2046628
:101510002DED048B40F2B457A8889FED2C9AA0F2D1
:10152000B5519FED2C8B4F2902D284ED049A11E026
:10153000B04202D3A0F5E66003E0B8420AD8A0F5B5
:10154000916005F042FF53EC182B05F0A5FF05F064
:10155000CFFC2061E888A0F2B5514F2902D284ED7A
:10156000039A11E0B04202D3A0F5E66003E0B8426E
:101570000AD8A0F5916005F028FF53EC182B05F070
:101580008BFF05F0B5FCE0602888A0F27951C729EF
:1015900005D284ED059ABDEC048BBDE8F081B0F571
:1015A000C86F02D3C0F5E16004E0B0F5AF6FF2D8C8
:1015B000C0F5966005F009FF53EC182B05F06CFFA1
:1015C00005F096FC6061E6E7A00300200000000043
:1015D000B4030020000000000000F83FF0B5002236
:1015E00001274FF0030C0B6807FA02F52B40AB42C2
:1015F0002CD1066853000CFA03F4A64306600E795A
:10160000D0F800E09E4046EA0E0606600E79012EF4
:1016100001D0022E12D18668A64386604E79D0F89A
:1016200008E09E4046EA0E0686604668AE43466085
:1016300045688E799640B6B235434560C568A54386
:10164000C560CC799C40C3681C43C460521C102AFE
:10165000C9D3F0BD4B07DB0E9A40C90810B500EBAB
:101660008100016A0F249C40A1430162016A114379
:10167000016210BDFEE780ED030AC0ED020A80EDB5
:10168000081AC0ED071A80ED092AC0ED112A80ED75
:10169000143A704770B50C4602EB82014A0000EB29
:1016A00080012DED028B4900B0EE408A8D1A40B1C9
:1016B000281E00DC501A0A2814DA002C06DD204609
:1016C00005E0FFF71FFFBDEC028B70BD604205F027
:1016D0007CFE9FED0B3B53EC132B05F0A1FE01D2DA
:1016E0000120F0E700EE104AB0EE481AF8EEC00A0A
:1016F00000EE105AB8EEC00A03F0CCFA0020E2E780
:10170000000000000000E03F4FF4E130FFF74CB96B
:1017100030B59FED2D0A027C018862B3B0F902203A
:10172000DFED2A0A002ADFED2A1A9FED2A1A9FED23
:101730002A2A428A40F6C21441F6FF731FDB914207
:10174000A1EB020205D242F2E0451544A5420CD8B5
:101750001A4400EE102AB8EEC00AC0EE202A22EE8B
:10176000A10AC0EE010A20EE820AB5EEC00AF1EE2F
:1017700010FA1EDC23E041820121017430BD914248
:101780001FD95B1A03F2E1451544A5420CD81A444F
:1017900000EE102AB8EEC00AC0EE202A22EEA10AFE
:1017A000C0EE010A20EE820AB5EEC00AF1EE10FA90
:1017B00005D2D0ED030A30EE800A80ED030A4182A3
:1017C00030BD8A1AE4E700000000000000F8FF4581
:1017D0000000B4430070604500003B4310B5FFEECD
:1017E000002A2DED048B9FED618AB0EE482AF0EEC1
:1017F000481ADFED5F8AF7EE000AB2EE040AB0EE97
:10180000681A5C4800F0B2FC5A48FFEE002AB0EEBD
:10181000482AF0EE481AB0EE681AF7EE000AB2EE67
:10182000040A383000F0A2FC5248FFEE002AB0EE65
:10183000482AF0EE481AB0EE681AF7EE000AB2EE47
:10184000040A703000F092FC9FED4B9A4948B0EECC
:10185000482AF0EE492AF0EE481AB0EE681AF7EE80
:10186000000AB2EE040ABC3000F080FCF0EE492A17
:10187000B0EE482AF0EE481AB0EE681AF7EE000A09
:10188000B2EE040A3D4800F071FC3C48F0EE492AF3
:10189000B0EE482AF0EE481AB0EE681AF7EE000AE9
:1018A000B2EE040A543000F061FCDFED358A9FEDA2
:1018B000359ADFED359ABFEE003AF0EE482AB6EEE3
:1018C000002AF0EE681AB0EE491AF3EE040AB0EE00
:1018D000690A2E48FFF7CFFE2C48BFEE003AF0EE23
:1018E000482AB6EE002AF0EE681AB0EE491AF3EE76
:1018F000040AB0EE690A5430FFF7BDFE2348BFEE7C
:10190000003AF0EE482AB6EE002AF0EE681AB0EE81
:10191000491AF3EE040AB0EE690AA830FFF7ABFEED
:10192000BFEE003AF0EE482AB6EE002AF0EE681A52
:10193000B0EE491AF3EE040AB0EE690A1448FFF754
:101940009AFEF0EE482AF0EE681AB0EE491AB0EEB0
:10195000690ABDEC048BBFEE003AB6EE002ABDE882
:101960001040F3EE040A0B48FFF785BE00008046E6
:101970000000000038070020CDCCCCBD4808002076
:101980000000C8430000C8420AD7A33BF808002063
:10199000F4090020480A0020FEE700F005FE0520BB
:1019A00004F062FAF9E7000010B5FFEE002A2DED11
:1019B000068B9FED748AB0EE482ADFED738AF0EE55
:1019C000681A9FED729AB0EE491ADFED719AF0EE47
:1019D000690A9FED70AA7048B0EE4A0A00F0C6FB93
:1019E0006D48FFEE002AB0EE482AF0EE681AB0EE1D
:1019F000491AF0EE690AB0EE4A0A383000F0B6FB38
:101A0000F7EE002A9FED658AB0EE482A9FED649AB2
:101A1000F0EE491ADFED638AF0EE480AB0EE681A7C
:101A2000DFED619A5C48B0EE690A703800F09EFB09
:101A3000F2EE042AB0EE482A9FED5CAA5648B6EEB4
:101A4000001AF0EE4A1AF0EE480AB0EE080A7030BA
:101A500000F08CFB5048F2EE042AB0EE482AF0EE7B
:101A60004A1AB6EE001AF0EE480AB0EE080AA8309C
:101A700000F07CFBF2EE042AB0EE482A9FED4CAA5F
:101A8000B0EE681AF0EE480AF0EE4A1AB0EE080A14
:101A9000484800F06BFB4748F2EE042AB0EE482AB3
:101AA000F0EE4A1AB0EE681AF0EE480AB0EE080AF4
:101AB000383000F05BFB3F48F7EE002AB0EE482AD2
:101AC000F0EE4A1AB0EE681AF0EE480AB2EE040AD6
:101AD000703000F04BFB3748F1EE042AB0EE482A94
:101AE000F0EE491AB0EE681AF0EE480AB6EE000AB7
:101AF000A83000F03BFB2F48F1EE042AB0EE482A54
:101B0000F0EE491AB0EE681AF0EE480AB0EE000A9C
:101B1000E03000F02BFB2048F7EE002AB0EE482A18
:101B2000F0EE491AB0EE681AF0EE480AB0EE690A13
:101B3000383800F01BFB9FED209A1E48FFEE002A6C
:101B4000B0EE482AF0EE481AB7EE001AF0EE490A55
:101B5000B7EE080A703800F009FBB0EE482AF0EE44
:101B6000681AF0EE490ABDEC068BF2EE042AB7EED5
:101B7000001AB7EE080A0F48BDE81040383800F0E8
:101B8000F5BA0000CDCC4C3D9A99993EC3F5A83EDC
:101B90006F12833ACDCCCC3C4804002000000000FA
:101BA00000007A44CDCCCC3D000048420000C84241
:101BB0000000FA43980500206F12033B70470000B5
:101BC00030B50F23C27801780125FAB1144A1268A2
:101BD00001F1E02102F4E062C2F5E062C2F3072203
:101BE000C2F10404D3404278A24084781C401443DC
:101BF000220181F80024007800F01F018D40400987
:101C0000800000F1E020C0F8005130BD01F01F005D
:101C100085404809800000F1E020C0F8805130BDC7
:101C20000CED00E0024908430249086070470000DB
:101C30000000FA050CED00E00FB42DED040B70B5BB
:101C40002DED0C8BDDED141A31EEC00AFE4C84ED47
:101C5000080A9DED150A30EE600A84ED090ADDEDF3
:101C6000160A70EEC10AC4ED0C0ADFEDF80A61EE47
:101C7000200A9FEDF71A10EE100A80EE819A84ED8B
:101C80000D9A05F0C9FE41EC180B19EE100A05F08B
:101C9000C3FE41EC100B01F0EBFB53EC182B51ECA5
:101CA000100B05F0F9FB41EC190B206A05F0B4FEAE
:101CB00041EC180B606B05F0AFFE41EC100B01F02E
:101CC00073FB53EC182B51EC100B05F0E5FB53ECB8
:101CD000192B05F03FF905F00BF9A062206A05F019
:101CE0009BFE41EC180B606B05F096FE41EC100B6F
:101CF00001F0BEFB53EC182B51EC100B05F0CCFBA4
:101D000041EC190B606A05F087FE41EC180B606B23
:101D100005F082FE41EC100B01F046FB53EC182B52
:101D200051EC100B05F0B8FB53EC192B05F08AFDB4
:101D300005F0DEF8E06294ED050AD4ED0C0A9DEDA5
:101D4000191AF7EE00DA60EE200A94ED060A40EE6A
:101D5000010A30EE2D0A80EE801A84ED101A94EDFF
:101D6000020A30EE2D0A10EE100A05F055FE41EC85
:101D70001B0B606B05F050FE41EC100B01F078FB83
:101D8000B0EE408AF0EE608A94ED100AD4ED0A0AB3
:101D900020EE200A10EE100A05F03EFE53EC182B40
:101DA00005F07AFB41EC1A0B606B05F035FE41EC57
:101DB000100B01F0F9FAB0EE408AF0EE608A94ED73
:101DC000100AD4ED0B0A20EE200A10EE100A05F0DE
:101DD00023FE53EC182B05F05FFB41EC190B606BF5
:101DE00005F01AFE41EC100B01F042FB189DB0EE1D
:101DF000408AF0EE608A284605F00EFE53EC182B60
:101E000005F04AFB41EC180B606B05F005FE41EC58
:101E1000100B01F0C9FA9DED17DAB0EE40CAF0EEF2
:101E200060CA1DEE100A05F0F7FD53EC1C2B05F0FF
:101E300033FB53EC182B05F08DF853EC192B05F000
:101E400089F853EC1A2B05F0FDFC41EC180BA06847
:101E500005F0E2FD53EC182B05F01EFB94ED010A92
:101E6000D4ED0A0A41EC180B20EE200A10EE100AFD
:101E700005F0D2FD53EC182B05F06CF853EC1B2B3E
:101E800005F01CF905F034F8A06394ED040A30EE77
:101E90002D0A10EE100A05F0BFFD41EC1C0B606B23
:101EA00005F0BAFD41EC100B01F07EFAB0EE408A6D
:101EB000F0EE608A94ED100AD4ED0A0A20EE200AB2
:101EC00010EE100A05F0A8FD53EC182B05F0E4FA0B
:101ED00041EC1B0B606B05F09FFD41EC100B01F01A
:101EE000C7FAB0EE408AF0EE608A94ED100AD4EDA5
:101EF0000B0A20EE200A10EE100A05F08DFD53ECBF
:101F0000182B05F0C9FA41EC1A0B606B05F084FD43
:101F100041EC100B01F048FAB0EE408AF0EE608A16
:101F2000284605F079FD53EC182B05F0B5FA41EC85
:101F3000190B606B05F070FD41EC100B01F098FA85
:101F4000B0EE408AB1EE4D0AF0EE608A10EE100A53
:101F500005F062FD53EC182B05F09EFA53EC192B9B
:101F600004F0F8FF53EC1A2B05F06CFC53EC1B2B20
:101F700005F068FC41EC180B206905F04DFD53ECB1
:101F8000182B05F089FAD4ED030A94ED0B0A41EC05
:101F9000180B20EE800A10EE100A05F03DFD53EC00
:101FA000182B04F0D7FF53EC1C2B05F087F804F036
:101FB0009FFFE063606B05F02FFD41EC100B01F01B
:101FC00057FAB0EE408AF0EE608AE06B05F024FD2F
:101FD00053EC182B05F060FA41EC190B606B05F01F
:101FE0001BFD41EC100B01F0DFF9B0EE408AF0EE82
:101FF000608AA06B05F010FD53EC182B05F04CFA2D
:1020000053EC192B05F01EFC04F072FF114DE86033
:10201000606B05F001FD41EC100B01F0C5F9B0EE6D
:10202000408AF0EE608AE06B05F0F6FC53EC182B6A
:1020300005F032FA41EC190B606B05F0EDFC41EC58
:10204000100B01F015FA07E06C000020DB0F49408F
:1020500000003443B4030020B0EE408AF0EE608A02
:10206000A06B05F0D9FC53EC182B05F015FA53ECD6
:10207000192B04F06FFF04F03BFF286194ED100A68
:10208000B1EE400A85ED050ABDEC0C8B70BC5DF825
:1020900024FBB4EEE00AF1EE10FA01DDB0EE600AC6
:1020A000F1EE600AB4EEE00AF1EE10FA01D2B0EE01
:1020B000600A704730EEC00A00B580ED050AD0ED29
:1020C000040A70EE600AC0ED060AD0ED010A20EEA7
:1020D000800AD0ED080AFFF7DCFFD0ED000A90ED92
:1020E000061AB0EE002A00EE810AD0ED050A90ED46
:1020F000031A70EE811A90ED041A41EE421A90ED27
:10210000022A02EE210AD0ED091A70EE211AC0ED62
:10211000091A90ED0A0AF4EEC01AF1EE10FA01DD88
:1021200080ED090AD0ED091AB1EE400AF4EEC01AAA
:10213000F1EE10FA01D280ED090AF5EEC00A80ED49
:10214000031AF1EE10FAC0ED040A01DCF1EE600AA8
:1021500090ED0D0AF4EEC00AF1EE10FA03D29FEDF5
:10216000020A80ED090A00BD0000000080ED082A87
:10217000C0ED0A1A012180EC030A9FED0A0A80EDE6
:102180000B0A80ED030A80ED040A80ED090A80ED58
:10219000070A80ED050A80ED060A80F83010C0EDD0
:1021A0000D2A70470000000000B590F8301001299A
:1021B00006D180ED040A80ED030A002180F830107A
:1021C00080ED050AD0ED070A70EE800AC0ED070A1F
:1021D00090ED041A30EE410A80ED060A90ED010AF6
:1021E00020EE200AD0ED080AFFF753FF90ED001A09
:1021F000D0ED050AD0ED061A01EE200A90ED021A84
:1022000001EE210A80ED090A90ED0A1AB4EEC10A26
:10221000F1EE10FA01DD80ED091AD0ED091AB1EEE8
:10222000410AF4EEC01AF1EE10FA01D280ED090A6B
:10223000F5EEC00AC0ED040AF1EE10FA01DCF1EE91
:10224000600A90ED0D0AF4EEC00AF1EE10FA03D226
:102250009FED020A80ED090A00BD000000000000A9
:102260000C480D4900F1140280ED010AC0ED020A8C
:1022700080ED041AC0ED031A82EC032A08600748B7
:10228000006820B107489FED060A80ED030A02F0BE
:1022900005B90000B4010020EC010020E00100209D
:1022A000000000008808002070B5F7EE003A2DED20
:1022B000048BF0EE408A00EE100AB0EE608AB1EEB8
:1022C000082AB8EEC00AF0EE082A764D82B068EE11
:1022D000800A754E80EE880ABDEEC00A10EE104AE4
:1022E0006C6400EE104AB8EEC00A60EE080A00EE18
:1022F000100AB8EEC01A80EE810A00EE900A01EBD7
:102300008400F8EEE00A38EEC00A20EE200A80EEE3
:10231000081A85ED121A33EEC10A21EE023A60EE78
:10232000000A20EE800AC0EE021A21EE220A60EEB8
:10233000010A60EE810A43EE410AB1EE003AC5EDB2
:10234000131A30EE833AC3EE020AB8EE083A21EED1
:10235000033A23EE013A23EE013A00EE013AC5EDCD
:10236000140A01EE223A73EE232A82EE820A61EE0B
:10237000012A62EE812A82EE821A85ED150A85ED28
:10238000161A90ED002A62EE212A90ED012A42EE03
:10239000202A90ED022A42EE002A90ED032A02EB59
:1023A000840042EE012AC6ED002A90ED002A90ED4D
:1023B000013A22EE212A03EE202A90ED023A03EEA2
:1023C000002A90ED033A03EE012A03EB84009FED0F
:1023D000379A86ED012A90ED003A63EE211A90EDCE
:1023E000013A43EE201AD0ED020A40EE801A90ED39
:1023F000030A40EE011AC6ED021AE86960B183EEE5
:10240000A80A86ED039A86ED049A86ED059A0020C7
:10241000E86185ED1A0A19E095ED170A72EEC00A17
:1024200095ED1A0A60EE800AC6ED030AD5ED180A8A
:1024300072EE600A60EE800AC6ED040AD5ED190A54
:1024400071EEE00A20EE800A86ED050A164858383B
:10245000D0E91A12CDE900121549583091EC030A5F
:102460000FC8FFF7E9FB96ED000AF4EEC88A85ED88
:10247000170A96ED010A85ED180A96ED020AF1EEAB
:1024800010FA85ED190A0ADD0A4880ED039A80EDFD
:10249000049A0120E86102B0BDEC048B70BD0020FD
:1024A000F9E700006C000020B006002000000000EA
:1024B00004030020B4030020044A0029116801D05D
:1024C000014300E081431160704700003038024052
:1024D000044A0029116801D0014300E081431160E2
:1024E0007047000040380240044A0029116801D0BA
:1024F000014300E081431160704700002038024032
:10250000044A0029116801D0014300E081431160B1
:10251000704700004438024070B5204B1968204CC9
:1025200011F00C0104D06610042903D0082903D04F
:1025300004601BE0066019E0184A121F1168C1F31D
:102540008055116801F03F0115B1B6FBF1F101E0D2
:10255000B4FBF1F114681268C4F388146143C2F348
:102560000142521C5200B1FBF2F1016019680F22C6
:1025700002EA11110B4A545C0168E14041601C6899
:10258000072505EA9424145D21FA04F484601B688D
:1025900005EA5333D25CD140C16070BD08380240B7
:1025A0000024F400800200201FB51548006800F1E7
:1025B00010010EC98DE80E00124991ED030A0FC8F3
:1025C00001F01CFD1048006800F110010EC98DE8F3
:1025D0000E000E4991ED030A0FC801F01BFE0C48D6
:1025E000006800F110011EC98DE81E00094991ED37
:1025F000030A0FC801F0F6FBBDE81F4001F04EBF13
:10260000E4010020E0070020E80100203408002059
:10261000EC010020880800202DED028B4FF47A7623
:10262000174D184C9FED188A2978052915D2DFE837
:1026300001F00503181D2200144800E01448206032
:10264000304600F079FBB0EE480A0120FEF7F0F8C2
:10265000B0EE480A0220FEF7EBF8052003F004FC78
:10266000E2E70C48206040F24650EAE70A48206062
:1026700040F29E70E5E70948206040F2DC50E0E758
:1026800090020020E40100200000000098010020DA
:10269000DC08002044010020600100207C010020B3
:1026A00010B58A0721F003040849120F21440F23B3
:1026B000D1F8084893409C43C1F80848D1F808383D
:1026C00090400343C1F8083810BD000000300140BD
:1026D0000CB50022274900920192086840F480302E
:1026E00008604FF4A043086800F40030019000989F
:1026F000401C0090019810B900989842F3D10868E6
:10270000800334D5012001901A484030026842F01D
:10271000805202601848026842F440420260154844
:10272000083002680260026842F4004202600268F7
:1027300042F4A0520260031F104A1A600A6842F075
:1027400080720A600A689201FCD50D4940F2057258
:102750000A60016821F003010160016841F0020193
:1027600001600168C1F381010229FAD10CBD019217
:102770000CBD0000003802400070004008544007C3
:10278000003C02404FF0E0210428086903D020F00B
:1027900004000861704740F00400FAE710B504F047
:1027A0003FF9012803D0BDE8104003F02DBE10BD55
:1027B000124810B5016841F47001016010480168C9
:1027C00041F0010101600E4A0021083211600268E7
:1027D0000C4B1A400260031D0B4A1A60026822F477
:1027E0008022026006480C300160FFF771FF034948
:1027F0004FF000608039086010BD000088ED00E0F7
:1028000000380240FFFFF6FE103000242DE9F043AF
:102810008846814601218BB04804FFF771FE0121F3
:102820002020FFF749FE1F4F032206213846FEF7FE
:1028300011FF4020022500908DF8045003208DF8F0
:10284000050000248DF8064001268DF807606946D2
:102850003846FEF7C3FEADF80880ADF80A40ADF883
:102860001040114CCDF80C9002A9204600F0D4F98C
:102870007020ADF81400ADF81660ADF8205005A931
:10288000204600F091F90821204600F0BDF9012111
:10289000204600F05DF90121204600F066F90BB0FA
:1028A000BDE8F08300140240004401402DE9F043EC
:1028B000884681468BB001218020FFF709FE012167
:1028C0002020FFF7F9FD1F4F092208213846FEF7A7
:1028D000C1FEB815022500908DF8045003208DF834
:1028E000050000248DF8064001268DF80760694632
:1028F0003846FEF773FEADF80880ADF80A40ADF833
:102900001040114CCDF80C9002A9204600F084F93B
:102910007020ADF81400ADF81660ADF8205005A990
:10292000204600F041F90821204600F06DF9012110
:10293000204600F00DF90121204600F016F90BB0F9
:10294000BDE8F08300140240001C00402DE9F04374
:102950008846814601218BB00802FFF7B9FD0121AD
:102960002020FFF7A9FD1F4F092211463846FEF728
:1029700071FE7815022500908DF8045003208DF823
:10298000050000248DF8064001268DF80760694691
:102990003846FEF723FEADF80880ADF80A40ADF8E2
:1029A0001040114CCDF80C9002A9204600F034F9EB
:1029B0007020ADF81400ADF81660ADF8205005A9F0
:1029C000204600F0F1F80821204600F01DF9012111
:1029D000204600F0BDF80121204600F0C6F80BB0FB
:1029E000BDE8F08300140240002000401FB5012123
:1029F0000846FFF76DFD42F2107001905320ADF8CC
:102A000000000020ADF80200ADF808004FF080444F
:102A10006946204600F000F901221146204600F0E8
:102A2000BAF80121204600F0A0F81C208DF80C0017
:102A300001208DF80D0003218DF80E108DF80F0088
:102A400003A8FFF7BDF81FBD10B501218C07204674
:102A500000F095F8002827D0144901F11C03CA683A
:102A60000A61521CCA608888401C82B28A80642A2B
:102A700012D300228A805888401C80B258803C289B
:102A80000AD35A809888401C80B298803C2803D38F
:102A90009A80D888401CD880888818802046BDE855
:102AA0001040012100F05EB810BD00004800002079
:102AB0002DE9F0438846814601218BB00804FFF7D9
:102AC0001FFD01210846FFF7F7FC1F4F03220221DB
:102AD0003846FEF7BFFD0420022500908DF8045013
:102AE00003208DF8050000248DF8064001268DF89E
:102AF000076069463846FEF771FDADF80880ADF80D
:102B00000A40ADF81040114CCDF80C9002A92046B7
:102B100000F082F87020ADF81400ADF81660ADF842
:102B2000205005A9204600F03FF80821204600F07B
:102B30006BF80121204600F00BF80121204600F03F
:102B400014F80BB0BDE8F0830000024000400140E3
:102B50000029018802D041F0800101E021F08001CC
:102B600001807047C943018270470029018802D063
:102B700041F0010101E021F00101018070470246AE
:102B80000020138A92890B4202EA010202D0002A35
:102B900000D001207047002A828901D00A4300E05A
:102BA0008A4382817047000030B5028C22F0010216
:102BB0000284028C8388048B22F0020224F07305C5
:102BC0000C882C438D8915434A882A430C4DA84212
:102BD00002D00C4DA8420DD122F00805CA8923F479
:102BE00040732A4322F004058A882A430D8A1D4334
:102BF0004B8A2B438380048389684163028430BD00
:102C00000000014000040140028B22F008020A4348
:102C1000028370474163704730B50288164C174DE8
:102C2000A0420DD0A8420BD0B0F1804F08D0144B79
:102C3000984205D0134B984202D0134B984203D1CF
:102C400022F070034A881A43104B984206D0104B6A
:102C5000984203D022F440730A891A4302804A68DA
:102C6000C2620A880285A04201D0A84201D1897AB5
:102C700001860121818230BD000001400004014035
:102C80000004004000080040000C0040001000401C
:102C9000001400402DE9F04144F61F645321204602
:102CA000FFF754FE53212046FFF700FEA7212046E0
:102CB000FFF7ACFDA7212046FFF7FAFE1A4D4FF4AF
:102CC000FA6421462846FFF7A5FF184E21463046F4
:102CD000FFF7A0FFDFF8588021464046FFF79AFF34
:102CE000144F21463846FFF795FF6410204601F047
:102CF0008DFC204601F08AFC21463046FFF78AFF12
:102D000021462846FFF786FF21464046FFF782FF0F
:102D100021463846FFF77EFF204601F077FC20462B
:102D2000BDE8F04101F072BC00200040001C0040F2
:102D3000004001400044014001460148FFF76ABFDE
:102D4000001C00402DE9F04123480125234E40F2AC
:102D5000255705603946304600F09FF8012839D1E3
:102D6000304600F027F91E49C0B2002408704A78A6
:102D7000052A1DD2DFE802F003070F1A21000D28F3
:102D800022D14D7020E00A2802D00D281CD00FE07F
:102D90008C7002200FE0134B8A789854521CD0B2EA
:102DA0008870182810D38C70032004E00A2801D002
:102DB0004C7009E00420487006E00D460D2802D151
:102DC000084800F011F96C7039463046BDE8F04112
:102DD00000F053B8BDE8F08104000020004C004032
:102DE00034000020400300203EB50D4D40F2255434
:102DF0002146284600F051F800280FD021462846E9
:102E000000F03BF8074A02F12001081F8DE8070097
:102E1000031F14321039103802F07CFD3EBD000053
:102E2000001001409402002070B5104D40F225546E
:102E30002146284600F031F8012816D121462846BF
:102E400000F01BF80A494FF6E8520868904203DD8B
:102E5000A0F57F40FF3808604868904203DDA0F588
:102E60007F40FF384860401F486070BD004400400C
:102E7000F0010020C943018070470A0A01219140F6
:102E8000C943018070470029818902D041F4005173
:102E900001E021F400518181704770B501F01F05F8
:102EA00001260024C1F3421306FA05F2012B0FD0CC
:102EB000022B0FD0838A4FEA11210088134206FAB1
:102EC00001F600EA060001D000B10124204670BDE1
:102ED0008389F0E7038AEEE710B5C1F3421301F0EE
:102EE0001F040121A140012B07D0022B07D0143071
:102EF000002A026805D00A4304E00C30F8E71030DD
:102F0000F6E78A43026010BD7FB50446008A0D468D
:102F1000C98820F4405001432182A08941F20C610C
:102F20008843A9882A8911436A8902431143A181F0
:102F3000A08A20F44071A8890843A0826846FFF760
:102F4000EBFA1A48844202D01948844201D103980E
:102F500000E00298A189090400EBC00101EB001018
:102F6000296801D5490000E08900B0FBF1F0642236
:102F7000B0FBF2F109010B096FF018056B4300EB90
:102F80008300A3891D044FF0320306D503EBC00074
:102F9000B0FBF2F000F0070005E003EB0010B0FB1F
:102FA000F2F000F00F00084320817FBD00100140C7
:102FB000001401408088C0F30800704730B5094D07
:102FC000074A6B6A07E014882406FCD510F8014B09
:102FD00094805B1C6B628B42F5DB0020686230BD25
:102FE000001001409402002070B53D4C2DED048B83
:102FF000A4F10C05D4ED031A9FED3B9AC4ED061A1B
:1030000094ED040ADFED399A84ED070A90ED001A79
:1030100084ED001AD0ED010AC4ED010AD0ED020AD8
:10302000C4ED020AD0ED030AC4ED030A90ED042AB0
:1030300070EEE10A84ED042AD0ED052A04F148007F
:10304000C4ED052A32EE400AC0ED052AC4ED080A97
:1030500084ED090AD4ED0A1A224871EEA00AC4EDE3
:103060000A0AD4ED0B0A30EE800A84ED0B0A90EDCB
:10307000010A31EE400A85ED020A60EE090A80EE8F
:10308000A90A10EE100A04F0C7FC41EC100B00F086
:10309000EFF9A06A04F0C0FC9FED158B53EC182BE0
:1030A00003F058FF03F024FF286095ED020A60EE5C
:1030B000090A80EEA90A10EE100A04F0ADFC41ECFA
:1030C000100B00F071F9E06A04F0A6FC53EC182B29
:1030D00004F0B8FB03F00CFF6860BDEC048B70BD1E
:1030E0001003002034000020DB0F4940000034436F
:1030F0000000000000000000FEE7000010B52DED0C
:103100000E8BF0EE40DAB0EE60DA9FED6C0A21EE45
:10311000800ADFED6B0A80EE208A9FED6A0A61EE7D
:10312000008A18EE900A04F077FC41EC1B0B1DEEB0
:10313000100A04F071FC41EC190B18EE100A04F0AF
:103140006BFC41EC100B00F093F953EC192B51EC94
:10315000100B04F0A1F941EC1A0B1DEE900A04F0DB
:103160005BFC41EC190B18EE100A04F055FC41EC25
:10317000100B00F019F951EC100B03F0ADFE53ECFD
:10318000192B04F089F953EC1A2B04F05BFB53EC78
:103190001B2B03F0DFFE9FED4C9B53EC192B03F030
:1031A0008DFF03F0A5FE4A4C206018EE900A04F053
:1031B00033FC41EC1B0B1DEE100A04F02DFC41EC1E
:1031C0001A0B9FED440A38EE00EA1EEE100A04F0D6
:1031D00023FC41EC100B00F0E7F853EC1A2B51ECF8
:1031E000100B04F059F941EC1C0B1DEE900A04F091
:1031F00013FC41EC1A0B1EEE100A04F00DFC41EC1E
:10320000100B00F035F953EC1A2B51EC100B04F0B5
:1032100043F953EC1C2B04F015FB53EC1B2B03F070
:1032200099FE53EC192B03F049FF03F061FE606037
:1032300018EE900A04F0F0FB41EC1A0B1DEE100A98
:1032400004F0EAFB9FED240A41EC1B0B38EE00CAA8
:103250001CEE100A04F0E0FB41EC100B00F008F942
:1032600053EC1B2B51EC100B04F016F941EC180B2E
:103270001DEE900A04F0D0FB41EC1B0B1CEE100A73
:1032800004F0CAFB41EC100B00F08EF853EC1B2B42
:1032900051EC100B04F000F953EC182B03F05AFE1C
:1032A00053EC1A2B03F056FE53EC192B03F006FFD8
:1032B00003F01EFEA060BDEC0E8B10BDDB0F49407D
:1032C000000034433BDFCF3E000000C0B88FCEBFCC
:1032D000CC030020920A063F920A863F224808B596
:1032E000D0ED020A60EE801A30EE601AF5EEC01AD8
:1032F000F1EE10FA14DAF5EEC00AF1EE10FA01DC84
:10330000F1EE600AB5EEC00AF1EE10FA01DCB1EEA2
:10331000400A164930EE800A10EE100A884202DC9C
:103320008DED001A02E06846FDF794FB9DED000A62
:103330000F48FEF739FF0E4890ED090A0D4880ED61
:10334000050A9DED000AB5EEC00AF1EE10FA01DCA7
:10335000B1EE400A10EE100AB0F17E5F01DA0020F3
:1033600008BD012008BD0000040300200000344314
:10337000D8030020B403002003B401984100009852
:1033800050EAC12018BF04204A0D18BF40F00100C8
:1033900040F2FF72B2EB515F08BF40F0020001281B
:1033A00008BF052002B0704710B52F499FED2C1BB8
:1033B0002DED020B84B0059820F000408842D8BF64
:1033C0009DED040B2DDD2949884209D1049840B9AF
:1033D0004FF00100FDF7F1F800F0E2FC06B010BD7F
:1033E00005DB9DED040B00F0CFFC06B010BD684678
:1033F0009DED040B00F0E0F810F0030004BF9DED1C
:10340000021B9DED000B0CD001280ED09DED021B80
:103410009DED000B022817D0012000F01DFC06B026
:1034200010BD00F0E5FA06B010BD9DED021B9DED4C
:10343000000B012000F010FC51EC100B03F04CFDD0
:1034400006B041EC100B10BD00F0D2FA51EC100B9D
:1034500003F042FD06B041EC100B10BD000000006F
:103460000000000000000000FB21E93F0000F07FA9
:1034700010B52F499FED2C1B2DED020B84B0059844
:1034800020F000408842DCBF00209DED040B32DDBF
:103490002849884209D1049840B94FF00100FDF74E
:1034A0008CF800F07DFC06B010BD05DB9DED040B33
:1034B00000F06AFC06B010BD68469DED040B00F0FC
:1034C0007BF810F0030011D0012818D09DED021BED
:1034D0009DED000B02281AD000F08AFA51EC100B77
:1034E00003F0FAFC06B041EC100B10BD9DED021B81
:1034F0009DED000B012000F0AFFB06B010BD9DED6F
:10350000021B9DED000B00F073FA06B010BD012008
:1035100000F0A2FB51EC100B03F0DEFC06B041EC16
:10352000100B10BD000000000000000000000000B3
:10353000FB21E93F0000F07F00B52DED048BB0EEDC
:10354000409AF0EE609A83B051EC190B04F0AEF89B
:1035500041EC180B18EE100A18EE901A8DED008B46
:10356000002818BF0120084320F00040C0F17F6010
:1035700000F1E040C00F14D019EE101A19EE900AB5
:103580008DED009B002918BF0121084320F0004069
:10359000C0F17F6000F1E040C00F04BF0120FDF7E3
:1035A0000CF8B0EE480A03B0F0EE680ABDEC048BEC
:1035B00000BD0000000000002DE9F14F04462DED94
:1035C000020B2DED088B8AB09FEDE70B80ED020B0F
:1035D000139EE74826F0004585420ADC9DED120B5C
:1035E000002084ED000B0AB0BDEC088B03B0BDE8F1
:1035F000F08FE0489FEDE0AB9FEDE1BBA84247DDD7
:10360000E14F9FEDE39B9FEDE48B9DED120B53EC9F
:103610001A2B51EC100B002E1CDD04F013F941ECB9
:10362000100BBD4208D053EC1B2B51EC100B04F0D7
:1036300009F9C4E900010BE053EC192B51EC100B14
:1036400004F000F953EC182B04F0FCF8C4E9000175
:103650000120C8E703F07EFC41EC100BBD4208D00E
:1036600053EC1B2B51EC100B03F074FCC4E900016C
:103670000BE053EC192B51EC100B03F06BFC53ECEB
:10368000182B03F067FCC4E900014FF0FF30AAE7F4
:10369000C348A84279DB9DED120B51EC100B00F0F2
:1036A000EBFF41EC180B9FEDC00B53EC102B03F01C
:1036B000F3FE9FEDBF1B53EC112B03F04BFC03F00B
:1036C00055FE074603F081FE41EC190B53EC1A2B13
:1036D00003F0E2FE53EC182B03F0DCFF41EC180B77
:1036E00053EC1B2B51EC190B03F0D6FEDFF8C8A2EC
:1036F00041EC100B4FEA15580125FA4453EC102BFE
:1037000051EC180B04F09EF8032DC4E900013DD0E4
:10371000C1F30A5005EB4511A8EB000011398142B5
:1037200034DA0AEB051BB0EE48AA9BED000BF0EE75
:1037300068AA53EC102B51EC190B03F0ADFE41ECD1
:103740001B0B51EC1A0B53EC1B2B04F07BF841ECD8
:10375000180B51EC1A0B53EC182B04F073F853ECC4
:103760001B2B04F06FF89BED020B41EC1A0B53EC92
:10377000102B51EC190B03F08FFE53EC1A2B04F0B5
:1037800061F841EC100B6D1CB8E70EE0002EA8BFED
:103790003846BFF628AF94ED000B51EC100B03F048
:1037A0009BFBC4E9000178421DE7C6F3130040F417
:1037B000801EC6F30A50A0F2F530471100F01F0535
:1037C000C5F12000DDF848B0089000200690079071
:1037D0000520EC467949002D07EB0002794408BF2B
:1037E00051F8221009D051F8223001EB8201AB4090
:1037F0004A68089922FA01F11943A1FB0E26A1FBA0
:103800000B131A449A4234BF0123002303EB06082A
:103810000CEB8003D3E901A60E448E4234BF012194
:10382000002192448A4411B1924502D903E09245A5
:1038300001D2012100E00021C3E901A641444CF876
:103840002010011EA0F10100C4DC029800F100501C
:10385000850F0298DDE903678000DDF8148003F02E
:10386000B4FD41EC1A0B304603F0C6FD9FED541B2E
:1038700053EC112B03F010FE41EC1B0B384603F008
:10388000BBFD9FED511B53EC112B03F005FE41ECEA
:10389000180B404603F0B0FD9FED4D1B53EC112B70
:1038A00003F0FAFD41EC190B51EC180B53EC192BFA
:1038B00003F050FB53EC1B2B03F04CFB53EC1A2B87
:1038C00003F048FBCDE90801002008909DED080BAE
:1038D00053EC1A2B51EC100B03F0B4FF53EC1B2BE1
:1038E00003F0B0FF53EC182B03F0ACFF53EC192B93
:1038F00003F0D0FE9FED381B53EC112B03F0CCFDF1
:103900009FED370B41EC180B53EC102B9DED080B82
:1039100051EC100B03F0C0FD53EC182B03F01AFB15
:103920009FED310B41EC180B53EC102B9DED080B68
:1039300051EC100B03F0B0FD53EC182B03F00AFB15
:1039400041EC100B139810F0004F06D06D4251EC73
:10395000100B03F0C1FA41EC100B284684ED000B6C
:1039600041E6000000000000000000000000000030
:10397000FB21E93F7CD9024000004054FB21F93F84
:103980003163621A61B4D03DFB21F93F00000000B1
:103990000000601A61B4D03D7370032E8A19A33BF6
:1039A000FB2139410000000083C8C96D305FE43F4E
:1039B000000000000000E03F42440000904300008F
:1039C000000000000000103E000000000000103C5D
:1039D000000000000000103A182D4454FB21F93D6E
:1039E0003326A611460B113C00000054FB21F93D83
:1039F00010B52DED040B2DED088B82B0B0EE419A81
:103A0000F0EE619A0B9820F000449FED4BABB4F1BF
:103A1000795F11DA9DED0A0B51EC100B03F0A6FC57
:103A2000002801BFB0EE4A0AF0EE6A0A02B0BDEC0F
:103A3000088B04BF04B010BD9DED0A0B53EC102B96
:103A400051EC100B03F028FD41EC180B3C4806210B
:103A5000B0EE480AF0EE680A784400F081F853ECC2
:103A6000182B51EC100B03F017FD9DED0A0B41ECE8
:103A70001B0B53EC192B51EC100B03F00DFD41EC1B
:103A8000190B53EC1B2B51EC180B03F005FD53ECF9
:103A9000192B03F0D7FE9FED2C0B41EC190B53ECC7
:103AA000102B51EC180B03F0F7FC41EC100B2848DD
:103AB000844210DA53EC192B51EC100B03F0C2FEC8
:103AC00053EC1A2B03F0E6FD41EC100B02B0BDECF9
:103AD000088B04B010BD1F48A042BCBF9FED1E1B49
:103AE0008DED001B06DBA4F5001001900020009076
:103AF0009DED001B51EC100B53EC112B03F0A2FEBB
:103B00009DED000B41EC180B53EC102B51EC1A0BF4
:103B100003F098FE41EC1A0B53EC192B51EC180BE7
:103B200003F090FE53EC1A2B03F0B4FD41EC100BA4
:103B3000CCE7000000000000000000000000F03FA3
:103B4000B440000000000000000000000000E03F62
:103B50003333D33F0000E93F000000000000D23FB4
:103B600070B504462DED028B4D1E00EBC500B0EE86
:103B7000408AF0EE608A90ED000B35F0060017D019
:103B800053EC182B51EC100B03F086FC41EC100B9E
:103B90006D1E04EBC50090ED001B51EC100B53ECB7
:103BA000112B03F0D7F941EC100B35F00600E7D1EB
:103BB000022D36D0042D1CD0062D1CBFBDEC028B6F
:103BC00070BD53EC182B51EC100B03F065FC94ED19
:103BD0000A1B53EC112B03F0BDF953EC182B03F027
:103BE0005BFC94ED081B53EC112B03F0B3F941EC93
:103BF000100B53EC182B51EC100B03F04DFC94ED13
:103C0000061B53EC112B03F0A5F953EC182B03F012
:103C100043FC94ED040B53EC102B03F09BF941ECA7
:103C2000100B53EC182B51EC100B03F035FC94EDFA
:103C3000021B53EC112B03F08DF953EC182B03F0FE
:103C40002BFC94ED001B53EC112B03F083F9BDEC1E
:103C5000028B41EC100B70BD31B504462DED040B09
:103C60002DED0A8BB0EE41BAF0EE61BA0B989DEDE6
:103C70000A0B20F00040B0F1795F0DDA51EC100B27
:103C8000FFF77AFB042808BF00F09AF89DED0A0BB5
:103C9000BDEC0A8B05B030BD53EC102B51EC100B72
:103CA00003F0FAFB41EC180B9DED0A0B53EC182BBB
:103CB00051EC100B03F0F0FB41EC190B2C48B0EE6B
:103CC000480AF0EE680A05217844FFF749FF9FEDA6
:103CD0002ACBB0EE40AAF0EE60AA9CB353EC1C2BAA
:103CE00051EC190B03F0D8FB41EC1C0B53EC1A2BD5
:103CF00051EC190B03F0D0FB9FED210B41EC190B9C
:103D000053EC102B51EC1B0B03F0C6FB53EC192B9F
:103D100003F098FD53EC182B03F0BEFB53EC1B2B68
:103D200003F090FD53EC1C2B03F08CFD9DED0A1B62
:103D300053EC112B03F0AEFCBDEC0A8B05B041EC4B
:103D4000100B30BDFFE753EC1A2B51EC180B03F0AE
:103D5000A3FB53EC1C2B03F0FDF853EC192B03F0E1
:103D60009BFB9DED0A1B53EC112B03F0F3F8E3E7EB
:103D70003C3F000000000000495555555555C5BF52
:103D8000000000000000E03F10B553EC102B51EC98
:103D9000100B03F0DFF841EC100B10BD0000000029
:103DA0009FED050B10B553EC102B51EC100B03F0ED
:103DB00085F941EC100B10BD000000000000000070
:103DC0009FED050B10B553EC102B51EC100B03F0CD
:103DD00063FB41EC100B10BD000000000000001060
:103DE000704700000FB400212DED020B4FF07E5202
:103DF00070B57F4C2DED048BE160DDED101A11EEF6
:103E0000900A904218DCF5EEC01AF1EE10FA13D3C6
:103E10009DED112A12EE100A90420DDCB5EEC02A7B
:103E2000F1EE10FA08D39DED0E1ADDED0D0AB4EE99
:103E3000E01AF1EE10FA05D2A180BDEC048B70BC43
:103E40005DF81CFB9DED0B8ADDED0C8AB4EE688AF3
:103E5000F1EE10FA07D120EE810ABDEEC00A10EE95
:103E6000100AA080E9E738EEC89AB5EEC09AF1EEE4
:103E700010FA01DC38EE689AF0EE003AF4EEC88AE7
:103E800061EE891A62EE092A39EE612A21EEA33A1F
:103E900062EEA35A32EE624A21EE012A00EEE02AD7
:103EA000C2EE034A9DED0F2A22EE023AB0EE435ACB
:103EB00001EE415AC5EE252AF1EE10FA04DDB4EE0A
:103EC000C08AF1EE10FA09DCF4EEC88AF1EE10FABD
:103ED00007D2B4EEC08AF1EE10FA02D2BDEEE00ACB
:103EE00015E0F4EEC88AF1EE10FA04DDF4EEC08AB3
:103EF000F1EE10FA09D3F4EEC88AF1EE10FA09D205
:103F0000F4EEC08AF1EE10FA04DDBDEEC20A10EE46
:103F1000100A39E070EE489AF5EEC09AF1EE10FA08
:103F200001DC78EE409AF4EEE19AF1EE10FA08D254
:103F300020EEA00A64EEA30A00EEA90A10EE100A11
:103F400018E031EE840AB4EEE90AF1EE10FA02DD6F
:103F5000BDEEC10ADBE739EE690A62EEA30AB5EEEF
:103F6000C00AF1EE10FA01DC39EEC90A00EEC03ADF
:103F700013EE100A03F050FD41EC100BFFF7DCFAD2
:103F800051EC100B03F0F2F9F4EEC88AA080F1EEC8
:103F900010FA02D280B24042A080164DB5F902005C
:103FA00000EE100AB4F9040000EE900AB8EEC00A60
:103FB00005F11400F8EEE00AFEF77CF895ED0E0A24
:103FC000BDEEC00A10EE100A39EEC90A2881B5EE1E
:103FD000C00AF1EE10FA01DC39EE690A064910EE6A
:103FE000100A8842BFF63EAF0120E06025E70000DE
:103FF000D401002088080020CDCCCC3D0FB4002196
:104000002DED020B4FF07E5270B57F4C2DED048BE1
:10401000A160DDED0F1A11EE900A904218DCF5EE6A
:10402000C01AF1EE10FA13D39DED102A12EE100A09
:1040300090420DDCB5EEC02AF1EE10FA08D39DEDEA
:104040000D1ADDED0C0AB4EEE01AF1EE10FA05D20D
:104050002180BDEC048B70BC5DF81CFB9DED0A8AD1
:10406000DDED0B8AB4EE688AF1EE10FA07D120EE8E
:10407000810ABDEEC00A10EE100A2080E9E738EE92
:10408000C89AB5EEC09AF1EE10FA01DC38EE689AE3
:10409000F0EE003AF4EEC88A61EE891A62EE092A5F
:1040A00039EE612A21EEA33A62EEA35A32EE624A59
:1040B00021EE012A00EEE02AC2EE034A9DED0E2A0F
:1040C00022EE023AB0EE435A01EE415AC5EE252ADD
:1040D000F1EE10FA04DDB4EEC08AF1EE10FA09DC5C
:1040E000F4EEC88AF1EE10FA07D2B4EEC08AF1EE0F
:1040F00010FA02D2BDEEE00A15E0F4EEC88AF1EE45
:1041000010FA04DDF4EEC08AF1EE10FA09D3F4EEF1
:10411000C88AF1EE10FA09D2F4EEC08AF1EE10FA74
:1041200004DDBDEEC20A10EE100A39E070EE489AC6
:10413000F5EEC09AF1EE10FA01DC78EE409AF4EE5A
:10414000E19AF1EE10FA08D220EEA00A64EEA30A7A
:1041500000EEA90A10EE100A18E031EE840AB4EE5F
:10416000E90AF1EE10FA02DDBDEEC10ADBE739EE35
:10417000690A62EEA30AB5EEC00AF1EE10FA01DC9C
:1041800039EEC90A00EEC03A13EE100A03F044FCFF
:1041900041EC100BFFF7D0F951EC100B03F0E6F8EF
:1041A000F4EEC88A2080F1EE10FA02D280B24042CA
:1041B0002080164DB5F9020000EE100AB4F9000097
:1041C00000EE900AB8EEC00A05F11400F8EEE00A1D
:1041D000FDF770FF95ED0E0ABDEEC00A10EE100A55
:1041E00039EEC90A2881B5EEC00AF1EE10FA01DCF9
:1041F00039EE690A064910EE100A88423FF73EAFD1
:104200000120A06025E70000D4010020E007002085
:1042100017B7D1380FB44FF07E512DED020B10B50A
:10422000694C2DED028BDDED0B2A12EE900A8842CF
:1042300018DCF5EEC02AF1EE10FA13D39DED0C1A3E
:1042400011EE100A88420DDCB5EEC01AF1EE10FA3C
:1042500008D39DED092ADDED081AB4EEE12AF1EE4E
:1042600010FA01D20020A8E09DED068ADDED078A54
:10427000B4EE688AF1EE10FA06D121EE820ABDEEA4
:10428000C00A10EE100A98E078EEC80AF5EEC00AEF
:10429000F1EE10FA01DC78EE680AB0EE004AF4EEB6
:1042A000C88A62EEA02A21EE203A30EEE21A62EECF
:1042B000843A23EE046A71EE434A22EE021A01EEBA
:1042C000E11A81EE235A9DED0A1A61EE013AF0EEF1
:1042D000635A42EE425A85EE863AF1EE10FA04DD58
:1042E000B4EEC08AF1EE10FA09DCF4EEC88AF1EE01
:1042F00010FA07D2B4EEC08AF1EE10FA02D2BDEE87
:10430000E10A15E0F4EEC88AF1EE10FA04DDF4EEED
:10431000C08AF1EE10FA09D3F4EEC88AF1EE10FA71
:1043200009D2F4EEC08AF1EE10FA04DDBDEEC10A46
:1043300010EE100A39E030EE481AB5EEC01AF1EE70
:1043400010FA01DC38EE401AB4EEE21AF1EE10FA7F
:1043500008D221EEA10A65EE040A00EE810A10EEF1
:10436000100A18E032EEA40AB4EEC10AF1EE10FA17
:1043700002DDBDEEC20ADBE730EEC10A63EE041ACD
:10438000B5EEC00AF1EE10FA01DC31EE600A41EE42
:10439000C03A13EE900A03F03FFB41EC100BFFF71D
:1043A000CBF851EC100B02F0E1FFF4EEC88A60800C
:1043B000F1EE10FA02D280B240426080BDEC028B76
:1043C00010BC5DF81CFB0000D401002000B587B0D4
:1043D00000F500700090FF2000228DF808208DF875
:1043E000092008228DF80C008DF80D008DF80A20A8
:1043F0008DF80E008DF810008DF80B008DF80F0071
:104400008DF81100012905D0022905D003290AD110
:10441000FE2002E0FC2000E0FD208DF8120069463D
:104420000248FCF71AFF07B000BD0000006800401A
:1044300030B585B001212020FEF73EF80121880328
:10444000FEF75EF807210520FEF72AF900248DF813
:10445000104002208DF8130003A90F48FDF7BEF8A5
:104460008020012500908DF806508DF8044008202A
:104470008DF805006846FCF7A3FF17208DF80800AB
:104480008DF809408DF80A408DF80B5002A8FDF711
:1044900097FB05B030BD00000014024000B587B0A6
:1044A00000208DF808008DF8090008208DF80A001A
:1044B00040F2FF1000900E4800898DF80C00010AB0
:1044C0000B488DF80B1054300089010A8DF80D103F
:1044D0008DF80E000648A83000898DF81000010AFA
:1044E0008DF80F1069460348FCF7B7FE07B000BD12
:1044F000E00700200064004000B587B000208DF880
:1045000008008DF8090008208DF80A001049800184
:10451000009008898DF80C00020A8DF80B20888B1A
:10452000020A8DF80D208DF80E00088E8DF810000F
:10453000020A8DF80F20B1F84400010A8DF811101D
:104540008DF8120069460348FCF787FE07B000BDEE
:10455000FC060020006400400EB51B4E1B4C1C4D99
:10456000327894ED020ABDEEC00A10EE100A94ED06
:10457000010A029200B2BDEEC00A10EE101A09B292
:10458000CDE9001094ED000ABDEEC00A10EE100A4D
:1045900095ED050A03B2BDEEC00A10EE100A95EDC6
:1045A000040A02B2BDEEC00A10EE100A95ED030A2D
:1045B00001B2BDEEC00A10EE100A00B201F068FAB6
:1045C0000D2001F051FCCBE79402002004030020F1
:1045D000B403002010B504460420FEF7D3F80A48BF
:1045E0004FF47A71047014FB01F1012242804FF004
:1045F000E020026942F0020202614161016941F07A
:104600000101016110BD0000F801002070B50446F1
:1046100002F006FA01280CD0094D6888844203D3C1
:10462000B4FBF0F001F020FC6888B4FBF0F100FB73
:1046300011444FF47A706043BDE8704000F002B856
:10464000F801002070B54FF0E02500216C69094A9F
:10465000AB6912785043AA699A42FCD002D2A3EB0C
:10466000020302E0A4EB02063344194413468142DC
:10467000F1D370BDF801002082B0CDE9000121F036
:10468000004001909DED000B02B051EC100B704703
:1046900004490A885206FCD5024AC1B2121D118093
:1046A000704700000044004030B5034600208C24D1
:1046B0000DE013F8012B50400022C50702D084EA18
:1046C000500000E04008521CD2B2082AF5D3491E1F
:1046D00089B2EED230BD000002683549A2F2012253
:1046E000072A63D2DFE802F004101D2A384653007F
:1046F00030F80B2F52BA0A80428852BA4A8080881A
:1047000040BAC8802A484FE030F80B2F52BA8A824C
:10471000428852BACA82808840BA488324481430FA
:1047200042E030F80B2F52BA0A85428852BA4A85C5
:10473000808840BAC8851E48283035E030F80B2FF5
:1047400052BA8A87428852BACA87808840BAA1F88A
:10475000420017483C3027E030F80B1F4ABA144992
:10476000E4310A80428852BA4A80808840BAC880C0
:10477000084619E030F80B1F4ABA0E490A804288F1
:1047800052BA4A80808840BAC88008460CE030F8A7
:104790000B1F4ABA074954310A80428852BA4A80EC
:1047A000808840BAC8800846FCF7B2BF7047000056
:1047B000FC060020340800207CB54FF44070FDF763
:1047C00031FAA820FFF706FFFDF7EEF8FCF730FE00
:1047D000FCF700FAFCF71EF8FDF700F8FEF75AFAAE
:1047E0004FF4FA742046FFF711FFFFF721FE4FF454
:1047F000E135284600F0CAFF284601F031F8FEF7FF
:10480000F5F8FCF781FF2046FFF700FF064901207D
:10481000CDE900010023802204A1074802F0D4F86A
:1048200001F0D8FC00207CBD080000207374617288
:10483000745F7461736B0000A956000870B524485A
:10484000D0ED021A234890EC030AFEF757FC224CE5
:10485000204DB4F902000C3500EE100AD5ED000A27
:104860001E48B8EEC00AFDF725FCB4F91600D5EDD8
:10487000010A00EE100A1948B8EEC00A3830FDF7F8
:1048800019FCB4F92A00D5ED020A00EE100A13480B
:10489000B8EEC00A7030FDF70DFC104890ED090A23
:1048A000BDEEC00A10EE101A218190ED170ABDEE80
:1048B000C00A10EE101AA18390ED250ABDEEC00AC1
:1048C00010EE100A2086BDE87040FFF715BE00000C
:1048D00004030020C0030020FC060020380700204D
:1048E0002DED068B00279FEDA18ADFEDA18A9FEDBC
:1048F000A19ADFEDA19A9FEDA1AADFEDA1AAA14C9B
:10490000A14DDFF88892DFF888A2A24E40F2DC5B6E
:10491000F189594521D2A048006800281DD1B088EE
:1049200018B9F08808B9308888B17089A0F2B7301A
:10493000B0F5957F17D8B08940F2B631884212D9C8
:1049400040F2E24188420ED2207838B10BE085ED8A
:10495000048A85ED038A85ED058ADFE08F49012011
:104960000870FCF771FD7289A2F2B5504F2831D260
:10497000F08840F2B638404507D940F24C418842B1
:1049800003D286490F7005212170B18840F23A7335
:1049900099420BD940F6660C614507D2DFF8FCC19D
:1049A0008CF800704FF0020C84F800C0984207D9D0
:1049B00040F66603984203D27848077003202070BF
:1049C000414507D940F24C40814203D273480770F9
:1049D00004202070A2F23B72F92A7DD2B089B0F592
:1049E000487F30D9B0F5966F2DD26C4902200870FF
:1049F000718840F27260814215D9B0EE480A85EDA7
:104A0000040A85ED030A85ED050AB6EE003AF0EEDC
:104A1000682AB0EE402AF0EE491AB0EE691AF0EEBC
:104A20004A0AFDF71DFC207840B9B0EE6A0A6422FC
:104A3000D9F80010DAF80000FCF72CFE7089A0F21B
:104A40003B70F9286AD2B08940F2B451884231D91A
:104A500040F2046188422DD25049032008707188C9
:104A600040F27260814215D9B0EE480A85ED040A21
:104A700085ED030A85ED050AB6EE003AF0EE682AE8
:104A8000B0EE402ADFED461A9FED461AF0EE4A0AD4
:104A9000FDF7E6FB207840B9B0EE6A0A6422D9F847
:104AA0000010DAF80000FCF7F5FD7089A0F23B7009
:104AB000F92833D2B08940F23A7188422ED940F6B3
:104AC000340188422AD2354904200870718840F2A6
:104AD0007260814217D900E020E0B0EE480A85ED0F
:104AE000040A85ED030A85ED050AB6EE003AF0EEFC
:104AF000682AB0EE402AF0EE491AB0EE691AF0EEDC
:104B00004A0AFDF7ADFB207840B9B0EE6A0A64228C
:104B1000D9F80010DAF80000FCF7BCFDF18959451E
:104B200002D91D48006820B11B480068022803D044
:104B300015E00120207012E09AED000A1A48B8EE44
:104B4000C00A85ED030A99ED000AB8EEC00A85EDAA
:104B5000040A90ED000AB8EEC00A85ED050AFFF7D9
:104B60006DFE052001F080F9CFE600000000000096
:104B7000CDCCCC3E00007A4500409C450040CEC4E0
:104B80000000FA43D8000020B4030020A402002053
:104B9000A0020020A00300200000002090020020BE
:104BA0000080BB4500C0DA45A802002070B5B0EE19
:104BB000610A2DED048BB0EE428AB0EE419AF0EE20
:104BC000609AFEF78BFB2F4C94ED000A30EE690AD9
:104BD00060EE000A94ED010A30EE490A40EE000A48
:104BE00010EE900A02F018FF41EC100BFEF7A4FC47
:104BF00051EC100B02F07CF908EE900AB5EEC08A79
:104C0000F1EE10FA01DCB1EE488A1F4DB0EE680AF1
:104C1000284685ED0A8AFDF7C7FA94ED002A95ED3E
:104C2000091A1A4832EE690A61EE400AB5EEC00A66
:104C3000C0EEA81AC0ED031AD4ED011A71EEC90A2C
:104C400021EE601AC1EE282AF1EE10FAC0ED042A16
:104C500001DC39EEC20A0E4810EE101A81420EDA5B
:104C6000F5EEC00AF1EE10FA01DC79EE610A10EE01
:104C7000901A814203DA0120BDEC048B70BD002044
:104C8000FAE700000403002028050020B4030020F8
:104C90000000204110B512482DED028BB0EE418A84
:104CA000F0EE608AFDF780FAB0EE680A0D48FDF775
:104CB0007BFAB5EEC08AF1EE10FA01DCB1EE488A5B
:104CC0000748084980ED0A8A90ED090A064880EDF8
:104CD000040A91ED090A80ED050ABDEC028B10BDB6
:104CE0004006002010040020B40300202DE9F0410C
:104CF000184E0F460446F5683068001D00F02AFF84
:104D000038B9306890F82C1001208840316981430F
:104D10003161601C07D137B13168BDE8F0410E4800
:104D2000091D00F04FBF30682C44AC42446031682C
:104D300005D2B06BBDE8F041091D00F02BBF706BD0
:104D4000091D00F027FFB06A844200D2B462BDE8BA
:104D5000F081000004020020000E00202DE9F04147
:104D6000054600F03BFF2D4EB068401CB060306837
:104D70002B4F10B1706930B32BE03560B06801285B
:104D800027D1002404EB840007EB800000F0F4FE40
:104D9000641C202CF6D3234800F0EEFE214814308A
:104DA00000F0EAFE1F48283000F0E6FE1D483C30C7
:104DB00000F0E2FE1B48503000F0DEFE1948706340
:104DC0001430B06305E03068E96AC06A884200D8F0
:104DD0003560706A0121401C70626864E86A32695B
:104DE00081401143316100EB800007EB8000291DF9
:104DF00000F0E8FE00F02EFF706900280CD030684B
:104E0000E96AC06A884207D207494FF080500860BB
:104E1000BFF34F8FBFF36F8FBDE8F0810402002016
:104E2000300B0020B00D002004ED00E010B500F0C4
:104E3000D5FE0E4C2068A0B90D4800F09DFE0C4830
:104E4000143000F099FE0A48E0601430206100221E
:104E50001021052001F0EEFA206010B105A100F04C
:104E6000CFFFBDE8104000F0F5BE0000400200207A
:104E7000140E0020546D72510000000070B5124EE7
:104E8000124D1CE001F0F0F9306820B1002401F06F
:104E9000F5FEA4B901E00124F9E700F09FFEF068F7
:104EA000C468201D00F056FEA868401EA86068680F
:104EB000401E686000F0CEFE204600F052F86868A0
:104EC0000028DFD170BD0000EC0D0020040200209E
:104ED00030B4026C0B46002A0BD0C1681144C1608B
:104EE0004468A14201D30168C16030BC1846FBF799
:104EF000E7BA30BC70472DE9F041856B1746044690
:104F00000026026C82B1C7B1E068FBF7D9FAE1680C
:104F1000206C091AE1602268914202D26168081A85
:104F2000E060022F16D017E02068A8B9606801F091
:104F3000FFFD0646002060600EE0A068FBF7C0FAA7
:104F4000216CA0680844A0606168884204D320688E
:104F5000A06001E005B16D1E6D1CA5633046BDE883
:104F6000F08110B50446006B00F0A6FE2046BDE8B7
:104F7000104000F0A1BE000010484FF4A0414207CD
:104F800006D0C01D0D4920F00700411AC1F5A0410F
:104F90000B4A00230144C2E900030839103A21F00A
:104FA000070111604B600B600B1AC0E9001393609E
:104FB0004FF000405360D060704700003C0E00206E
:104FC00070020020074E4FF08054074DFFF756FF48
:104FD00030680128FAD92C60BFF34F8FBFF36F8F71
:104FE000F4E70000300B002004ED00E02DE9F0476D
:104FF000DDE909840E461746824691009946089DD0
:10500000A522206BFBF7A1FA6FF00301206B01EBE7
:105010008701084420F00707780705D040F22B32BB
:1050200019A11EA0FBF7A6F900202218315C82F816
:105030003410315C11B1401C1028F6D3002684F8DE
:105040004360202D00D31F25E562C4E91356201DBF
:1050500000F09DFD04F1180000F099FD2461C5F1F8
:1050600020006462A061666584F858604A46514633
:10507000384600F003FB2060B8F1000F01D0C8F8FB
:105080000040BDE8F08700002E2E5C467265655238
:10509000544F535C7461736B732E63004572726F6F
:1050A000723A25732C25640D0A00000030B51149B1
:1050B00000E011460A688242FBD34B685C188442C8
:1050C00003D1406818444860084643681C1894425D
:1050D00009D1084C103C2468A24209D052681A44F5
:1050E00042600A6812680260814200D0086030BDE8
:1050F0000460F9E77002002070B5002441600B4D98
:105100000061914206D8D11A8269914206D2011DEE
:10511000286907E09A4203D2994201D3012403E0AF
:10512000011DE86800F036FD204670BD40020020F9
:1051300010B5044600F052FDA06B20B1002400F031
:1051400089FD204610BD0124F9E700002DE9F34157
:1051500000980F460026846C2CB940F6CE1216A19A
:105160001AA0FBF707F9A06BE16B884205D340F664
:10517000CF1211A115A0FBF7FDF8A06BE16B8842DF
:105180000CD294F945503A4669462046FFF7B3FEE3
:105190000646681C05D06D1C84F845503046BDE8B5
:1051A000FC81606A0028F9D004F1240001F01AFDA6
:1051B0000028F3D00126F1E72E2E5C467265655279
:1051C000544F535C71756575652E63004572726F3F
:1051D000723A25732C25640D0A000000F8B50546C7
:1051E00014480E46C068C068C468201D00F0B2FCB8
:1051F000E069012817D1A0692B46411932462046A3
:10520000FFF77AFF78B100200346014600902A4656
:10521000204601F019FE30B907494FF4027201F13E
:105220001800FBF7A7F8616A01B02046BDE8F0401E
:105230000847000040020020AC6D000870B586B041
:105240002F4E53E00198002806DADDE90301029AA7
:1052500090470198002849DB039C606910B1201D2C
:1052600000F078FC05A800F0A7F8054601980A2888
:105270003CD2DFE800F00505053B273805053B2754
:105280000298A169034601442A462046FFF734FFED
:1052900000282BD0616A20468847E069012825D183
:1052A000002000900298A169002342181946204668
:1052B00001F0CAFDD0B940F2213212A117A0FBF7CC
:1052C00059F813E00298A06128B94FF44E720DA16D
:1052D00012A0FBF74FF8A0692B4641191A46204649
:1052E000FFF70AFF02E0204600F0E6FC00231A4622
:1052F00001A9306801F0DAF80028A3D106B070BD2A
:10530000400200202E2E5C4672656552544F535C5D
:1053100074696D6572732E63000000004572726FD0
:10532000723A25732C25640D0A000000F8B50D466D
:10533000064600F099FF684600F03EF804460098E3
:1053400010B101F09BFCF8BD1148ADB101690968CD
:10535000D9B10025311B2A46006800F063FD01F039
:105360008DFC0028EFD10B494FF080500860BFF34F
:105370004F8FBFF36F8FF8BDA642EBD801F07EFCD4
:1053800021463046FFF72AFFF8BD0125E2E700007D
:105390004002002004ED00E00648416B096829B195
:1053A000416BC968C9684968816270474FF0FF3135
:1053B000FAE700000402002070B5054601F03EFB4C
:1053C000064E0446B068844203D200F009F801207A
:1053D00000E0002028602046B46070BD400200203C
:1053E000F8B5184E26E0C068C4680568201D00F0B6
:1053F000B1FB616A20468847E06901281AD1A0699B
:105400002844A84206D924616060211DF06800F09C
:10541000C1FB0FE000200346014600902A462046CB
:1054200001F012FD30B9084940F2923201F1180042
:10543000FAF7A0FFF06801680029D4D13169C6E904
:105440000310F8BD40020020AC6D00080848406819
:10545000401C05D040F20F1206A111A0FAF78AFFF6
:10546000502080F31188BFF34F8FBFF36F8FFEE79B
:10547000540200202E2E5C4672656552544F535CD8
:10548000706F727461626C655C525644535C415239
:105490004D5F434D34465C706F72742E63000000A4
:1054A0004572726F723A25732C25640D0A00000054
:1054B000084CE068016839B1002139B10020FFF7DC
:1054C00035FFFFF7BBFEF4E70121F6E7C06800688F
:1054D000F5E70000400200202DE9F041044600F00D
:1054E0007DFB94F9455004F1240610E0A06C20B136
:1054F00000212046FFF72AFE04E0606A48B13046EA
:1055000001F070FB08B100F0A1FD6D1E6DB2002D21
:10551000ECDC4FF0FF3684F8456000F09BFB00F0B8
:105520005DFB94F9445004F1100709E0206948B18B
:10553000384601F057FB08B100F088FD6D1E6DB2D2
:10554000002DF3DC84F84460BDE8F04100F082BB3C
:105550002DE9F0410546002600F086FE324F3868FE
:1055600008B9FFF709FDF86805424FD1002D4DD06D
:10557000083568070BD005F00700C0F108000544A6
:10558000680704D0BF2229A132A0FAF7F3FE002D4C
:105590003CD07868854239D82349103108460468E0
:1055A00001E0214604466068A84202D22068002833
:1055B000F7D13868B846844228D00E682068086061
:1055C00060680836401B10280ED96719780704D088
:1055D000EC2216A11FA0FAF7CDFE6068401B786090
:1055E00038466560FFF762FD6168D8F804004246FE
:1055F000401AC8F80400D8F80830984200D29060E9
:10560000D8F80C0001430020C4E9000101F036FB8A
:10561000700705D04FF4967204A10EA0FAF7AAFE07
:105620003046BDE8F0810000600200202E2E5C466E
:1056300072656552544F535C706F727461626C6531
:105640005C4D656D4D616E675C686561705F342EA1
:10565000630000004572726F723A25732C25640D49
:105660000A0000000449086818B10868026D521C5D
:1056700002650868704700000402002010B5031F8F
:105680004FF080741C601B1F21F001011960191F6D
:10569000044B0B6014390A60091F6FF00202443892
:1056A0000A6010BD4D5400081CB500F097FA1F4960
:1056B0000220CDE90001002380221DA11F4801F036
:1056C00083F91A4903200839CDE90001002380221B
:1056D0001BA1204801F078F914490420091FCDE9E5
:1056E0000001002380221CA11E4801F06DF90F4922
:1056F0000520091DCDE90001002380221AA11E48C2
:1057000001F062F9094906200831CDE900010023C2
:1057100080221AA11C4801F057F904480C3800688F
:1057200000F02EFCBDE81C4000F094BA14000020EC
:105730006D6F76655F7461736B000000E14800086F
:10574000526F626F745F73746174655F7461736BC1
:1057500000000000192600084175746F5F546173E2
:105760006B000000AD0A00084D6F746F725F436FED
:105770006E74726F6C0000009B19000864617461A4
:105780005F7570646174650059450008F0B50646A0
:10579000012187B00846FCF78FFE01211020FCF79D
:1057A000AFFE234D072209212846FBF753FF0722AE
:1057B0000A212846FBF74EFF02218DF814108DF8C0
:1057C00015104FF4C060002404908DF81640012796
:1057D0008DF8177004A92846FBF700FFADF80440C8
:1057E000ADF80640ADF80840ADF80C400C20114C67
:1057F000ADF80A00009669462046FDF785FB0121B9
:105800002046FDF740FB012240F225512046FDF7DE
:1058100063FB25208DF8180003208DF819008DF802
:105820001A008DF81B7006A8FCF7CAF907B0F0BD86
:10583000000002400010014001EE100A70EEC00AA4
:105840000120B8EEC11A8840401E21EE201A00EE59
:10585000900AF8EEE01AC1EE210A30EE800A704795
:10586000F0B5074687B001210820FCF725FE01218D
:105870004804FCF72DFE254E072205213046FBF794
:10588000E9FE072206213046FBF7E4FE6020049083
:1058900002208DF814008DF8150000248DF81640B4
:1058A00001258DF8175004A93046FBF797FEADF897
:1058B00008400C20164EADF80440ADF80A000097E1
:1058C000ADF80640ADF80C4069463046FDF71CFBCC
:1058D00001213046FDF7D7FA26208DF81800032065
:1058E0008DF819008DF81A408DF81B5006A8FCF7AA
:1058F00067F940213046FDF7BDFA012240F22551FB
:105900003046FDF7E9FA07B0F0BD0000000C024098
:10591000004400402DE9FF5F5248FDF74BFB524C1D
:105920000022524D2179C0B2112909D0A17801235A
:10593000A1B1012916D0022922D0032903D137E0D1
:10594000AA2801D0E07089E0E078552805D12271BD
:105950002870AA206870A27062707FE0A8706081D1
:10596000A3707BE0B4F906106B18491CD87008B21C
:10597000E080B4F90A10884270DBE280022015E072
:10598000B4F90A106A18C91CD07089B23748FEF7FA
:105990008BFE6070B4F90A102944C978814203D0A3
:1059A00033A0FAF7E7FC59E0A078401CA07055E05E
:1059B000B4F9080010B1012802D04FE023814DE076
:1059C000294E93464C362281B71D06F10C0C06F188
:1059D000120806F1180906F11E0AB4F90800291880
:1059E000CA7832544A793A54CA790CF800204A7A73
:1059F00008F80020CB7A09F800304A7B0AF800202A
:105A0000401C00B220810228E7DB0098B6F90010A4
:105A100001600198B7F9001001600298BCF900100C
:105A200001600398B8F9001001600E98B9F90010F0
:105A300001600F98BAF9001001601098E97B0170BD
:105A400084F802B084F803B01121217184F801B008
:105A5000A4F80AB0A4F806B0A4F808B004B0002076
:105A6000BDE8F09F00100140940200203C5E002041
:105A7000526563656976656420646174612063685A
:105A800065636B2073756D206572726F7221000003
:105A90002DE9F04F85B004460EA80D4690E8000EA3
:105AA0009846174614216846FAF757FD274E6A466E
:105AB0003480B41D2580A51D2F80AF1DBB1DA7F808
:105AC000008003F1060CA3F80090DFF88480ACF8A6
:105AD00000A0002018F800101154401C0228F9DB27
