:020000040800F2
:10000000685F002031030008B3130008591200088C
:10001000B1130008910900085126000800000000F3
:10002000000000000000000000000000790200084D
:100030009B10000800000000CD020008BD1D000854
:100040004B0300084B0300084B0300084B03000858
:100050004B0300084B0300084B0300084B03000848
:100060004B0300084B0300084B0300084B03000838
:100070004B0300084B0300084B0300084B03000828
:100080004B0300084B0300084B030008CD0A00088F
:10009000990A00084B0300084B0300089D10000854
:1000A0004B0300084B0300084B0300084B030008F8
:1000B000692000084B0300084B0300084B030008AD
:1000C0004B0300084B0300084B0300084B030008D8
:1000D0004B0300084B0300084B0300084B030008C8
:1000E0004B0300084B0300084B0300084B030008B8
:1000F0004B0300084B0300084B0300084B030008A8
:100100004B0300084B0300084B0300084B03000897
:10011000592300084B0300084B0300084B03000859
:100120004B0300084B0300084B0300084B03000877
:100130004B0300084B0300084B030008090C0008A0
:10014000050C00084B0300084B0300084B03000894
:100150004B0300084B0300084B0300084B03000847
:100160004B0300084B0300084B0300084B03000837
:100170004B0300084B0300084B0300084B03000827
:100180004B0300084B03000800F002F800F064F88D
:100190000AA090E8000C82448344AAF10107DA45E2
:1001A00001D100F059F8AFF2090EBAE80F0013F0D0
:1001B000010F18BFFB1A43F0010318475C5D0000F4
:1001C0007C5D00000A444FF0000C10F8013B13F076
:1001D000070408BF10F8014B1D1108BF10F8015BA0
:1001E000641E05D010F8016B641E01F8016BF9D193
:1001F00013F0080F1EBF10F8014BAD1C0C1B09D1EA
:100200006D1E58BF01F801CBFAD505E014F8016B5B
:1002100001F8016B6D1EF9D59142D6D370470000ED
:100220000023002400250026103A28BF78C1FBD8FF
:10023000520728BF30C148BF0B607047642900F0E7
:100240000381732900F01C82002070471FB505F060
:10025000C8FD1FBD10B510BD00F0B0FA1146FFF784
:10026000F5FF03F0DDF800F0CEFA03B4FFF7F2FF7C
:1002700003BC02F0D5FF00002A4B19680868B0E8FB
:10028000F04F80F30988BFF36F8F4FF0000080F3C9
:10029000118870470000000006480068006880F37D
:1002A000088862B661B6BFF34F8FBFF36F8F00DF70
:1002B00000BF00BF08ED00E0DFF80C00016841F46A
:1002C00070010160704700BF88ED00E0EFF3098026
:1002D000BFF36F8F134B1A681EF0100F08BF20ED8D
:1002E000108A20E9F04F106008B44FF0500080F3FE
:1002F0001188BFF34F8FBFF36F8F04F045FA4FF0B3
:10030000000080F3118808BC19680868B0E8F04F55
:100310001EF0100F08BFB0EC108A80F30988BFF3FD
:100320006F8F7047D4010020EFF305807047000005
:100330000948804709480047FEE7FEE7FEE7FEE779
:10034000FEE7FEE7FEE7FEE7FEE7FEE704480549B5
:10035000054A064B70470000D11D000889010008BE
:1003600068590020685F0020685B0020685B0020FF
:10037000704700000FB4044910B503AA029800F0BA
:1003800083F910BC5DF814FBD00100202DE9F04189
:100390000E460446002020622046E168884730B3BC
:1003A000252805D0D4E901219047206A401CF2E7B6
:1003B000E168204600278847050018D0A5F14100D4
:1003C000192802D820354FF40067324629462046C6
:1003D0002760FFF733FF40B1012804D0F61D26F057
:1003E00007060836D8E7361DD6E72846DAE7206A3A
:1003F000BDE8F08170B50C460546012A05D0287885
:10040000800600D5EA69002302E0012305E05B1CB9
:10041000934202D2E05C0028F9D1A869E618C01A1C
:10042000A861286A184428622846AFF3008004E0D7
:10043000D5E9012114F8010B9047B442F8D32846BE
:10044000AFF3008070BD00002DE9F04106460024A6
:1004500010687529314616A510D0AFF3008000282A
:1004600002DA404213A507E031688A0701D512A5D8
:1004700002E0490704D511A5012401E0AFF3008093
:1004800000210A2206F1240709E0B0FBF2FCB0FBD0
:10049000F2F302FB1C00303078541846491C002847
:1004A000F3D123462A463046BDE8F04100F064B857
:1004B000000000002D0000002B00000020000000C4
:1004C000032A40F2308010F0030C00F0158011F880
:1004D000013BBCF1020F624498BF11F801CB00F858
:1004E000013B38BF11F8013BA2F1040298BF00F8AC
:1004F00001CB38BF00F8013B11F0030300F0D680B8
:10050000083AC0F0088051F8043B083A51F804CB8F
:10051000A0E80810F5E7121D5CBF51F8043B40F855
:10052000043BAFF30080D20724BF11F8013B11F860
:1005300001CB48BF11F8012B24BF00F8013B00F8A4
:1005400001CB48BF00F8012B704702F0FF0343EADC
:10055000032242EA024200F0DDB87047704770475C
:10056000704710B500F0F6F8006810BD10B50446ED
:1005700000F0F0F8046010BD2DE9F0470D469946F3
:100580009246044600F124080168880604D5E06913
:1005900021F01001216000E00120A84201DD471B8D
:1005A00000E00027A1697A1902EB0900081AA0618E
:1005B0002078C00602D42046AFF30080002608E071
:1005C000D4E901211AF806009047206A401C761CE5
:1005D00020624E45F4DB2078C0060AD52046AFF3F2
:1005E000008006E0D4E9012130209047206A401CB9
:1005F0002062381EA7F10107F4DC07E0D4E90121ED
:1006000018F805009047206A401C2062281EA5F1BA
:100610000105F3DC2046AFF300802078000602D508
:100620000220BDE8F0870120FBE7000001694A1CB9
:1006300002610878704700B58FB0CDE90131002123
:10064000059105497944CDE9031011466846FFF745
:100650009DFE0FB000BD0000E5FFFFFF10B5436930
:1006600013B1AFF3008001E0FFF7C4FE012010BD1D
:10067000127800F124010A7000224A700122EDE78D
:1006800011684FF0FF32E9E7074B70B50D467B4428
:10069000FFF7D1FF0446284600F060F810B14FF094
:1006A000FF3070BD204670BD0F2D000010B5203A00
:1006B000C0F00B80B1E81850203AA0E81850B1E81B
:1006C0001850A0E81850BFF4F5AF5FEA027C24BFD1
:1006D000B1E81850A0E8185044BF18C918C0BDE8C8
:1006E00010405FEA827C24BF51F8043B40F8043B91
:1006F00008BF7047D20728BF31F8023B48BF11F846
:10070000012B28BF20F8023B48BF00F8012B70479F
:100710004FF000020429C0F0128010F0030C00F02A
:100720002380CCF1040CBCF1020F18BF00F8012BA0
:10073000A8BF20F8022BA1EB0C0100F015B85FEA6E
:10074000C17C24BF00F8012B00F8012B48BF00F842
:10075000012B70470048704704590020007B00F0CF
:10076000800070474FF0000200B51346944696464D
:10077000203922BFA0E80C50A0E80C50B1F12001B4
:10078000BFF4F7AF090728BFA0E80C5048BF0CC062
:100790005DF804EB890028BF40F8042B08BF7047C0
:1007A00048BF20F8022B11F0804F18BF00F8012B32
:1007B0007047000000487047045900207546FFF755
:1007C000F9FFAE4605006946534620F0070085460E
:1007D00018B020B5FFF7BAFDBDE820404FF0000685
:1007E0004FF000074FF000084FF0000B21F0070119
:1007F000AC46ACE8C009ACE8C009ACE8C009ACE85C
:10080000C0098D46704710B50446AFF300802046FE
:10081000BDE81040FFF729BDF0B5074687B00121BC
:10082000042001F0C3F90121C80401F0CBF9234EE3
:1008300008220A21304600F0FFFC08220B21304636
:1008400000F0FAFC4FF44060049002208DF8140090
:100850008DF8150000248DF8164001258DF81750ED
:1008600004A9304600F0ACFCADF80440ADF80640F9
:10087000ADF80840ADF80C400C20114CADF80A0062
:1008800000976946204601F001FE0121204601F053
:10089000BBFD34208DF818008DF8195003208DF819
:1008A0001A008DF81B5006A800F084FD012240F2CA
:1008B0002551204601F0D1FD07B0F0BD00080240EF
:1008C000004C00402DED028B04F040FB224DDFED8B
:1008D000238A234C9FED238A00266860207830B15C
:1008E00001280CD0022815D005282FD11CE01E4865
:1008F00080ED038A80ED048A80ED058A26E095ED7F
:10090000000A1A4B1A4A30EE280A1A490A2085EDC5
:10091000000A13E095ED000A174B184A30EE280A3A
:10092000174985ED000A08E095ED000A154B164AB7
:1009300030EE280A154985ED000A0620F2EE040A79
:1009400001F02CF810B185ED008A267002480A21CA
:10095000001D03F047FDC1E7480200200AD7233CF1
:100960006000002000000000100300203C05002073
:1009700004010020D0000020700500205C01002050
:100980003801002094050020A401002080010020EF
:10099000FEE7000070B501218AB0084601F006F9B3
:1009A0000121480601F00EF9394C09220B2120469D
:1009B00000F042FC09220C21204600F03DFC4FF4DF
:1009C000C051089102218DF8241008A9204600F09A
:1009D000F7FB304E304600F065F9684600F0F5FA56
:1009E00000248DF806408DF8074008208DF8084057
:1009F00001258DF802408DF8040003218DF809507F
:100A00008DF803408DF80A408DF80510ADF8001000
:100A10008DF80B406946304600F01CFA8DF8164000
:100A20008DF817408DF81850ADF80C40ADF8104017
:100A3000ADF80E40ADF81240ADF814408DF81950E5
:100A400003A800F045F914208DF81C008DF81D5006
:100A50008DF81E408DF81F5007A800F0ABFC132046
:100A60008DF81C008DF81D508DF81E508DF81F500C
:100A700007A800F09FFC01220221304600F0E2F9B5
:100A800001221146304600F0DDF90AB070BD0000C9
:100A9000000002400064004010B50B4C86B00221FB
:100AA000204600F07BF900280BD06A460021204642
:100AB00000F044FA684602F07FFC0221204600F074
:100AC000B5F806B010BD00000064004010B5074C3A
:100AD0000121204600F062F9002805D02046BDE83B
:100AE0001040012100F0A2B810BD000000640040D9
:100AF0002DE9F0418AB00121022001F057F80121CF
:100B0000880601F05FF80121480601F05BF83B4CD4
:100B100009220C21204600F08FFB09220D212046DE
:100B200000F08AFB4FF44051022708918DF82470A1
:100B300008A9204600F044FBDFF8C480404600F0DE
:100B4000B1F8684600F041FA00248DF806408DF8AF
:100B500007408DF80840012508208DF809508DF8D0
:100B600002408DF8040003268DF80A408DF80340FA
:100B70008DF80B408DF80560ADF800606946404681
:100B800000F068F90E208DF816008DF817408DF8EA
:100B90001850ADF80C40ADF81040ADF80E40ADF86F
:100BA0001240ADF814408DF8195003A800F090F8E9
:100BB00040208DF81C008DF81D508DF81E708DF8AA
:100BC0001F5007A800F0F6FB3F208DF81C008DF8A1
:100BD0001D508DF81E608DF81F5007A800F0EAFB2D
:100BE00001220221404600F02DF901221146404623
:100BF00000F028F90AB0BDE8F081000000040240CE
:100C0000006800407047000010B5074C01212046E5
:100C100000F0C4F8002805D02046BDE810400121AE
:100C200000F004B810BD00000068004030B5082393
:100C300010240422B1F5007F1DD010DC202929D01A
:100C400007DC012921D0042922D0082900D1C46061
:100C500030BD402920D0B1F5807FF9D10BE00025CF
:100C6000B1F5004F06D008DCB1F5806F03D0B1F5C7
:100C7000006FEDD18561426030BDB1F5803F0DD090
:100C8000B1F5003FF8D1446030BD0549816030BD09
:100C9000C36030BD036130BD046130BD436030BD11
:100CA00001010100094910B588424FF0010101D14D
:100CB0004C0601E04FF08064204600F08FFF204694
:100CC000BDE81040002100F089BF00000064004032
:100CD000F0B5827A2F4D012191402A6842F001023D
:100CE0002A602C4E1C3632688A433260294A047BC3
:100CF000294B0C32A4B914688C4314604488C7880B
:100D000044EA0744877A03EBC707C7F840460488DC
:100D1000878844EA0744877A03EBC707C7F8444645
:100D2000047B012C12D114680C431460847A02688D
:100D300003EBC4044FEA3242C4F84026847A426886
:100D400003EBC4034FEA3242C3F84426114AC37A84
:100D5000121D002B136806D00B4313600D4A038944
:100D6000143213B104E08B43F7E713688B4313602D
:100D70000389012B02D113680B431360407B0128C8
:100D800002D1306808433060286820F001002860F4
:100D9000F0BD0000006600400060004002460020F8
:100DA00053690B424AD0B1F5807F3BD013DC082950
:100DB0002ED007DC012926D0022927D004293DD1D5
:100DC000D0682BE0102925D0202926D0402935D104
:100DD0001069102130E0B1F5004F2BD00BDCB1F5DC
:100DE000007F22D0B1F5806F22D0B1F5006F25D100
:100DF0009069702120E0B1F5803F11D0B1F5003F3E
:100E00001CD15068E5E790680D4915E0D06802E014
:100E1000D068DEE7106903210EE0106908210BE0BD
:100E20005068FBE79069012106E09069022103E028
:100E3000906900E05068042100F029B97047000073
:100E400001010100002A426901D00A4300E08A43FF
:100E50004261704710B50368002223F0020303606B
:100E6000036843F0010303604FF6FF7300E0521C78
:100E70004468E40701D19A42F9D14268D2073ED0D2
:100E80008A79012A02683CD022F080020260CA7985
:100E9000012A026838D022F0400202600A7A012A50
:100EA000026834D022F0200202604A7A012A0268E5
:100EB00030D022F0100202608A7A012A02682CD017
:100EC00022F008020260CA7A012A026828D022F0C1
:100ED000040202608A78CC78920742EA04620C79B4
:100EE00042EA04424C79098842EA0452491E0A4304
:100EF000C261016821F001010160002114E00020BD
:100F000010BD42F08002C1E742F04002C5E742F066
:100F10002002C9E742F01002CDE742F00802D1E713
:100F200042F00402D5E7491C4268D20701D0994239
:100F3000F9D14068C007E2D1012010BD10B500EB27
:100F40000113D3F8B04114F004041472D3F8B04183
:100F500033D0E4085460D3F8B04104F00204547272
:100F6000D3F8B44104F00F049472D3F8B441240AC6
:100F7000D474D3F8B841D472D3F8B841240A1473A6
:100F8000D3F8B841240C5473D3F8B841240E9473A9
:100F9000D3F8BC41D473D3F8BC41240A1474D3F8F9
:100FA000BC41240C5474D3F8BC311B0E937439B17A
:100FB000016941F02001016110BD640D1460CAE7B0
:100FC000C16841F02001C16010BD00218171C17173
:100FD000017241728172C1728170C170032101710D
:100FE0000221417101210180704730B50246002085
:100FF00093685B0108D49068000101D5012003E0EB
:101000009068C00037D5022002EB0012D2F8803180
:1010100003F00103C2F880310B7A73B3D2F8804138
:101020004D681C434B7A43EAC5031C43C2F8804118
:101030008B7A03F00F038B72D2F8843123F00F0305
:10104000C2F88431D2F884318C7A2343C2F88431D7
:10105000CB7ACC6843EA0423C2F88831CB7B096998
:1010600043EA0121C2F88C11D2F8801141F001014C
:10107000C2F8801130BD042030BDD2F880314C7AE6
:1010800023430C8843EA4453C2F88031D0E7024638
:1010900000200A4200D001207047704770B58020C0
:1010A00000F04CF8E0B1204C4FF08040A169616144
:1010B000426AE06840F27123584302EB0010A061DD
:1010C000A060401A80B2E08063780025012240F6DB
:1010D0009801012B09D0884202D36270A570257057
:1010E000BDE87040802000F023B8884202D3A5708C
:1010F0002270F5E7A0F2B63140F24C42914210D88E
:101100000A4AA17822F81100491CC8B2A070082828
:10111000E6D30649420001F11400FFF7D1F9A570AA
:10112000DEE76570DCE700003C000020E8020020FC
:101130000149086070470000143C0140034A014621
:10114000002012680A4200D001207047143C014080
:1011500030B51A4A8379016853B313688B4313601F
:10116000111D0B680468A3430B60017911440B68DF
:10117000046823430B60114B083319680468A143CA
:1011800019601C1D21680568A94321604179102957
:1011900005D011440A68006802430A6030BD19682E
:1011A000026811431960216800680143216030BD65
:1011B0000079104402688A43026030BD003C01405F
:1011C000F0B5002201274FF0030C0B6807FA02F577
:1011D0002B40AB422CD1066853000CFA03F4A64313
:1011E00006600E79D0F800E09E4046EA0E060660E2
:1011F0000E79012E01D0022E12D18668A643866098
:101200004E79D0F808E09E4046EA0E0686604668B1
:10121000AE43466045688E799640B6B23543456028
:10122000C568A543C560CC799C40C3681C43C460B5
:10123000521C102AC9D3F0BD4B07DB0E9A40C908D7
:1012400010B500EB8100016A0F249C40A1430162AC
:10125000016A1143016210BDFEE74FF4E130FFF770
:10126000DBBA000030B59FED2D0A027B018862B326
:10127000B0F90220DFED2A0A002ADFED2A1A9FEDDD
:101280002A1A9FED2A2AC28940F6C21441F6FF733A
:101290001FDB9142A1EB020205D242F2E045154468
:1012A000A5420CD81A4400EE102AB8EEC00AC0EECF
:1012B000202A22EEA10AC0EE010A20EE820AB5EE33
:1012C000C00AF1EE10FA1EDC23E0C1810121017396
:1012D00030BD91421FD95B1A03F2E1451544A54286
:1012E0000CD81A4400EE102AB8EEC00AC0EE202A2C
:1012F00022EEA10AC0EE010A20EE820AB5EEC00A73
:10130000F1EE10FA05D2D0ED020A30EE800A80ED3F
:10131000020AC18130BD8A1AE4E700000000000023
:1013200000F8FF450000B4430070604500003B43F7
:1013300010B5FFEE002A2DED028BF7EE000A9FEDAF
:10134000198ADFED198AB2EE040AB0EE482AF0EEEF
:10135000481AB0EE681A154800F002FB1348FFEE79
:10136000002AB0EE482AF0EE481AB0EE681AF7EEFE
:10137000000AB2EE040A383000F0F2FAB0EE482A61
:10138000F0EE481AB0EE681ABDEC028BFFEE002AB0
:101390000648BDE81040F7EE000AB2EE040A7030CD
:1013A00000F0DEBA00008046000000006403002068
:1013B000FEE7704730B50F23C27801780125FAB1F6
:1013C000144A126801F1E02102F4E062C2F5E06221
:1013D000C2F30722C2F10404D3404278A2408478C9
:1013E0001C401443220181F80024007800F01F0102
:1013F0008D404009800000F1E020C0F8005130BD70
:1014000001F01F0085404809800000F1E020C0F88D
:10141000805130BD0CED00E00249084302490860EC
:10142000704700000000FA050CED00E00FB42DED50
:10143000040B70B52DED0C8BDDED141A31EEC00AE6
:10144000FE4C84ED080A9DED150A30EE600A84ED2D
:10145000090ADDED160A70EEC10AC4ED0C0ADFEDD3
:10146000F80A61EE200A9FEDF71A10EE100A80EEDE
:10147000819A84ED0D9A04F043FC41EC180B19EEAF
:10148000100A04F03DFC41EC100B01F051FA53EC52
:10149000182B51EC100B04F03FFA41EC190B206AA9
:1014A00004F02EFC41EC180B606B04F029FC41ECBD
:1014B000100B01F0D9F953EC182B51EC100B04F080
:1014C0002BFA53EC192B03F0CDFF03F099FFA06228
:1014D000206A04F015FC41EC180B606B04F010FC62
:1014E00041EC100B01F024FA53EC182B51EC100BCB
:1014F00004F012FA41EC190B606A04F001FC41ECB3
:10150000180B606B04F0FCFB41EC100B01F0ACF924
:1015100053EC182B51EC100B04F0FEF953EC192B83
:1015200004F004FB03F06CFFE06294ED050AD4EDD7
:101530000C0A9DED191AF7EE00DA60EE200A94ED20
:10154000060A40EE010A30EE2D0A80EE801A84ED84
:10155000101A94ED020A30EE2D0A10EE100A04F073
:10156000CFFB41EC1B0B606B04F0CAFB41EC100B92
:1015700001F0DEF9B0EE408AF0EE608A94ED100AD8
:10158000D4ED0A0A20EE200A10EE100A04F0B8FB8F
:1015900053EC182B04F0C0F941EC1A0B606B04F00B
:1015A000AFFB41EC100B01F05FF9B0EE408AF0EEBA
:1015B000608A94ED100AD4ED0B0A20EE200A10EE9A
:1015C000100A04F09DFB53EC182B04F0A5F941EC34
:1015D000190B606B04F094FB41EC100B01F0A8F9BF
:1015E000189DB0EE408AF0EE608A284604F088FB31
:1015F00053EC182B04F090F941EC180B606B04F0DD
:101600007FFB41EC100B01F02FF99DED17DAB0EEE6
:1016100040CAF0EE60CA1DEE100A04F071FB53ECF4
:101620001C2B04F079F953EC182B03F01BFF53EC3F
:10163000192B03F017FF53EC1A2B04F077FA41EC47
:10164000180BA06804F05CFB53EC182B04F064F951
:1016500094ED010AD4ED0A0A41EC180B20EE200AA1
:1016600010EE100A04F04CFB53EC182B03F0FAFEBA
:1016700053EC1B2B03F09EFF03F0C2FEA06394ED1E
:10168000040A30EE2D0A10EE100A04F039FB41EC8A
:101690001C0B606B04F034FB41EC100B01F0E4F820
:1016A000B0EE408AF0EE608A94ED100AD4ED0A0A9A
:1016B00020EE200A10EE100A04F022FB53EC182B47
:1016C00004F02AF941EC1B0B606B04F019FB41ECB0
:1016D000100B01F02DF9B0EE408AF0EE608A94ED27
:1016E000100AD4ED0B0A20EE200A10EE100A04F0C6
:1016F00007FB53EC182B04F00FF941EC1A0B606B4D
:1017000004F0FEFA41EC100B01F0AEF8B0EE408AA6
:10171000F0EE608A284604F0F3FA53EC182B04F03C
:10172000FBF841EC190B606B04F0EAFA41EC100B8A
:1017300001F0FEF8B0EE408AB1EE4D0AF0EE608A9C
:1017400010EE100A04F0DCFA53EC182B04F0E4F865
:1017500053EC192B03F086FE53EC1A2B04F0E6F938
:1017600053EC1B2B04F0E2F941EC180B206904F058
:10177000C7FA53EC182B04F0CFF8D4ED030A94ED1C
:101780000B0A41EC180B20EE800A10EE100A04F050
:10179000B7FA53EC182B03F065FE53EC1C2B03F047
:1017A00009FF03F02DFEE063606B04F0A9FA41EC41
:1017B000100B01F0BDF8B0EE408AF0EE608AE06BED
:1017C00004F09EFA53EC182B04F0A6F841EC190B28
:1017D000606B04F095FA41EC100B01F045F8B0EEA7
:1017E000408AF0EE608AA06B04F08AFA53EC182B62
:1017F00004F092F853EC192B04F098F903F000FE72
:10180000114DE860606B04F07BFA41EC100B01F0C5
:101810002BF8B0EE408AF0EE608AE06B04F070FACC
:1018200053EC182B04F078F841EC190B606B04F0C2
:1018300067FA41EC100B01F07BF807E06400002030
:10184000DB0F49400000344310030020B0EE408A13
:10185000F0EE608AA06B04F053FA53EC182B04F0FE
:101860005BF853EC192B03F0FDFD03F0C9FD286173
:1018700094ED100AB1EE400A85ED050ABDEC0C8B23
:1018800070BC5DF824FBB4EEE00AF1EE10FA01DD65
:10189000B0EE600AF1EE600AB4EEE00AF1EE10FA82
:1018A00001D2B0EE600A704730EEC00A00B580ED9C
:1018B000050AD0ED040A70EE600AC0ED060AD0ED0C
:1018C000010A20EE800AD0ED080AFFF7DCFFD0ED18
:1018D000000A90ED061AB0EE002A00EE810AD0ED63
:1018E000050A90ED031A70EE811A90ED041A41EE8C
:1018F000421A90ED022A02EE210AD0ED091A70EE8A
:10190000211AC0ED091A90ED0A0AF4EEC01AF1EEA0
:1019100010FA01DD80ED090AD0ED091AB1EE400A96
:10192000F4EEC01AF1EE10FA01D280ED090AF5EEDC
:10193000C00A80ED031AF1EE10FAC0ED040A01DCD2
:10194000F1EE600A90ED0D0AF4EEC00AF1EE10FA25
:1019500003D29FED020A80ED090A00BD00000000DD
:1019600080ED082AC0ED0A1A012180EC030A9FEDE0
:101970000A0A80ED0B0A80ED030A80ED040A80ED6F
:10198000090A80ED070A80ED050A80ED060A80F855
:101990003010C0ED0D2A70470000000070B5F7EE62
:1019A000003A2DED048BF0EE408A00EE100AB0EE06
:1019B000608AB1EE082AB8EEC00AF0EE082A764D29
:1019C00082B068EE800A754E80EE880ABDEEC00ACD
:1019D00010EE104A6C6400EE104AB8EEC00A60EED9
:1019E000080A00EE100AB8EEC01A80EE810A00EE76
:1019F000900A01EB8400F8EEE00A38EEC00A20EE0F
:101A0000200A80EE081A85ED121A33EEC10A21EE83
:101A1000023A60EE000A20EE800AC0EE021A21EEC1
:101A2000220A60EE010A60EE810A43EE410AB1EE3D
:101A3000003AC5ED131A30EE833AC3EE020AB8EE4F
:101A4000083A21EE033A23EE013A23EE013A00EE82
:101A5000013AC5ED140A01EE223A73EE232A82EE12
:101A6000820A61EE012A62EE812A82EE821A85EDF7
:101A7000150A85ED161A90ED002A62EE212A90EDE6
:101A8000012A42EE202A90ED022A42EE002A90ED31
:101A9000032A02EB840042EE012AC6ED002A90EDF3
:101AA000002A90ED013A22EE212A03EE202A90ED41
:101AB000023A03EE002A90ED033A03EE012A03EB0B
:101AC00084009FED379A86ED012A90ED003A63EE8F
:101AD000211A90ED013A43EE201AD0ED020A40EEB1
:101AE000801A90ED030A40EE011AC6ED021AE86969
:101AF00060B183EEA80A86ED039A86ED049A86ED1E
:101B0000059A0020E86185ED1A0A19E095ED170A9B
:101B100072EEC00A95ED1A0A60EE800AC6ED030A5D
:101B2000D5ED180A72EE600A60EE800AC6ED040A6E
:101B3000D5ED190A71EEE00A20EE800A86ED050A5D
:101B400016481838D0E90A12CDE9001215491830A4
:101B500091EC030A0FC8FFF769FC96ED000AF4EE5A
:101B6000C88A85ED170A96ED010A85ED180A96EDEB
:101B7000020AF1EE10FA85ED190A0ADD0A4880ED35
:101B8000039A80ED049A0120E86102B0BDEC048B59
:101B900070BD0020F9E7000064000020240500204B
:101BA000000000006002002010030020044A002909
:101BB000116801D0014300E08143116070470000CB
:101BC00030380240044A0029116801D0014300E086
:101BD000814311607047000040380240044A0029E8
:101BE000116801D0014300E081431160704700009B
:101BF00020380240044A0029116801D0014300E066
:101C000081431160704700004438024070B5204B9A
:101C10001968204C11F00C0104D06610042903D07F
:101C2000082903D004601BE0066019E0184A121F5F
:101C30001168C1F38055116801F03F0115B1B6FB81
:101C4000F1F101E0B4FBF1F114681268C4F38814F7
:101C50006143C2F30142521C5200B1FBF2F1016038
:101C600019680F2202EA11110B4A545C0168E14025
:101C700041601C68072505EA9424145D21FA04F4E8
:101C800084601B6805EA5333D25CD140C16070BDEB
:101C9000083802400024F40050020020064D074F8F
:101CA00040F2DC560124E889B04200D93C7005209E
:101CB00002F062FBF7E70000FC0200206000002059
:101CC00010B58A0721F003040849120F21440F239D
:101CD000D1F8084893409C43C1F80848D1F8083827
:101CE00090400343C1F8083810BD000000300140A7
:101CF0000CB50022274900920192086840F4803018
:101D000008604FF4A043086800F400300190009888
:101D1000401C0090019810B900989842F3D10868CF
:101D2000800334D5012001901A484030026842F007
:101D3000805202601848026842F44042026015482E
:101D4000083002680260026842F4004202600268E1
:101D500042F4A0520260031F104A1A600A6842F05F
:101D600080720A600A689201FCD50D4940F2057242
:101D70000A60016821F003010160016841F002017D
:101D800001600168C1F381010229FAD10CBD019201
:101D90000CBD0000003802400070004008544007AD
:101DA000003C02404FF0E0210428086903D020F0F5
:101DB00004000861704740F00400FAE710B503F032
:101DC000B7F8012803D0BDE8104002F0A5BD10BD52
:101DD000124810B5016841F47001016010480168B3
:101DE00041F0010101600E4A0021083211600268D1
:101DF0000C4B1A400260031D0B4A1A60026822F461
:101E00008022026006480C300160FFF771FF034931
:101E10004FF000608039086010BD000088ED00E0E0
:101E200000380240FFFFF6FE103000242DE9F04399
:101E30008846814601218BB04804FFF7DBFE012173
:101E40002020FFF7B3FE1F4F032206213846FFF77D
:101E5000F3F94020022500908DF8045003208DF8FE
:101E6000050000248DF8064001268DF807606946BC
:101E70003846FFF7A5F9ADF80880ADF80A40ADF88F
:101E80001040114CCDF80C9002A9204600F0D4F976
:101E90007020ADF81400ADF81660ADF8205005A91B
:101EA000204600F091F90821204600F0BDF90121FB
:101EB000204600F05DF90121204600F066F90BB0E4
:101EC000BDE8F08300140240004401402DE9F043D6
:101ED000884681468BB001218020FFF773FE0121E7
:101EE0002020FFF763FE1F4F092208213846FFF725
:101EF000A3F9B815022500908DF8045003208DF841
:101F0000050000248DF8064001268DF8076069461B
:101F10003846FFF755F9ADF80880ADF80A40ADF83E
:101F20001040114CCDF80C9002A9204600F084F925
:101F30007020ADF81400ADF81660ADF8205005A97A
:101F4000204600F041F90821204600F06DF90121FA
:101F5000204600F00DF90121204600F016F90BB0E3
:101F6000BDE8F08300140240001C00402DE9F0435E
:101F70008846814601218BB00802FFF723FE01212C
:101F80002020FFF713FE1F4F092211463846FFF7A6
:101F900053F97815022500908DF8045003208DF830
:101FA000050000248DF8064001268DF8076069467B
:101FB0003846FFF705F9ADF80880ADF80A40ADF8EE
:101FC0001040114CCDF80C9002A9204600F034F9D5
:101FD0007020ADF81400ADF81660ADF8205005A9DA
:101FE000204600F0F1F80821204600F01DF90121FB
:101FF000204600F0BDF80121204600F0C6F80BB0E5
:10200000BDE8F08300140240002000401FB501210C
:102010000846FFF7D7FD42F2107001905320ADF84B
:1020200000000020ADF80200ADF808004FF0804439
:102030006946204600F000F901221146204600F0D2
:10204000BAF80121204600F0A0F81C208DF80C0001
:1020500001208DF80D0003218DF80E108DF80F0072
:1020600003A8FFF7A7F91FBD10B501218C07204673
:1020700000F095F8002827D0144901F11C03CA6824
:102080000A61521CCA608888401C82B28A80642A15
:1020900012D300228A805888401C80B258803C2885
:1020A0000AD35A809888401C80B298803C2803D379
:1020B0009A80D888401CD880888818802046BDE83F
:1020C0001040012100F05EB810BD00003C0000206F
:1020D0002DE9F0438846814601218BB00804FFF7C3
:1020E00089FD01210846FFF761FD1F4F03220221F0
:1020F0003846FFF7A1F80420022500908DF804501F
:1021000003208DF8050000248DF8064001268DF887
:10211000076069463846FFF753F8ADF80880ADF818
:102120000A40ADF81040114CCDF80C9002A92046A1
:1021300000F082F87020ADF81400ADF81660ADF82C
:10214000205005A9204600F03FF80821204600F065
:102150006BF80121204600F00BF80121204600F029
:1021600014F80BB0BDE8F0830000024000400140CD
:102170000029018802D041F0800101E021F08001B6
:1021800001807047C943018270470029018802D04D
:1021900041F0010101E021F0010101807047024698
:1021A0000020138A92890B4202EA010202D0002A1F
:1021B00000D001207047002A828901D00A4300E044
:1021C0008A4382817047000030B5028C22F0010200
:1021D0000284028C8388048B22F0020224F07305AF
:1021E0000C882C438D8915434A882A430C4DA842FC
:1021F00002D00C4DA8420DD122F00805CA8923F463
:1022000040732A4322F004058A882A430D8A1D431D
:102210004B8A2B438380048389684163028430BDE9
:102220000000014000040140028B22F008020A4332
:10223000028370474163704730B50288164C174DD2
:10224000A0420DD0A8420BD0B0F1804F08D0144B63
:10225000984205D0134B984202D0134B984203D1B9
:1022600022F070034A881A43104B984206D0104B54
:10227000984203D022F440730A891A4302804A68C4
:10228000C2620A880285A04201D0A84201D1897A9F
:1022900001860121818230BD00000140000401401F
:1022A0000004004000080040000C00400010004006
:1022B000001400402DE9F04144F61F6453212046EC
:1022C000FFF754FE53212046FFF700FEA7212046CA
:1022D000FFF7ACFDA7212046FFF7FAFE1A4D4FF499
:1022E000FA6421462846FFF7A5FF184E21463046DE
:1022F000FFF7A0FFDFF8588021464046FFF79AFF1E
:10230000144F21463846FFF795FF6410204601F030
:1023100005F8204601F002F821463046FFF78AFF13
:1023200021462846FFF786FF21464046FFF782FFF9
:1023300021463846FFF77EFF204600F0EFFF20469B
:10234000BDE8F04100F0EABF00200040001C004062
:1023500000400140004401402DE9F041234801259F
:10236000234E40F2255705603946304600F056F8B6
:10237000012839D1304600F0DFF81E49C0B20024F0
:1023800008704A78052A1DD2DFE802F003070F1A09
:1023900021000D2822D14D7020E00A2802D00D28FE
:1023A0001CD00FE08C7002200FE0134B8A789854F9
:1023B000521CD0B28870182810D38C70032004E00F
:1023C0000A2801D04C7009E00420487006E00D4650
:1023D0000D2802D1084800F0B3F86C703946304639
:1023E000BDE8F04100F00AB8BDE8F081000000202F
:1023F000004C0040280000209C0200200A0A012115
:102400009140C943018070470029818902D041F47D
:10241000005101E021F400518181704770B501F055
:102420001F0501260024C1F3421306FA05F2012B11
:102430000FD0022B0FD0838A4FEA1121008813425C
:1024400006FA01F600EA060001D000B10124204698
:1024500070BD8389F0E7038AEEE710B5C1F342133C
:1024600001F01F040121A140012B07D0022B07D04E
:102470001430002A026805D00A4304E00C30F8E763
:102480001030F6E78A43026010BD00007FB50446B5
:10249000008A0D46C98820F4405001432182A0895A
:1024A00041F20C618843A9882A8911436A89024351
:1024B0001143A181A08A20F44071A8890843A08219
:1024C0006846FFF7A3FB1A48844202D019488442A9
:1024D00001D1039800E00298A189090400EBC00132
:1024E00001EB0010296801D5490000E08900B0FB2C
:1024F000F1F06422B0FBF2F109010B096FF018054D
:102500006B4300EB8300A3891D044FF0320306D513
:1025100003EBC000B0FBF2F000F0070005E003EBB6
:102520000010B0FBF2F000F00F00084320817FBDE7
:1025300000100140001401408088C0F3080070477B
:1025400070B53D4C2DED048BA4F10C05D4ED031AB0
:102550009FED3B9AC4ED061A94ED040ADFED399A1B
:1025600084ED070A90ED001A84ED001AD0ED010AFF
:10257000C4ED010AD0ED020AC4ED020AD0ED030A4F
:10258000C4ED030A90ED042A70EEE10A84ED042AFA
:10259000D0ED052A04F14800C4ED052A32EE400AC8
:1025A000C0ED052AC4ED080A84ED090AD4ED0A1A23
:1025B000224871EEE00AC4ED0A0AD4ED0B0A30EEAF
:1025C000C00A84ED0B0A90ED010A31EE400A85ED58
:1025D000020A60EE090A80EEA90A10EE100A03F062
:1025E0008FFB41EC100B00F0A3F9E06803F088FBCF
:1025F0009FED158B53EC182B02F034FF02F000FF17
:10260000286095ED020A60EE090A80EEA90A10EE34
:10261000100A03F075FB41EC100B00F025F920695E
:1026200003F06EFB53EC182B03F080FA02F0E8FE87
:102630006860BDEC048B70BD6C0200202800002097
:10264000DB0F4940000034430000000000000000A0
:10265000FEE7000010B52DED0E8BF0EE40DAB0EE87
:1026600060DA9FED6C0A21EE800ADFED6B0A80EEE6
:10267000208A9FED6A0A61EE008A18EE900A03F044
:102680003FFB41EC1B0B1DEE100A03F039FB41EC44
:10269000190B18EE100A03F033FB41EC100B00F09D
:1026A00047F953EC192B51EC100B03F035F941ECC1
:1026B0001A0B1DEE900A03F023FB41EC190B18EEE8
:1026C000100A03F01DFB41EC100B00F0CDF851ECAB
:1026D000100B02F089FE53EC192B03F01DF953EC9B
:1026E0001A2B03F023FA53EC1B2B02F0BBFE9FEDD9
:1026F0004C9B53EC192B02F05DFF02F081FE4A4C1B
:10270000206018EE900A03F0FBFA41EC1B0B1DEE63
:10271000100A03F0F5FA41EC1A0B9FED440A38EE6B
:1027200000EA1EEE100A03F0EBFA41EC100B00F089
:102730009BF853EC1A2B51EC100B03F0EDF841EC25
:102740001C0B1DEE900A03F0DBFA41EC1A0B1EEE97
:10275000100A03F0D5FA41EC100B00F0E9F853EC45
:102760001A2B51EC100B03F0D7F853EC1C2B03F091
:10277000DDF953EC1B2B02F075FE53EC192B02F024
:1027800019FF02F03DFE606018EE900A03F0B8FAFF
:1027900041EC1A0B1DEE100A03F0B2FA9FED240A69
:1027A00041EC1B0B38EE00CA1CEE100A03F0A8FA2D
:1027B00041EC100B00F0BCF853EC1B2B51EC100B50
:1027C00003F0AAF841EC180B1DEE900A03F098FAFA
:1027D00041EC1B0B1CEE100A03F092FA41EC100BBB
:1027E00000F042F853EC1B2B51EC100B03F094F863
:1027F00053EC182B02F036FE53EC1A2B02F032FE8B
:1028000053EC192B02F0D6FE02F0FAFDA060BDECED
:102810000E8B10BDDB0F4940000034433BDFCF3E41
:10282000000000C0B88FCE3F28030020920A063F68
:10283000920A863F03B401984100009850EAC120F3
:1028400018BF04204A0D18BF40F0010040F2FF728B
:10285000B2EB515F08BF40F00200012808BF05201D
:1028600002B070470000000010B52F499FED2C1BEF
:102870002DED020B84B0059820F000408842D8BFAF
:102880009DED040B2DDD2949884209D1049840B9FA
:102890004FF00100FDF76AFE00F0A2FC06B010BD8B
:1028A00005DB9DED040B00F08FFC06B010BD684603
:1028B0009DED040B00F0A0F810F0030004BF9DEDA7
:1028C000021B9DED000B0CD001280ED09DED021BCC
:1028D0009DED000B022817D0012000F0DDFB06B0B3
:1028E00010BD00F0A5FA06B010BD9DED021B9DEDD8
:1028F000000B012000F0D0FB51EC100B02F074FD36
:1029000006B041EC100B10BD00F092FA51EC100B28
:1029100002F06AFD06B041EC100B10BD0000000093
:102920000000000000000000FB21E93F0000F07FF4
:1029300010B52F499FED2C1B2DED020B84B005988F
:1029400020F000408842DCBF00209DED040B32DD0A
:102950002849884209D1049840B94FF00100FDF799
:1029600005FE00F03DFC06B010BD05DB9DED040B3F
:1029700000F02AFC06B010BD68469DED040B00F087
:102980003BF810F0030011D0012818D09DED021B78
:102990009DED000B02281AD000F04AFA51EC100B02
:1029A00002F022FD06B041EC100B10BD9DED021BA4
:1029B0009DED000B012000F06FFB06B010BD9DEDFA
:1029C000021B9DED000B00F033FA06B010BD012094
:1029D00000F062FB51EC100B02F006FD06B041EC7A
:1029E000100B10BD000000000000000000000000FF
:1029F000FB21E93F0000F07F2DE9F14F04462DED6A
:102A0000020B2DED088B8AB09FEDE70B80ED020BDA
:102A1000139EE74826F0004585420ADC9DED120B27
:102A2000002084ED000B0AB0BDEC088B03B0BDE8BC
:102A3000F08FE0489FEDE0AB9FEDE1BBA84247DDA2
:102A4000E14F9FEDE39B9FEDE48B9DED120B53EC6B
:102A50001A2B51EC100B002E1CDD03F067F841EC33
:102A6000100BBD4208D053EC1B2B51EC100B03F0A4
:102A70005DF8C4E900010BE053EC192B51EC100B8D
:102A800003F054F853EC182B03F050F8C4E900019C
:102A90000120C8E702F0E6FC41EC100BBD4208D073
:102AA00053EC1B2B51EC100B02F0DCFCC4E90001D1
:102AB0000BE053EC192B51EC100B02F0D3FC53EC50
:102AC000182B02F0CFFCC4E900014FF0FF30AAE759
:102AD000C348A84279DB9DED120B51EC100B00F0BE
:102AE00053FC41EC180B9FEDC00B53EC102B02F084
:102AF00013FF9FEDBF1B53EC112B02F0B3FC02F050
:102B0000B1FE074602F0DDFE41EC190B53EC1A2B27
:102B100002F002FF53EC182B02F0FCFF41EC180B03
:102B200053EC1B2B51EC190B02F0F6FEDFF8C8A298
:102B300041EC100B4FEA15580125FA4453EC102BC9
:102B400051EC180B02F0F2FF032DC4E900013DD057
:102B5000C1F30A5005EB4511A8EB00001139814281
:102B600034DA0AEB051BB0EE48AA9BED000BF0EE41
:102B700068AA53EC102B51EC190B02F0CDFE41EC7E
:102B80001B0B51EC1A0B53EC1B2B02F0CFFF41EC4B
:102B9000180B51EC1A0B53EC182B02F0C7FF53EC37
:102BA0001B2B02F0C3FF9BED020B41EC1A0B53EC05
:102BB000102B51EC190B02F0AFFE53EC1A2B02F064
:102BC000B5FF41EC100B6D1CB8E70EE0002EA8BF5E
:102BD0003846BFF628AF94ED000B51EC100B02F015
:102BE00003FCC4E9000178421DE7C6F3130040F47A
:102BF000801EC6F30A50A0F2F530471100F01F0501
:102C0000C5F12000DDF848B008900020069007903C
:102C10000520EC467949002D07EB0002794408BFF6
:102C200051F8221009D051F8223001EB8201AB405B
:102C30004A68089922FA01F11943A1FB0E26A1FB6B
:102C40000B131A449A4234BF0123002303EB0608F6
:102C50000CEB8003D3E901A60E448E4234BF012160
:102C6000002192448A4411B1924502D903E0924571
:102C700001D2012100E00021C3E901A641444CF842
:102C80002010011EA0F10100C4DC029800F10050E8
:102C9000850F0298DDE903678000DDF8148002F0FB
:102CA00010FE41EC1A0B304602F022FE9FED541B41
:102CB00053EC112B02F030FE41EC1B0B384602F0B6
:102CC00017FE9FED511B53EC112B02F025FE41EC3A
:102CD000180B404602F00CFE9FED4D1B53EC112BE0
:102CE00002F01AFE41EC190B51EC180B53EC192BA6
:102CF00002F0B8FB53EC1B2B02F0B4FB53EC1A2B85
:102D000002F0B0FBCDE90801002008909DED080B12
:102D100053EC1A2B51EC100B02F008FF53EC1B2B59
:102D200002F004FF53EC182B02F000FF53EC192BB8
:102D300002F0F0FE9FED381B53EC112B02F0ECFD7E
:102D40009FED370B41EC180B53EC102B9DED080B4E
:102D500051EC100B02F0E0FD53EC182B02F082FB5B
:102D60009FED310B41EC180B53EC102B9DED080B34
:102D700051EC100B02F0D0FD53EC182B02F072FB5B
:102D800041EC100B139810F0004F06D06D4251EC3F
:102D9000100B02F029FB41EC100B284684ED000BD0
:102DA00041E60000000000000000000000000000FC
:102DB000FB21E93F7CD9024000004054FB21F93F50
:102DC0003163621A61B4D03DFB21F93F000000007D
:102DD0000000601A61B4D03D7370032E8A19A33BC2
:102DE000FB2139410000000083C8C96D305FE43F1A
:102DF000000000000000E03FEA320000383200002E
:102E0000000000000000103E000000000000103C28
:102E1000000000000000103A182D4454FB21F93D39
:102E20003326A611460B113C00000054FB21F93D4E
:102E300010B52DED040B2DED088B82B0B0EE419A4C
:102E4000F0EE619A0B9820F000449FED4BABB4F18B
:102E5000795F11DA9DED0A0B51EC100B02F002FDC7
:102E6000002801BFB0EE4A0AF0EE6A0A02B0BDECDB
:102E7000088B04BF04B010BD9DED0A0B53EC102B62
:102E800051EC100B02F048FD41EC180B3C480621B8
:102E9000B0EE480AF0EE680A784400F081F853EC8E
:102EA000182B51EC100B02F037FD9DED0A0B41EC95
:102EB0001B0B53EC192B51EC100B02F02DFD41ECC8
:102EC000190B53EC1B2B51EC180B02F025FD53ECA6
:102ED000192B02F02BFE9FED2C0B41EC190B53EC40
:102EE000102B51EC180B02F017FD41EC100B284889
:102EF000844210DA53EC192B51EC100B02F016FE41
:102F000053EC1A2B02F006FE41EC100B02B0BDECA4
:102F1000088B04B010BD1F48A042BCBF9FED1E1B14
:102F20008DED001B06DBA4F5001001900020009041
:102F30009DED001B51EC100B53EC112B02F0F6FD34
:102F40009DED000B41EC180B53EC102B51EC1A0BC0
:102F500002F0ECFD41EC1A0B53EC192B51EC180B61
:102F600002F0E4FD53EC1A2B02F0D4FD41EC100BFF
:102F7000CCE7000000000000000000000000F03F6F
:102F80005C2F000000000000000000000000E03F97
:102F90003333D33F0000E93F000000000000D23F80
:102FA00070B504462DED028B4D1E00EBC500B0EE52
:102FB000408AF0EE608A90ED000B35F0060017D0E5
:102FC00053EC182B51EC100B02F0A6FC41EC100B4B
:102FD0006D1E04EBC50090ED001B51EC100B53EC83
:102FE000112B02F03FFA41EC100B35F00600E7D14F
:102FF000022D36D0042D1CD0062D1CBFBDEC028B3B
:1030000070BD53EC182B51EC100B02F085FC94EDC5
:103010000A1B53EC112B02F025FA53EC182B02F08B
:103020007BFC94ED081B53EC112B02F01BFA41ECD6
:10303000100B53EC182B51EC100B02F06DFC94EDBF
:10304000061B53EC112B02F00DFA53EC182B02F077
:1030500063FC94ED040B53EC102B02F003FA41ECEB
:10306000100B53EC182B51EC100B02F055FC94EDA7
:10307000021B53EC112B02F0F5F953EC182B02F064
:103080004BFC94ED001B53EC112B02F0EBF9BDEC63
:10309000028B41EC100B70BD31B504462DED040BD5
:1030A0002DED0A8BB0EE41BAF0EE61BA0B989DEDB2
:1030B0000A0B20F00040B0F1795F0DDA51EC100BF3
:1030C000FFF7B8FB042808BF00F09AF89DED0A0B43
:1030D000BDEC0A8B05B030BD53EC102B51EC100B3E
:1030E00002F01AFC41EC180B9DED0A0B53EC182B67
:1030F00051EC100B02F010FC41EC190B2C48B0EE17
:10310000480AF0EE680A05217844FFF749FF9FED71
:103110002ACBB0EE40AAF0EE60AA9CB353EC1C2B75
:1031200051EC190B02F0F8FB41EC1C0B53EC1A2B81
:1031300051EC190B02F0F0FB9FED210B41EC190B48
:1031400053EC102B51EC1B0B02F0E6FB53EC192B4C
:1031500002F0ECFC53EC182B02F0DEFB53EC1B2BC3
:1031600002F0E4FC53EC1C2B02F0E0FC9DED0A1B8A
:1031700053EC112B02F0CEFCBDEC0A8B05B041ECF8
:10318000100B30BDFFE753EC1A2B51EC180B02F07B
:10319000C3FB53EC1C2B02F065F953EC192B02F026
:1031A000BBFB9DED0A1B53EC112B02F05BF9E3E72F
:1031B000E42D000000000000495555555555C5BF88
:1031C000000000000000E03F10B553EC102B51EC64
:1031D000100B02F047F941EC100B10BD000000008D
:1031E0009FED050B10B553EC102B51EC100B02F0BA
:1031F000E1F941EC100B10BD0000000000000000E0
:103200009FED050B10B553EC102B51EC100B02F099
:1032100083FB41EC100B10BD00000000000000100B
:103220007047000030B585B001212020FEF7BEFCBC
:1032300001218803FEF7DEFC07210520FEF740FD93
:1032400000248DF8104002208DF8130003A90F48C8
:10325000FDF7B6FF8020012500908DF806508DF80F
:10326000044008208DF805006846FDF771FF17201F
:103270008DF808008DF809408DF80A408DF80B5044
:1032800002A8FEF797F805B030BD00000014024018
:1032900000B585B000208DF808008DF809000620E3
:1032A0008DF80A000D494FF400700090C8888DF821
:1032B0000C00020A8DF80B20C88A020A8DF80D2036
:1032C0008DF80E00C88C8DF81000010A8DF80F10D3
:1032D00069460348FDF789FE05B000BD34030020B0
:1032E0000064004010B504460420FEF75BFD0A4868
:1032F0004FF47A71047014FB01F1012242804FF007
:10330000E020026942F0020202614161016941F07C
:103310000101016110BD0000C801002070B5044624
:1033200001F006FE01280CD0094D6888844203D3C1
:10333000B4FBF0F001F020F86888B4FBF0F100FB7A
:1033400011444FF47A706043BDE8704000F002B859
:10335000C801002070B54FF0E02500216C69094AD2
:10336000AB6912785043AA699A42FCD002D2A3EB0F
:10337000020302E0A4EB02063344194413468142DF
:10338000F1D370BDC801002082B0CDE9000121F069
:10339000004001909DED000B02B051EC100B704706
:1033A00004490A885206FCD5024AC1B2121D118096
:1033B00070470000004400400168184AA1F5007100
:1033C000013911D001291BD0022926D130F80B1F59
:1033D00049BA1184418849BA5184808840BA90849E
:1033E00002F12000FDF73EBF30F80B1F49BA1180F3
:1033F000418849BA5180808840BA90800748F1E7F7
:1034000030F80B1F49BA1182418849BA518280882D
:1034100040BA908201481030E4E77047340300203E
:103420001CB54FF44070FDF7F7FFA820FFF75AFFD7
:10343000FDF7B0FAFDF75CFBFDF77AFFFEF73AFF08
:103440004FF4FA742046FFF769FFFFF7EBFEFEF733
:10345000DDFDFDF702FF2046FFF760FF0649012072
:10346000CDE900010023802204A1074801F034FDCA
:1034700001F038F900201CBD040000207374617253
:10348000745F7461736B0000D13F000870B524480D
:10349000D0ED021A234890EC030AFFF7DBF8224C28
:1034A000204DB4F902000C3500EE100AD5ED000AEB
:1034B0001E48B8EEC00AFEF7F7F9B4F91200D5EDD0
:1034C000010A00EE100A1948B8EEC00A3830FEF7BB
:1034D000EBF9B4F92200D5ED020A00EE100A134808
:1034E000B8EEC00A7030FEF7DFF9104890ED090A17
:1034F000BDEEC00A10EE101AE18090ED170ABDEE85
:10350000C00A10EE101AE18290ED250ABDEEC00A45
:1035100010EE100AE084BDE87040FFF7B9BE00006D
:10352000600200201C0300203403002064030020FC
:103530002DED048B40F2DC5840F204669FED309A8A
:10354000304D314C9FED318B40F2B457E989414504
:103550004FD2A888A0F2B5514F2902D284ED049A27
:1035600011E0B04202D3A0F2046003E0B8420AD8EE
:10357000A0F2B45002F0A5F953EC182B02F0CCF9EC
:1035800001F03EFF2061E888A0F2B5514F2902D238
:1035900084ED039A11E0B04202D3A0F2046003E08C
:1035A000B8420AD8A0F2B45002F08BF953EC182BB1
:1035B00002F0B2F901F024FFE0602888A0F279510E
:1035C000C72902D284ED059A13E0B0F5C86F02D383
:1035D000C0F5C86004E0B0F5AF6F0AD8C0F5AF60C1
:1035E00002F06FF953EC182B02F096F901F008FF86
:1035F0006061FFF74BFF052000F0BEFEA6E700006C
:1036000000000000FC020020100300200000000069
:103610000000F83F2DE9F041184E0F460446F568CA
:103620003068001D00F01EFD38B9306890F82C108D
:1036300001208840316981433161601C07D137B175
:103640003168BDE8F0410E48091D00F043BD306807
:103650002C44AC424460316805D2B06BBDE8F04107
:10366000091D00F01FBD706B091D00F01BFDB06A45
:10367000844200D2B462BDE8F0810000D401002091
:10368000C80800202DE9F041054600F02FFD2D4E21
:10369000B068401CB06030682B4F10B1706930B317
:1036A0002BE03560B068012827D1002404EB8400AA
:1036B00007EB800000F0E8FC641C202CF6D32348C4
:1036C00000F0E2FC2148143000F0DEFC1F482830F6
:1036D00000F0DAFC1D483C3000F0D6FC1B485030AE
:1036E00000F0D2FC194870631430B06305E0306814
:1036F000E96AC06A884200D83560706A0121401CBE
:1037000070626864E86A326981401143316100EB9C
:10371000800007EB8000291D00F0DCFC00F022FD9A
:10372000706900280CD03068E96AC06A884207D204
:1037300007494FF080500860BFF34F8FBFF36F8F82
:10374000BDE8F081D4010020F805002078080020B1
:1037500004ED00E010B500F0C9FC0E4C2068A0B9E3
:103760000D4800F091FC0C48143000F08DFC0A4824
:10377000E0601430206100221021052001F0E2F801
:10378000206010B105A100F0C3FDBDE8104000F0BD
:10379000E9BC000010020020DC080020546D7251CA
:1037A0000000000070B5124E124D1CE000F0E4FF66
:1037B000306820B1002401F0E9FCA4B901E0012443
:1037C000F9E700F093FCF068C468201D00F04AFCA3
:1037D000A868401EA8606868401E686000F0C2FCCF
:1037E000204600F052F868680028DFD170BD000064
:1037F000B4080020D401002030B4026C0B46002A2B
:103800000BD0C1681144C1604468A14201D3016872
:10381000C16030BC1846FCF753BE30BC70472DE980
:10382000F041856B174604460026026C82B1C7B191
:10383000E068FCF745FEE168206C091AE160226847
:10384000914202D26168081AE060022F16D017E098
:103850002068A8B9606801F0F3FB064600206060AC
:103860000EE0A068FCF72CFE216CA0680844A06064
:103870006168884204D32068A06001E005B16D1E34
:103880006D1CA5633046BDE8F08110B50446006BA1
:1038900000F09AFC2046BDE8104000F095BC000006
:1038A00010484FF4A041420706D0C01D0D4920F03A
:1038B0000700411AC1F5A0410B4A00230144C2E9A7
:1038C00000030839103A21F0070111604B600B60CA
:1038D0000B1AC0E9001393604FF000405360D060B2
:1038E000704700000409002040020020074E4FF0FE
:1038F0008054074DFFF756FF30680128FAD92C6035
:10390000BFF34F8FBFF36F8FF4E70000F80500207F
:1039100004ED00E02DE9F047DDE909840E46174685
:10392000824691009946089DA522206BFCF70DFE6A
:103930006FF00301206B01EB8701084420F00707BB
:10394000780705D040F22B3219A11EA0FCF712FD1A
:1039500000202218315C82F83410315C11B1401C17
:103960001028F6D3002684F84360202D00D31F25AD
:10397000E562C4E91356201D00F091FB04F1180024
:1039800000F08DFB2461C5F120006462A0616665D2
:1039900084F858604A465146384600F003FB2060E0
:1039A000B8F1000F01D0C8F80040BDE8F087000072
:1039B0002E2E5C4672656552544F535C7461736B76
:1039C000732E63004572726F723A25732C25640D55
:1039D0000A00000030B5114900E011460A68824231
:1039E000FBD34B685C18844203D14068184448609C
:1039F000084643681C18944209D1084C103C2468BE
:103A0000A24209D052681A4442600A6812680260F1
:103A1000814200D0086030BD0460F9E74002002018
:103A200070B5002441600B4D0061914206D8D11A57
:103A30008269914206D2011D286907E09A4203D2A9
:103A4000994201D3012403E0011DE86800F02AFB3C
:103A5000204670BD1002002010B5044600F046FB61
:103A6000A06B20B1002400F07DFB204610BD012496
:103A7000F9E700002DE9F34100980F460026846C19
:103A80002CB940F6CE1216A11AA0FCF773FCA06B5D
:103A9000E16B884205D340F6CF1211A115A0FCF7C7
:103AA00069FCA06BE16B88420CD294F945503A4610
:103AB00069462046FFF7B3FE0646681C05D06D1C1C
:103AC00084F845503046BDE8FC81606A0028F9D092
:103AD00004F1240001F00EFB0028F3D00126F1E7E9
:103AE0002E2E5C4672656552544F535C7175657538
:103AF000652E63004572726F723A25732C25640D32
:103B00000A000000F8B5054614480E46C068C068B3
:103B1000C468201D00F0A6FAE069012817D1A06949
:103B20002B46411932462046FFF77AFF78B1002034
:103B30000346014600902A46204601F00DFC30B9AC
:103B400007494FF4027201F11800FCF713FC616A97
:103B500001B02046BDE8F0400847000010020020F8
:103B6000BC52000870B586B02F4E53E00198002873
:103B700006DADDE90301029A90470198002849DB43
:103B8000039C606910B1201D00F06CFA05A800F0DC
:103B9000A7F8054601980A283CD2DFE800F00505A1
:103BA000053B273805053B270298A16903460144D8
:103BB0002A462046FFF734FF00282BD0616A2046B2
:103BC0008847E069012825D1002000900298A1696A
:103BD000002342181946204601F0BEFBD0B940F23E
:103BE000213212A117A0FCF7C5FB13E00298A061D7
:103BF00028B94FF44E720DA112A0FCF7BBFBA069CF
:103C00002B4641191A462046FFF70AFF02E02046DC
:103C100000F0DAFA00231A4601A9306800F0CEFE5F
:103C20000028A3D106B070BD100200202E2E5C46E5
:103C300072656552544F535C74696D6572732E637F
:103C4000000000004572726F723A25732C25640DD6
:103C50000A000000F8B50D46064600F08DFD6846E6
:103C600000F03EF80446009810B101F08FFAF8BD5C
:103C70001148ADB101690968D9B10025311B2A4647
:103C8000006800F057FB01F081FA0028EFD10B49E2
:103C90004FF080500860BFF34F8FBFF36F8FF8BDB8
:103CA000A642EBD801F072FA21463046FFF72AFF10
:103CB000F8BD0125E2E700001002002004ED00E05D
:103CC0000648416B096829B1416BC968C9684968F0
:103CD000816270474FF0FF31FAE70000D401002005
:103CE00070B5054601F032F9064E0446B0688442CC
:103CF00003D200F009F8012000E0002028602046EF
:103D0000B46070BD10020020F8B5184E26E0C068FF
:103D1000C4680568201D00F0A5F9616A204688473F
:103D2000E06901281AD1A0692844A84206D9246173
:103D30006060211DF06800F0B5F90FE00020034637
:103D4000014600902A46204601F006FB30B908499A
:103D500040F2923201F11800FCF70CFBF0680168A8
:103D60000029D4D13169C6E90310F8BD1002002042
:103D7000BC52000808484068401C05D040F20F12B1
:103D800006A111A0FCF7F6FA502080F31188BFF3CA
:103D90004F8FBFF36F8FFEE7240200202E2E5C466C
:103DA00072656552544F535C706F727461626C65DA
:103DB0005C525644535C41524D5F434D34465C70F7
:103DC0006F72742E630000004572726F723A257331
:103DD0002C25640D0A000000084CE068016839B128
:103DE000002139B10020FFF735FFFFF7BBFEF4E7F4
:103DF0000121F6E7C0680068F5E700001002002026
:103E00002DE9F041044600F071F994F9455004F1B0
:103E1000240610E0A06C20B100212046FFF72AFE06
:103E200004E0606A48B1304601F064F908B100F07E
:103E300095FB6D1E6DB2002DECDC4FF0FF3684F863
:103E4000456000F08FF900F051F994F9445004F105
:103E5000100709E0206948B1384601F04BF908B174
:103E600000F07CFB6D1E6DB2002DF3DC84F8446025
:103E7000BDE8F04100F076B92DE9F0410546002695
:103E800000F07AFC324F386808B9FFF709FDF8688E
:103E900005424FD1002D4DD0083568070BD005F0F5
:103EA0000700C0F108000544680704D0BF2229A11B
:103EB00032A0FCF75FFA002D3CD07868854239D8F3
:103EC000234910310846046801E021460446606831
:103ED000A84202D220680028F7D13868B846844248
:103EE00028D00E682068086060680836401B1028DB
:103EF0000ED96719780704D0EC2216A11FA0FCF791
:103F000039FA6068401B786038466560FFF762FDEB
:103F10006168D8F804004246401AC8F80400D8F88E
:103F20000830984200D29060D8F80C00014300207D
:103F3000C4E9000101F02AF9700705D04FF4967228
:103F400004A10EA0FCF716FA3046BDE8F08100008F
:103F5000300200202E2E5C4672656552544F535C31
:103F6000706F727461626C655C4D656D4D616E67FA
:103F70005C686561705F342E630000004572726F8B
:103F8000723A25732C25640D0A0000000449086864
:103F900018B10868026D521C02650868704700007D
:103FA000D401002010B5031F4FF080741C601B1F4C
:103FB00021F001011960191F044B0B6014390A60CC
:103FC000091F6FF0020244380A6010BD753D0008F9
:103FD0001CB500F08BF814490220CDE90001002344
:103FE000802212A1144800F077FF0F4903200839FE
:103FF000CDE900010023802210A1154800F06CFFDC
:1040000009490420091FCDE900010023802211A1E4
:10401000134800F061FF04480C38006800F038FADB
:10402000BDE81C4000F09EB8100000206D6F766562
:104030005F7461736B00000031350008526F626F6E
:10404000745F73746174655F7461736B000000006A
:104050009D1C00084175746F5F5461736B00000014
:10406000C5080008D0E9013201699A60D0E901234E
:104070005A604A68824201D182684A600022026125
:104080000868401E0860704700F108014FF0FF32D9
:10409000C0E90112C1600161002101607047002187
:1040A0000161704730B50C68621C02D000F1080253
:1040B00002E0026904E01A4653681D68A542FAD975
:1040C00053684B6099608A60516008610168491CBF
:1040D000016030BD42684A6093688B6093685960A4
:1040E000916008610168491C01607047502080F3AD
:1040F0001188BFF34F8FBFF36F8F09494868401C89
:10410000486001280AD10748006810F0FF0F05D069
:1041100040F2B91204A10FA0FCF72CB970470000BF
:104120002402002004ED00E02E2E5C4672656552EC
:10413000544F535C706F727461626C655C5256448C
:10414000535C41524D5F434D34465C706F72742E28
:10415000630000004572726F723A25732C25640D5E
:104160000A00000010B5084C606828B94FF4E072EE
:1041700006A111A0FCF7FEF86068401E606001D146
:1041800080F3118810BD0000240200202E2E5C4612
:1041900072656552544F535C706F727461626C65E6
:1041A0005C525644535C41524D5F434D34465C7003
:1041B0006F72742E630000004572726F723A25733D
:1041C0002C25640D0A00000070B500282AD0164D79
:1041D000A0F108046068E968084205D14FF4A072B4
:1041E00012A11CA0FCF7C6F8206828B140F24112C9
:1041F0000EA118A0FCF7BEF86068E968084211D06B
:104200002268002A0ED18843606000F0B5FA606829
:104210006968084468602046FFF7DCFBBDE8704031
:1042200000F0B4BF70BD0000300200202E2E5C46AE
:1042300072656552544F535C706F727461626C6545
:104240005C4D656D4D616E675C686561705F342EB5
:10425000630000004572726F723A25732C25640D5D
:104260000A00000006484FF47A710068B0FBF1F1D3
:104270004FF0E020491E41610721016170470000B5
:104280001400002010B5FCF74FF8104C10280CD388
:1042900000F1E02090F8F0032178884205D24FF435
:1042A00040720BA115A0FCF765F818480068A168DA
:1042B00000F4E060884207D9BDE810404FF4447232
:1042C00003A10EA0FCF756B810BD00002402002088
:1042D0002E2E5C4672656552544F535C706F72743B
:1042E00061626C655C525644535C41524D5F434D74
:1042F00034465C706F72742E630000004572726FFA
:10430000723A25732C25640D0A0000000CED00E0C4
:1043100010B5074B002253F832401CB1521C082A3A
:10432000F9D310BD43F8321003EBC201486010BD51
:10433000B805002070B515460E460446FFF7D6FEB8
:1043400094F944100020491C01D184F8440094F9E8
:104350004510491C01D184F84500FFF703FFA06B0D
:1043600028B92A46314604F1240000F027F92046F6
:10437000BDE87040FFF744BD10B5040012D00E49EF
:10438000096B29B140F2CF420CA111A0FBF7F2FF5B
:1043900000F0F2F900212046FFF73CF900F0F6FEAC
:1043A000002807D10E494FF080500860BFF34F8FAF
:1043B000BFF36F8F10BD0000D40100202E2E5C468D
:1043C00072656552544F535C7461736B732E630056
:1043D0004572726F723A25732C25640D0A00000035
:1043E00004ED00E02DE9F0410E4605004FF0000419
:1043F00005D140F279421BA11FA0FBF7BBFF2EB9EC
:1044000040F27A4217A11CA0FBF7B4FF1E4F386B95
:1044100028B140F27B4213A117A0FBF7ABFF00F0DD
:10442000ABF9FA6828688119904202D9884202D80B
:1044300004E0884201D8914200D9012429601CB1CE
:10444000881A0021FFF7E6F800F0A0FE002807D147
:104450000E494FF080500860BFF34F8FBFF36F8F4E
:10446000BDE8F0812E2E5C4672656552544F535C58
:104470007461736B732E63004572726F723A2573A9
:104480002C25640D0A000000D401002004ED00E09A
:1044900070B50446FFF72AFE234D04B92C68201D91
:1044A000FFF7E0FD58B9E06A204A00EB800152F8BE
:1044B000211021B901218140286988432861A06A1F
:1044C00018B104F11800FFF7CDFD686A401C68625E
:1044D0002868844207D1211D1548FFF7FBFD686855
:1044E000401C686007E0A868401EA8602046FFF7EF
:1044F000CCF9FFF7E5FBFFF735FE6869002812D01D
:10450000286884420FD1286B28B140F2654209A186
:104510000DA0FBF72FFF10494FF080500860BFF34C
:104520004F8FBFF36F8F70BDD4010020F8050020BE
:10453000B40800202E2E5C4672656552544F535CC1
:104540007461736B732E63004572726F723A2573D8
:104550002C25640D0A00000004ED00E00149012053
:10456000C8617047D401002070B50D46040005D124
:1045700040F6063207A10CA0FBF7FCFE0E480168CE
:1045800020461831FFF78EFD2846BDE87040012116
:10459000FFF740B82E2E5C4672656552544F535C4F
:1045A0007461736B732E63004572726F723A257378
:1045B0002C25640D0A000000D401002070B51446BB
:1045C0000E46050005D140F6313209A10DA0FBF7DA
:1045D000D1FE1048016828461831FFF77BFD0CB169
:1045E0004FF0FF3621463046BDE87040FFF712B865
:1045F0002E2E5C4672656552544F535C7461736B2A
:10460000732E63004572726F723A25732C25640D08
:104610000A000000D401002070B5040039D01D4DFF
:10462000E06A2968C96A884233D2A069002804DB9D
:104630002868C06AC0F12000A061E06A164E00EB55
:104640008000616906EB800081421FD1201DFFF7C9
:1046500009FD012150B9E06A00EB800256F82220E2
:1046600022B92A6901FA00F082432A612868C06AE7
:10467000E0622A6981401143296100EB800006EB6A
:104680008000211DBDE87040FFF724BD2868C06A86
:10469000E06270BDD4010020F805002010B50400D0
:1046A00005D140F6C13205A109A0FBF763FE0C4815
:1046B000016A2160C068606010BD00002E2E5C465B
:1046C00072656552544F535C7461736B732E630053
:1046D0004572726F723A25732C25640D0A00000032
:1046E000D40100201CB517480024CDE90040234622
:1046F000822215A1164800F0EFFB012803D100F03B
:10470000F1FD01280AD0401C1BD102B040F2847296
:10471000BDE810400FA114A0FBF72CBE502080F381
:104720001188BFF34F8FBFF36F8F06484FF0FF31F3
:104730002C38816201214161C460BDE81C4000F059
:1047400061B81CBD0002002049444C450000000037
:10475000ED3800082E2E5C4672656552544F535C4E
:104760007461736B732E63004572726F723A2573B6
:104770002C25640D0A0000000248016B491C0163EE
:1047800070470000D401002070B5134D286B10B1A4
:104790000120E86170BD0020E86128690F4EB0FA81
:1047A00080F0C0F11F0000EB800456F8240028B907
:1047B00040F6F6220AA10FA0FBF7DCFD06EB840011
:1047C00000F10802416849684160914201D149689D
:1047D0004160C868286070BDD4010020F805002041
:1047E0002E2E5C4672656552544F535C7461736B38
:1047F000732E63004572726F723A25732C25640D17
:104800000A0000001CB5304C20683049884205D1B0
:1048100040F259122EA139A0FBF7ACFD20682B49BC
:10482000491E884205D14FF4AD7229A133A0FBF790
:10483000A1FD364C20780190FF20207020788DF863
:1048400000009DF800009DF8001000F0F000884284
:1048500005D040F273121EA128A0FBF78BFD9DF836
:1048600000002B4A00F0500010700720906007E015
:104870009068401E90609DF8000040008DF8000098
:104880009DF800000006F3D4107A000200F4E06006
:104890009060019820700C482030016841F470014C
:1048A0000160016841F070410160FFF7DBFC00200E
:1048B0005060FBF701FD1748016841F0404101607D
:1048C000FBF7EAFC00201CBD00ED00E071C20F41C7
:1048D0002E2E5C4672656552544F535C706F727435
:1048E00061626C655C525644535C41524D5F434D6E
:1048F00034465C706F72742E630000004572726FF4
:10490000723A25732C25640D0A00000000E400E0D3
:104910002402002034EF00E010B5502080F311880D
:10492000BFF34F8FBFF36F8F00F016FB18B1044930
:104930004FF080500860002080F3118810BD000007
:1049400004ED00E02DE9F04117460E46050005D1C3
:104950004FF4C47210A115A0FBF70CFDBEB105FB0E
:1049600006F05430FFF788FA04000ED004F154002A
:104970007EB12060C4E90F562046012100F0E0F826
:1049800084F8507000212046A164BDE8F081002029
:10499000E7E72460EEE700002E2E5C467265655264
:1049A000544F535C71756575652E63004572726F67
:1049B000723A25732C25640D0A0000002DE9FF4F83
:1049C00083B09B468A4604004FF0000605D140F2B2
:1049D000DC4251A155A0FBF7CDFCBAF1000F07D185
:1049E000206C28B140F2DD424BA150A0FBF7C2FC85
:1049F00000F09EFA38B9059828B14FF49C6246A1A0
:104A00004AA0FBF7B7FC4FF000094FF08057DFF8E2
:104A10002C81FFF76BFBA56B45B351462046E6683A
:104A2000FEF7EAFEBBF1000F13D0E660606A50B1FA
:104A300004F1240000F05EFB28B1C8F80070BFF359
:104A40004F8FBFF36F8FFFF78DFB012007B0BDE8DD
:104A5000F08F6D1EA563206810B9FFF797FA6060AC
:104A600020690028EFD004F11000E3E7059808B1B1
:104A70001EB106E0FFF776FB27E06846FFF70EFE63
:104A80000126FFF76FFBFFF777FEFFF72FFB94F987
:104A90004400401C01D184F8449094F94500401C26
:104AA00001D184F84590FFF75DFB05A9684600F049
:104AB000CFF9002820460AD0FFF7A2F900F066FBE4
:104AC0002046FEF7C9FF0028A3D00020BEE7FEF76E
:104AD000C3FFD8B1206830B9FFF708FB6068FFF763
:104AE0009BFDFFF73FFB04F124000599FFF73CFD18
:104AF0002046FFF785F900F049FB002889D1C8F866
:104B00000070BFF34F8FBFF36F8F82E72046FFF730
:104B100077F900F03BFB7CE72E2E5C467265655210
:104B2000544F535C71756575652E63004572726FE5
:104B3000723A25732C25640D0A00000004ED00E094
:104B400070B50D46040005D140F21B121CA121A036
:104B5000FBF710FCFFF7CAFAD4E90F20216802FB2B
:104B6000001161600021A1632168A1600A46D4E9B7
:104B70000F01401E00FB0121E16021464FF0FF3094
:104B800001F8440F487004F110004DB1FFF77CFAB2
:104B900004F12400FFF778FAFFF7E4FA012070BD72
:104BA00021690029F8D000F0A5FA0028F4D00D49B9
:104BB0004FF080500860BFF34F8FBFF36F8FEBE76C
:104BC0002E2E5C4672656552544F535C7175657547
:104BD000652E63004572726F723A25732C25640D41
:104BE0000A00000004ED00E02DE9FF4F83B0994674
:104BF0008B4604004FF0000605D140F2D92252A1A5
:104C000056A0FBF7B7FBBBF1000F07D1206C28B112
:104C100040F2DA224CA151A0FBF7ACFBB9F1020F34
:104C200008D1E06B012805D040F2DB2246A14BA061
:104C3000FBF7A0FB00F07CF938B9059828B140F2E9
:104C4000DE2241A145A0FBF795FB4FF0000A4FF093
:104C50008057DFF81881FFF749FAA06BE16B8842B3
:104C600006D3B9F1020F03D0059800B316B325E0BF
:104C70004A4659462046FEF7D2FDA16C21B149466D
:104C80002046FEF7F7FE05E0616A19B104F1240041
:104C900000F030FA28B1C8F80070BFF34F8FBFF3AF
:104CA0006F8FFFF75FFA012007B0BDE8F08FFFF7C5
:104CB00059FA21E06846FFF7F1FC0126FFF752FAA6
:104CC000FFF75AFDFFF712FA94F94400401C01D196
:104CD00084F844A094F94500401C01D184F845A013
:104CE000FFF740FA05A9684600F0B2F830B1204657
:104CF000FFF786F800F04AFA0020D5E7FFF7F6F94B
:104D0000A06BE16B884201D1012500E00025FFF78F
:104D100029FA95B104F110000599FFF725FC20460A
:104D2000FFF76EF800F032FA002894D1C8F800704E
:104D3000BFF34F8FBFF36F8F8DE72046FFF760F80B
:104D400000F024FA87E700002E2E5C46726565525B
:104D5000544F535C71756575652E63004572726FB3
:104D6000723A25732C25640D0A00000004ED00E062
:104D70002DE9F047984615468946040005D140F2D2
:104D80009F322AA12EA0FBF7F5FAB9F1000F07D147
:104D9000206C28B14FF4687224A129A0FBF7EAFA2D
:104DA000B8F1020F08D1E06B012805D040F2A13222
:104DB0001EA123A0FBF7DEFAFFF764FA5020EFF301
:104DC000118780F31188BFF34F8FBFF36F8FA06BF4
:104DD000E16B884207D3B8F1020F04D0002087F3BB
:104DE0001188BDE8F08794F945604246494620465F
:104DF000FEF715FD701C04D0761C84F84560012078
:104E0000EDE7A06C012620B141462046FEF732FEB8
:104E100006E0606A0028F2D004F1240000F06AF98C
:104E20000028ECD0002DEAD02E60E8E72E2E5C465C
:104E300072656552544F535C71756575652E6300DC
:104E40004572726F723A25732C25640D0A000000BA
:104E500070B50D46040005D140F6CB3214A119A05F
:104E6000FBF788FA2DB940F6CC3211A115A0FBF75B
:104E700081FAFFF73BF9174AD06829684B1C0FD01D
:104E80002368126A934202D0626882420AD9626839
:104E9000801A884206D2081A28602046FFF7FEFBD7
:104EA000002400E00124FFF75DF9204670BD0000FA
:104EB0002E2E5C4672656552544F535C7461736B61
:104EC000732E63004572726F723A25732C25640D40
:104ED0000A000000D40100202DE9FF5F8346DDE9D0
:104EE0000E87994616468A469000FEF7C5FF0500D4
:104EF0001AD05C20FEF7C0FF040012D02563002109
:104F0000CDE90241CDE900874B463246514658462D
:104F1000FEF700FD2046FEF7B5FB012004B0BDE81A
:104F2000F09F2846FFF750F94FF0FF30F6E70000FA
:104F30000548416919B1006B18B100207047012084
:104F40007047022070470000D40100200148C0686B
:104F500070470000D40100202DE9F0412D4F0026BC
:104F6000386B40B1B869401CB861F86900B10126DE
:104F70003046BDE8F081FD686D1CFD6011D1786B95
:104F8000006828B140F6D91223A128A0FBF7F2F956
:104F9000786BB96B7963B863386A401C3862FEF786
:104FA0008FFEB86ADFF89480854209D3786B006879
:104FB00080B1786BC068C468606885420DD2B86201
:104FC0003868C06A00EB800158F821000128CCD96C
:104FD0000126CAE74FF0FF30F1E7201DFFF742F846
:104FE000A06A18B104F11800FFF73CF8E06A01214B
:104FF0003A6981401143396100EB800108EB81007F
:10500000211DFFF767F8E06A3968C96A8842CDD385
:105010000126CBE7D40100202E2E5C467265655236
:10502000544F535C7461736B732E63004572726FDF
:10503000723A25732C25640D0A000000F805002043
:1050400070B504004FF000063CD01F4D2868844224
:1050500005D040F6C7621DA121A0FBF78BF9206D9A
:1050600028B940F6C96219A11DA0FBF783F9206D8C
:10507000401E2065E26CE16A914223D010BB201DE6
:10508000FEF7F0FF1A49012250B9E06A00EB8003F5
:1050900051F8233023B92B6902FA00F083432B61C6
:1050A000E06CE062C0F12000A061E06A2B69824000
:1050B0001A432A6100EB800001EB8000211DFFF7FD
:1050C00009F80126304670BDD40100202E2E5C4622
:1050D00072656552544F535C7461736B732E630039
:1050E0004572726F723A25732C25640D0A00000018
:1050F000F80500202DE9F041C068C4682CB940F6DD
:10510000613216A11AA0FBF735F904F11800074621
:10511000FEF7A8FF1A4D286B012660B139461948E1
:10512000FEF7D8FFE06A2968C96A884213D90120CE
:10513000EE61BDE8F081201DFEF794FFE06A2A6968
:1051400006FA00F1114329610F4900EB800001EBE1
:105150008000211DE4E70020EBE700002E2E5C46D6
:1051600072656552544F535C7461736B732E6300A8
:105170004572726F723A25732C25640D0A00000087
:10518000D4010020A0080020F80500202DE9F047F8
:105190002B4D00242746286B28B94FF4FD6229A126
:1051A0002DA0FBF7E7F8FEF7A1FF286B401E286350
:1051B000286BE8BBA8682C490126C8B3A1F52A7959
:1051C0008846D8F80010E9B1D8F80C00C46804F19A
:1051D0001800FEF747FF201DFEF744FFE06A2A692A
:1051E00006FA00F11143296100EB800109EB81000F
:1051F000211DFEF76FFFE06A2968C96A8842E0D383
:10520000EE61DEE70CB1FEF75BFDAC693CB1FFF788
:10521000A3FE00B1EE61641EF9D10020A861E86927
:1052200030B11249012738070860BFF34F8F00E003
:1052300001E0BFF36F8FFEF795FF3846BDE8F087BA
:10524000D40100202E2E5C4672656552544F535C8B
:105250007461736B732E63004572726F723A2573BB
:105260002C25640D0A000000A008002004ED00E0D9
:105270002DE9F0470746994616460D462C20DDF8E5
:1052800020A0FEF7F9FD040014D0B8464F46D146E1
:105290002DB94FF4C67209A10EA0FBF76BF8FEF70B
:1052A00059FA04F11801C4F8008081E8E002201DD9
:1052B000FEF7F5FE2046BDE8F08700002E2E5C4686
:1052C00072656552544F535C74696D6572732E63D9
:1052D000000000004572726F723A25732C25640D30
:1052E0000A0000001CB50024FEF734FA0C480068E0
:1052F00068B10B491F20091DCDE9000100234FF4BF
:10530000827208A10948FFF7E7FD040005D140F2C9
:10531000331207A10CA0FBF72DF820461CBD00009E
:1053200010020020546D722053766300D93D0008AE
:105330002E2E5C4672656552544F535C74696D65E0
:1053400072732E63000000004572726F723A25730B
:105350002C25640D0A0000002DE9FF47DDF830A080
:10536000994690460D4606004FF0000705D14FF4D0
:10537000D37212A117A0FAF7FDFF1A4C206880B172
:10538000CDE900580296062D11DAFFF7D1FD02286B
:105390004FF0000309D0002269462068FFF724FC83
:1053A000074604B03846BDE8F0875246F4E70023CC
:1053B0004A466946FFF7DCFCF2E700002E2E5C4609
:1053C00072656552544F535C74696D6572732E63D8
:1053D000000000004572726F723A25732C25640D2F
:1053E0000A0000001002002081F00041704780F0A8
:1053F0000040704721F00041704720F000407047A6
:1054000021F00042A2F16052B2F5801F01F000438A
:1054100028BFD2F17F6C0BD95FEA001C43EAC202BD
:1054200042EB507018BF704728BF20F00100704752
:10543000B2F5801FBCBF184670474FEA410C1CF5FF
:10544000001F02D2084600F0D1BC70B500F00EFB80
:1054500000000089FFF7F6BF4FF00040A0F5800084
:105460007047000010B591EA030F48BF83F0004376
:1054700000F16483841A71EB030C05D2121943EB1B
:105480000C03001B61EB0C01DFF824E14FEA11541F
:10549000A4EB135C1EEA430F18BF9EEA445F73D06F
:1054A00023EA0E03DCF1200E21EA045143F48013B9
:1054B00032D322FA0CFE10EB0E0023FA0CFE41EB65
:1054C0000E01CCF1200E03FA0EFE10EB0E0051F18E
:1054D0000001B1F5801FCCF1200E32D201EB045156
:1054E00012FA0EF2BDE8104058BF7047401C38BF9A
:1054F0005FEA420218BF7047002814BF20F0010085
:1055000041F100014FEA410313F5001F38BF704716
:10551000A1F1C04100F0F8BA012A43EB0302ACF15B
:10552000200CDCF11F0E32BF4FF0000E23FA0CF3FB
:1055300010EB030041EB0451B4EB115FD0D0A1EBB1
:10554000045101F5801149085FEA300001EB045174
:105550000ED350F1000038BF12FA0EFE08D1BDE89C
:105560001040C9E7401C38BF5FEA4202CAD1C3E716
:10557000BDE810404FEA410313F5001F38BF7047E4
:10558000A1F1C04100F0C0BA9EEA445F08D011EA20
:105590005E0FBDE8104004BF01F0004100207047DD
:1055A000BDE8104070B500F061FA00BF64FBBE3E7C
:1055B0000000E0FF2DE9C04130B4DFF8A0C23CEAB2
:1055C000111418BF3CEA131400F0EC8081EA0305C3
:1055D0001CEA111444EAD57418BF1CEA131500F034
:1055E000C780A4EB05044FF0004545EAC12145EA18
:1055F000C32341EA505143EA525304F17F74994264
:1056000004F500344FEAC0204FEAC22208BF90429E
:1056100000F09C804FEA13650FF24016765D4FEA6A
:10562000134506FB05F7C7F1807706FB07F74FEA3E
:10563000D737A7FB03687642C8F58038A7FB06CEAC
:1056400038BFA8F1010807FB08E64FF0000EA6FBE3
:10565000028CE6FB03CEDCF1000CCEF1004E38BF2D
:10566000AEF1010EA6FB0C584FF000074FF00005FD
:10567000E6FB0E87A1FB08C6A0FB07CE16EB0E06C5
:1056800045F10005E1FB076515F1E04E7EBFA4F58D
:1056900080345FEA46066D4116F1800745F100054A
:1056A0004FEA17274FEA066647EA0567A6F1DE4686
:1056B000B6F1805F4FEA15251FD9384624F0010C5A
:1056C00005EBC471BCF1FE6F01EB0C1102D8F0BC0C
:1056D000BDE8008124425CBF01F5801E9EEAC47FC4
:1056E00002D4F0BCBDE80081244238D4F0BCA1F162
:1056F000C041BDE8004100F007BA4FEAD22242EAB9
:1057000043524FEAD323A7FB02864FEAD02040EA58
:10571000415007FB03661EEA0E0F4FEAD12105FB3D
:10572000026658BFA6EB0056B6EB00564FEA520E83
:105730004EEAC37E18EB0E0E56EB530EBDD518EB9A
:1057400002085E417F1C55F10005B6E74FF4801555
:105750004FF000074FF000064FF00008ADE7F0BC37
:105760004FF0000001F1C04101F00041BDE80081AF
:1057700011EA0C1F0CEA131500D00CE013EA0C1F01
:1057800000F025804FF00000F0BC81EA030101F039
:105790000041BDE80081F0BCBDE8004181EA0301A1
:1057A00000F0B2B9F0BCBDE8004170B500F05EF9A0
:1057B000097EFC3E00F007B881EA03014FF00000CB
:1057C00001F00041704781EA030100F09DB9F0BC8F
:1057D000BDE800414FF0000021497047FFFDFBF993
:1057E000F7F5F4F2F0EEEDEBE9E8E6E4E3E1E0DE14
:1057F000DDDBDAD8D7D5D4D3D1D0CFCDCCCBCAC886
:10580000C7C6C5C4C2C1C0BFBEBDBCBBBAB9B8B7AC
:10581000B6B5B4B3B2B1B0AFAEADACABAAA9A8A89F
:10582000A7A6A5A4A3A3A2A1A09F9F9E9D9C9C9B6D
:105830009A99999897979695959493939291919018
:105840008F8F8E8E8D8C8C8B8B8A898988888787A9
:105850008685858484838382828181800000FF071E
:105860000000F87F4FEA41034FEA5353A3F58063EA
:10587000D3F11E03C8BFD3F1210C0CDD4FF0004261
:1058800042EAC12242EA505232FA03FC8CEAE17C3D
:10589000ACEBE1707047102BC4BF0020704703F5DC
:1058A000787CBCF1FF3F04D06FF0004282EA210017
:1058B000704770B500F0DAF84992248000207047F4
:1058C000F2E710F0004248BF4042B0FA80F310FA0D
:1058D00003F10AD0C3F11D0303F580634FEA415081
:1058E00002EB035202EBD12170474FF000007047EA
:1058F000B0FA80F310FA03F10AD0C3F11D0303F5E7
:1059000080634FEA41504FEA035202EBD1217047C6
:105910004FF0000070470000DFF848C170B51CEA86
:10592000111E1EBF1CEA13159EEA0C0F95EA0C0F00
:1059300000F06F8081EA030423EA4C134EEAD47E20
:1059400021EA4C1141F4801143F48013AE44A1FBD1
:10595000024CA0FB0365AEF17F7E361955EB0C05BA
:10596000A1FB034C4CF10003A0FB021C16EB0C0640
:10597000654153F10003094218BF46F0010613F4D4
:10598000007F0BD14FEA03314FEA0530340341EA7F
:10599000155140EA16506FF003020AE04FEAC321A6
:1059A0004FEAC520F40241EA555140EA56506FF0E3
:1059B000020202EB2E4201EB025585EACE710AD0BB
:1059C0005FEA440C18BF24F0004450F1000041F19C
:1059D000000120EAD47040F2FE7C624500D270BD26
:1059E000A84214BF4FF080444FF04044002E08BF3F
:1059F0000024BEF1806FA8BFA1F1C041BDE8704096
:105A000080F282804FF0000001F1C04101F00041BE
:105A100070479EEA0C0F0CEA131518BF95EA0C0F9D
:105A200006D04FF0000081EA030E0EF0004170BD79
:105A300000F01CF88900013E00F007B800F009B83A
:105A40004FEA430C5FEA5C5C08D081EA030100F096
:105A50005BB84FEA410C5FEA5C5CF6D14FF00000A6
:105A6000014970470000FF070000F87F0EF1020EA9
:105A70002EF0030E5EF8046B364205D4012A43EB88
:105A8000030515F5001F12D8012841EB010C1CF588
:105A9000001F0CD80ED14FEAD17C15F5001F0CEB7E
:105AA0004C0C0CF1020C08BF4CEBD37C04E04FF023
:105AB000080C01E04FEAD37C0CEB4C0526FA05F606
:105AC00006F00706B6F1040C06D20EEB860CBDE814
:105AD00070404CF0010C6047DFE80CF0090B02024B
