:020000040800F2
:100000001864002031030008611A00089D140008DC
:1000100075190008290A0008192F000800000000BF
:10002000000000000000000000000000790200084D
:100030003311000800000000CD020008B5250008BB
:100040004B0300084B0300084B0300084B03000858
:100050004B0300084B0300084B0300084B03000848
:100060004B0300084B0300084B0300084B03000838
:100070004B0300084B0300084B0300084B03000828
:100080004B0300084B0300084B030008650B0008F6
:10009000310B00084B0300084B0300083511000822
:1000A0004B0300084B0300084B0300084B030008F8
:1000B000612800084B0300084B0300084B030008AD
:1000C0004B0300084B0300084B0300084B030008D8
:1000D0004B0300080D2C00084D2C00084B030008B2
:1000E0004B0300084B0300084B0300084B030008B8
:1000F0004B0300084B0300084B0300084B030008A8
:100100004B0300084B0300084B0300084B03000897
:10011000692B00084B0300084B0300084B03000841
:100120004B0300084B0300084B0300084B03000877
:100130004B0300084B0300084B030008A10C000808
:100140009D0C00084B0300084B0300084B030008FC
:100150004B0300084B0300084B0300084B03000847
:100160004B0300084B0300084B0300084B03000837
:100170004B0300084B0300084B0300084B03000827
:100180004B0300084B03000800F002F800F064F88D
:100190000AA090E8000C82448344AAF10107DA45E2
:1001A00001D100F059F8AFF2090EBAE80F0013F0D0
:1001B000010F18BFFB1A43F001031847FC7300003E
:1001C0001C7400000A444FF0000C10F8013B13F0BF
:1001D000070408BF10F8014B1D1108BF10F8015BA0
:1001E000641E05D010F8016B641E01F8016BF9D193
:1001F00013F0080F1EBF10F8014BAD1C0C1B09D1EA
:100200006D1E58BF01F801CBFAD505E014F8016B5B
:1002100001F8016B6D1EF9D59142D6D370470000ED
:100220000023002400250026103A28BF78C1FBD8FF
:10023000520728BF30C148BF0B607047642900F0E7
:100240000381732900F04282002070471FB507F038
:1002500018F91FBD10B510BD00F0AEFA1146FFF73A
:10026000F5FF04F0C5F800F0CCFA03B4FFF7F2FF95
:1002700003BC03F0B5FC00002A4B19680868B0E81D
:10028000F04F80F30988BFF36F8F4FF0000080F3C9
:10029000118870470000000006480068006880F37D
:1002A000088862B661B6BFF34F8FBFF36F8F00DF70
:1002B00000BF00BF08ED00E0DFF80C00016841F46A
:1002C00070010160704700BF88ED00E0EFF3098026
:1002D000BFF36F8F134B1A681EF0100F08BF20ED8D
:1002E000108A20E9F04F106008B44FF0500080F3FE
:1002F0001188BFF34F8FBFF36F8F05F0C9FC4FF02C
:10030000000080F3118808BC19680868B0E8F04F55
:100310001EF0100F08BFB0EC108A80F30988BFF3FD
:100320006F8F7047A4020020EFF305807047000034
:100330000948804709480047FEE7FEE7FEE7FEE779
:10034000FEE7FEE7FEE7FEE7FEE7FEE704480549B5
:10035000054A064B70470000C925000889010008BE
:10036000185E00201864002018600020186000202B
:10037000704700000FB4044910B503AA029800F0BA
:10038000A9F910BC5DF814FBA00200202DE9F04192
:100390000E460446002020622046E168884730B3BC
:1003A000252805D0D4E901219047206A401CF2E7B6
:1003B000E168204600278847050018D0A5F14100D4
:1003C000192802D820354FF40067324629462046C6
:1003D0002760FFF733FF40B1012804D0F61D26F057
:1003E00007060836D8E7361DD6E72846DAE7206A3A
:1003F000BDE8F08170B50C460546012A05D0287885
:10040000800600D5EA69002302E0012305E05B1CB9
:10041000934202D2E05C0028F9D1A869E618C01A1C
:10042000A861286A184428622846AFF3008004E0D7
:10043000D5E9012114F8010B9047B442F8D32846BE
:10044000AFF3008070BD00002DE9F04106460024A6
:1004500010687529314616A510D0AFF3008000282A
:1004600002DA404213A507E031688A0701D512A5D8
:1004700002E0490704D511A5012401E0AFF3008093
:1004800000210A2206F1240709E0B0FBF2FCB0FBD0
:10049000F2F302FB1C00303078541846491C002847
:1004A000F3D123462A463046BDE8F04100F08BB830
:1004B000000000002D0000002B00000020000000C4
:1004C000032A40F2308010F0030C00F0158011F880
:1004D000013BBCF1020F624498BF11F801CB00F858
:1004E000013B38BF11F8013BA2F1040298BF00F8AC
:1004F00001CB38BF00F8013B11F0030300F0FC8092
:10050000083AC0F0088051F8043B083A51F804CB8F
:10051000A0E80810F5E7121D5CBF51F8043B40F855
:10052000043BAFF30080D20724BF11F8013B11F860
:1005300001CB48BF11F8012B24BF00F8013B00F8A4
:1005400001CB48BF00F8012B704702F0FF0343EADC
:10055000032242EA024200F003B94FF0000200B564
:10056000134694469646203922BFA0E80C50A0E8D6
:100570000C50B1F12001BFF4F7AF090728BFA0E884
:100580000C5048BF0CC05DF804EB890028BF40F850
:10059000042B08BF704748BF20F8022B11F0804F92
:1005A00018BF00F8012B70477047704770477047BD
:1005B00010B500F0F5F8006810BD10B5044600F065
:1005C000EFF8046010BD2DE9F0470D4699469246BC
:1005D000044600F124080168880604D5E06921F08A
:1005E0001001216000E00120A84201DD471B00E06E
:1005F0000027A1697A1902EB0900081AA061207886
:10060000C00602D42046AFF30080002608E0D4E9FB
:1006100001211AF806009047206A401C761C2062CF
:100620004E45F4DB2078C0060AD52046AFF30080A3
:1006300006E0D4E9012130209047206A401C206266
:10064000381EA7F10107F4DC07E0D4E9012118F80E
:1006500005009047206A401C2062281EA5F1010574
:10066000F3DC2046AFF300802078000602D502209C
:10067000BDE8F0870120FBE701694A1C02610878A8
:10068000704700B58FB0CDE90131002105910549D2
:100690007944CDE9031011466846FFF777FE0FB0A5
:1006A00000BD0000E5FFFFFF10B5436913B1AFF3D4
:1006B000008001E0FFF79EFE012010BD127800F1DE
:1006C00024010A7000224A700122EDE711684FF000
:1006D000FF32E9E7074B70B50D467B44FFF7D1FFCA
:1006E0000446284600F060F810B14FF0FF3070BDAE
:1006F000204670BDEF3B000010B5203AC0F00B80E3
:10070000B1E81850203AA0E81850B1E81850A0E815
:100710001850BFF4F5AF5FEA027C24BFB1E818506F
:10072000A0E8185044BF18C918C0BDE810405FEADF
:10073000827C24BF51F8043B40F8043B08BF70475B
:10074000D20728BF31F8023B48BF11F8012B28BF60
:1007500020F8023B48BF00F8012B70474FF0000221
:100760000429C0F0128010F0030C3FF4F8AECCF175
:10077000040CBCF1020F18BF00F8012BA8BF20F831
:10078000022BA1EB0C01FFF7EABE5FEAC17C24BF9C
:1007900000F8012B00F8012B48BF00F8012B70472F
:1007A00000487047B45D0020007B00F08000704777
:1007B00000487047B45D00207546FFF7F9FFAE466C
:1007C00005006946534620F00700854618B020B55D
:1007D000FFF7BCFDBDE820404FF000064FF00007DA
:1007E0004FF000084FF0000B21F00701AC46ACE8D9
:1007F000C009ACE8C009ACE8C009ACE8C0098D4646
:10080000704710B50446AFF300802046BDE81040A5
:10081000FFF72BBDF0B5074687B00121042001F09A
:1008200079FD0121C80401F081FD234E08220A212F
:10083000304600F023FE08220B21304600F01EFE59
:100840004FF44060049002208DF814008DF81500DC
:1008500000248DF8164001258DF8175004A9304664
:1008600000F0D0FDADF80440ADF80640ADF808400A
:10087000ADF80C400C20114CADF80A000097694609
:10088000204602F051FA0121204602F00BFA3420F2
:100890008DF818008DF8195003208DF81A008DF886
:1008A0001B5006A801F0DEF8012240F22551204637
:1008B00002F021FA07B0F0BD00080240004C0040F1
:1008C00010B5114C2178491CC9B22170642916D287
:1008D00090ED000A0D4A10EE101ADFED0D0A91425C
:1008E00002DD30EE600A06E010EE101A094A91426D
:1008F00005D930EE200A80ED000AFFF7E1FF2078ED
:10090000401E207010BD00009800002000003443FD
:100910000000B443000034C32DED028B05F09AFDB6
:100920002D4DDFED2E8A2E4C9FED2E8A002668601D
:100930002078062849D2DFE800F0030B18222C3675
:10094000294880ED038A80ED048A80ED058A3CE029
:1009500095ED000A254B264A30EE280A25490A2043
:1009600085ED000AF1EE0C0A29E095ED000A224B14
:10097000224A30EE280A224985ED000A1CE095ED56
:10098000000A204B204A30EE280A204985ED000A53
:1009900012E095ED000A1E4B1E4A30EE280A1E4951
:1009A00085ED000A08E095ED000A1C4B1C4A30EE6C
:1009B000280A1C4985ED000A0620F2EE040A01F01F
:1009C000A1FB10B185ED008A267003480A21001DA5
:1009D00004F08CFFACE70000180300200AD7233C8A
:1009E0000401002000000000540400208C070020B7
:1009F0003C01002008010020C007002094010020D5
:100A000070010020E4070020DC010020B801002074
:100A10000808002024020020000200202C080020EA
:100A20006C02002048020020FEE7000070B50121A2
:100A30008AB0084601F06EFC0121480601F076FC00
:100A4000394C09220B21204600F018FD09220C2107
:100A5000204600F013FD4FF4C051089102218DF89B
:100A6000241008A9204600F0CDFC304E304600F09E
:100A700065F9684600F0F5FA00248DF806408DF817
:100A8000074008208DF8084001258DF802408DF8B8
:100A9000040003218DF809508DF803408DF80A40B9
:100AA0008DF80510ADF800108DF80B406946304602
:100AB00000F01CFA8DF816408DF817408DF818508C
:100AC000ADF80C40ADF81040ADF80E40ADF8124056
:100AD000ADF814408DF8195003A800F045F9142022
:100AE0008DF81C008DF81D508DF81E408DF81F509C
:100AF00007A800F0B7FF13208DF81C008DF81D50DB
:100B00008DF81E508DF81F5007A800F0ABFF012292
:100B10000221304600F0E2F901221146304600F091
:100B2000DDF90AB070BD0000000002400064004022
:100B300010B50B4C88B00221204600F07BF900284C
:100B40000BD06A460021204600F044FA684603F0C4
:100B5000E1FB0221204600F0B5F808B010BD00000E
:100B60000064004010B5074C0121204600F062F9F6
:100B7000002805D02046BDE81040012100F0A2B8B1
:100B800010BD0000006400402DE9F0418AB0012151
:100B9000022001F0BFFB0121880601F0C7FB012103
:100BA000480601F0C3FB3B4C09220C21204600F013
:100BB00065FC09220D21204600F060FC4FF44051F5
:100BC000022708918DF8247008A9204600F01AFC2D
:100BD000DFF8C480404600F0B1F8684600F041FA02
:100BE00000248DF806408DF807408DF80840012557
:100BF00008208DF809508DF802408DF80400032676
:100C00008DF80A408DF803408DF80B408DF8056093
:100C1000ADF800606946404600F068F90E208DF896
:100C200016008DF817408DF81850ADF80C40ADF84F
:100C30001040ADF80E40ADF81240ADF814408DF8FC
:100C4000195003A800F090F840208DF81C008DF892
:100C50001D508DF81E708DF81F5007A800F002FF80
:100C60003F208DF81C008DF81D508DF81E608DF80A
:100C70001F5007A800F0F6FE01220221404600F0B6
:100C80002DF901221146404600F028F90AB0BDE8CE
:100C9000F08100000004024000680040704700003E
:100CA00010B5074C0121204600F0C4F8002805D0FB
:100CB0002046BDE81040012100F004B810BD00003E
:100CC0000068004030B5082310240422B1F5007FED
:100CD0001DD010DC202929D007DC012921D00429CE
:100CE00022D0082900D1C46030BD402920D0B1F500
:100CF000807FF9D10BE00025B1F5004F06D008DC6C
:100D0000B1F5806F03D0B1F5006FEDD18561426020
:100D100030BDB1F5803F0DD0B1F5003FF8D1446052
:100D200030BD0549816030BDC36030BD036130BD59
:100D3000046130BD436030BD01010100094910B5B7
:100D400088424FF0010101D14C0601E04FF0806470
:100D5000204601F0F7FA2046BDE81040002101F0DE
:100D6000F1BA000000640040F0B5827A2F4D0121F5
:100D700091402A6842F001022A602C4E1C363268EB
:100D80008A433260294A047B294B0C32A4B9146887
:100D90008C4314604488C78844EA0744877A03EB8D
:100DA000C707C7F840460488878844EA0744877A1B
:100DB00003EBC707C7F84446047B012C12D1146823
:100DC0000C431460847A026803EBC4044FEA324295
:100DD000C4F84026847A426803EBC4034FEA3242E7
:100DE000C3F84426114AC37A121D002B136806D09B
:100DF0000B4313600D4A0389143213B104E08B4393
:100E0000F7E713688B4313600389012B02D1136842
:100E10000B431360407B012802D1306808433060E7
:100E2000286820F001002860F0BD00000066004046
:100E3000006000400246002053690B424AD0B1F5E1
:100E4000807F3BD013DC08292ED007DC012926D077
:100E5000022927D004293DD1D0682BE0102925D0C4
:100E6000202926D0402935D11069102130E0B1F574
:100E7000004F2BD00BDCB1F5007F22D0B1F5806F95
:100E800022D0B1F5006F25D19069702120E0B1F535
:100E9000803F11D0B1F5003F1CD15068E5E7906864
:100EA0000D4915E0D06802E0D068DEE71069032143
:100EB0000EE0106908210BE05068FBE79069012102
:100EC00006E09069022103E0906900E05068042187
:100ED00000F029B97047000001010100002A4269B1
:100EE00001D00A4300E08A434261704710B50368AD
:100EF000002223F002030360036843F00103036050
:100F00004FF6FF7300E0521C4468E40701D19A4297
:100F1000F9D14268D2073ED08A79012A02683CD0D2
:100F200022F080020260CA79012A026838D022F0D9
:100F3000400202600A7A012A026834D022F02002BC
:100F400002604A7A012A026830D022F01002026060
:100F50008A7A012A02682CD022F008020260CA7A3A
:100F6000012A026828D022F0040202608A78CC7834
:100F7000920742EA04620C7942EA04424C790988F9
:100F800042EA0452491E0A43C261016821F001018C
:100F90000160002114E0002010BD42F08002C1E792
:100FA00042F04002C5E742F02002C9E742F01002D9
:100FB000CDE742F00802D1E742F00402D5E7491C30
:100FC0004268D20701D09942F9D14068C007E2D106
:100FD000012010BD10B500EB0113D3F8B04114F09F
:100FE00004041472D3F8B04133D0E4085460D3F849
:100FF000B04104F002045472D3F8B44104F00F0479
:101000009472D3F8B441240AD476D3F8B841D47298
:10101000D3F8B841240A1473D3F8B841240C54739C
:10102000D3F8B841240E9473D3F8BC41D473D3F8E9
:10103000BC41240A1474D3F8BC41240C5474D3F872
:10104000BC311B0E937439B1016941F0200101617B
:1010500010BD640D1460CAE7C16841F02001C16091
:1010600010BD00218171C171017241728172C17222
:101070008170C17003210171022141710121018040
:10108000704730B50246002093685B0108D4906831
:10109000000101D5012003E09068C00037D502208F
:1010A00002EB0012D2F8803103F00103C2F8803164
:1010B0000B7A73B3D2F880414D681C434B7A43EAF4
:1010C000C5031C43C2F880418B7A03F00F038B7277
:1010D000D2F8843123F00F03C2F88431D2F884317E
:1010E0008C7A2343C2F88431CB7ACC6843EA042358
:1010F000C2F88831CB7B096943EA0121C2F88C111F
:10110000D2F8801141F00101C2F8801130BD0420F5
:1011100030BDD2F880314C7A23430C8843EA4453E3
:10112000C2F88031D0E7024600200A4200D00120F8
:101130007047704770B5802000F04CF8E0B1204C4B
:101140004FF08040A1696161426AE06840F271231A
:10115000584302EB0010A061A060401A80B2E0800A
:1011600063780025012240F69801012B09D08842BE
:1011700002D36270A5702570BDE87040802000F039
:1011800023B8884202D3A5702270F5E7A0F2B631E9
:1011900040F24C42914210D80A4AA17822F811003C
:1011A000491CC8B2A0700828E6D30649420001F1E4
:1011B0001400FFF785F9A570DEE76570DCE7000035
:1011C000440000202C040020014908607047000002
:1011D000143C0140034A0146002012680A4200D034
:1011E00001207047143C014030B51A4A83790168E8
:1011F00053B313688B431360111D0B680468A3433A
:101200000B60017911440B68046823430B60114B98
:10121000083319680468A14319601C1D216805681A
:10122000A94321604179102905D011440A6800685A
:1012300002430A6030BD19680268114319602168D1
:1012400000680143216030BD0079104402688A4380
:10125000026030BD003C01400349002001220870BB
:1012600002490A70487070470401002030030020D2
:1012700030B52B4B9FED2B0A2B499A8840F2046521
:10128000A2F2B55040F2B4544F2802D281ED040AC4
:1012900011E0234880884000AA4202D3A0F608400B
:1012A00003E0A24207D8A0F6683000EE900AF8EEFC
:1012B000E00AC1ED040ADA88A2F2B5504F2802D242
:1012C00081ED030A11E01648C0884000AA4202D30B
:1012D000A0F6084003E0A24207D8A0F6683000EE6E
:1012E000900AF8EEE00AC1ED030A1888A0F27952DC
:1012F000C72A02D281ED050A30BDB0F5C86F02D30E
:10130000A0F5C86004E0B0F5AF6FF5D8A0F5AF6008
:101310004000404200EE100AB8EEC00AEAE70000C2
:101320004004002000000000540400202DE9F0419A
:101330002F4D314C40F204662DED048B40F2B45732
:10134000A8889FED2C9AA0F2B5519FED2C8B4F29C8
:1013500002D284ED049A11E0B04202D3A0F5E66017
:1013600003E0B8420AD8A0F5916005F02EFD53ECD9
:10137000182B05F055FD05F0C7FA2061E888A0F2AA
:10138000B5514F2902D284ED039A11E0B04202D345
:10139000A0F5E66003E0B8420AD8A0F5916005F038
:1013A00014FD53EC182B05F03BFD05F0ADFAE060A1
:1013B0002888A0F27951C72905D284ED059ABDECA1
:1013C000048BBDE8F081B0F5C86F02D3C0F5E160D1
:1013D00004E0B0F5AF6FF2D8C0F5966005F0F5FC0B
:1013E00053EC182B05F01CFD05F08EFA6061E6E762
:1013F0004004002000000000540400200000000011
:101400000000F83FF0B5002201274FF0030C0B68F5
:1014100007FA02F52B40AB422CD1066853000CFAB8
:1014200003F4A64306600E79D0F800E09E4046EA39
:101430000E0606600E79012E01D0022E12D18668AA
:10144000A64386604E79D0F808E09E4046EA0E0634
:1014500086604668AE43466045688E799640B6B26F
:1014600035434560C568A543C560CC799C40C368D9
:101470001C43C460521C102AC9D3F0BD4B07DB0EBD
:101480009A40C90810B500EB8100016A0F249C4006
:10149000A1430162016A1143016210BDFEE7D0ED74
:1014A000070A90ED042AB0EE081A60EEA01A20EEAA
:1014B000811A32EE400A61EEA02AD0ED051A21EE23
:1014C000203AD0ED030AF0EE613A41EE403A03EEE5
:1014D000A02A80ED042A90ED061AD0ED0A3AB0EE6B
:1014E000412A03EE402A90ED093A22EEC00A03EEAB
:1014F000232A00EE201A42EE201AC0ED051A80EDD4
:10150000061A704780ED030AC0ED020A80ED081A42
:10151000C0ED071A80ED092AC0ED112A80ED143ABA
:10152000704790ED080AF0EE000A90ED052A60EE93
:10153000201A20EE001A90ED000AD0ED040A70EE99
:10154000600A90ED010A30EE420A61EE200A90ED49
:10155000091A41EE800A90ED060A70EEC00A80EE8C
:10156000810A80ED0A0AD0ED110AB4EEE00AF1EE2C
:1015700010FA06DCF1EE600AB4EEE00AF1EE10FAC1
:1015800001D2C0ED0A0A704700B5B0EE402A01460C
:10159000B0EE600A00F00AF8B0EE420A0846FFF723
:1015A0007EFF08465DF804EBFFF7BBBFD0ED020AF3
:1015B00090ED001A60EEE01A31EE400A61EE801AFA
:1015C000B0EE000A60EE800A90ED010A40EEC01A0B
:1015D000D0ED030A00EE201A01EEA00A80ED001AF9
:1015E00080ED010A704700002DE9F0410D4602EB45
:1015F00082014A002DED048B00EB8001B0EE409A91
:10160000C2EB4106002865D000EE105A344CB8EE0B
:10161000C00AD4ED020A30EE800A10EE100A05F07E
:10162000BFFE41EC100B01F023FEB0EE408AF0EE5D
:10163000608A304605F0C9FB0F4647EC120B0646A0
:1016400053EC182B51EC120B05F0EAFB41EC180B94
:10165000206805F0A5FE53EC182B05F0B7FD05F04A
:1016600053F900EE105AD4ED020A09EE900AB8EED2
:10167000C00A30EE800A10EE100A05F091FE41EC2F
:10168000100B01F091FD47EC116B53EC102B51EC5A
:10169000110B05F0C5FB41EC180B606805F080FEEE
:1016A00053EC182B05F062F905F02EF900EE105AF4
:1016B00094ED021AF0EE491AB8EEC00A00EE900A54
:1016C00031EE001AB0EE690ABDEC048BBDE8F041C2
:1016D00003F040B8BDEC048BBDE8F041FFF726BE37
:1016E000A40300204FF4E130FFF794B830B59FED2C
:1016F0002D0A027B018862B3B0F90220DFED2A0ACD
:10170000002ADFED2A1A9FED2A1A9FED2A2AC289A4
:1017100040F6C21441F6FF731FDB9142A1EB0202B7
:1017200005D242F2E0451544A5420CD81A4400EE19
:10173000102AB8EEC00AC0EE202A22EEA10AC0EE9E
:10174000010A20EE820AB5EEC00AF1EE10FA1EDCA4
:1017500023E0C1810121017330BD91421FD95B1A81
:1017600003F2E1451544A5420CD81A4400EE102AB4
:10177000B8EEC00AC0EE202A22EEA10AC0EE010A8D
:1017800020EE820AB5EEC00AF1EE10FA05D2D0EDD5
:10179000020A30EE800A80ED020AC18130BD8A1A49
:1017A000E4E700000000000000F8FF450000B4433B
:1017B0000070604500003B4310B5FFEE002A2DEDA0
:1017C000048B9FED618AB0EE482AF0EE481ADFEDF7
:1017D0005F8AF7EE000AB2EE040AB0EE681A5C48BF
:1017E00000F016FC5A48FFEE002AB0EE482AF0EE50
:1017F000481AB0EE681AF7EE000AB2EE040A383062
:1018000000F006FC5248FFEE002AB0EE482AF0EE47
:10181000481AB0EE681AF7EE000AB2EE040A703009
:1018200000F0F6FB9FED4B9A4948B0EE482AF0EEE7
:10183000492AF0EE481AB0EE681AF7EE000AB2EE46
:10184000040AB83000F0E4FBF0EE492AB0EE482A72
:10185000F0EE481AB0EE681AF7EE000AB2EE040A8B
:101860003D4800F0D5FB3C48F0EE492AB0EE482A4E
:10187000F0EE481AB0EE681AF7EE000AB2EE040A6B
:10188000503000F0C5FBDFED358A9FED359ADFED76
:10189000359ABFEE003AF0EE482AB6EE002AF0EE96
:1018A000681AB0EE491AF3EE040AB0EE690A2E483F
:1018B000FFF728FE2C48BFEE003AF0EE482AB6EEBD
:1018C000002AF0EE681AB0EE491AF3EE040AB0EE00
:1018D000690A5430FFF716FE2348BFEE003AF0EED7
:1018E000482AB6EE002AF0EE681AB0EE491AF3EE76
:1018F000040AB0EE690AA830FFF704FEBFEE003A12
:10190000F0EE482AB6EE002AF0EE681AB0EE491A58
:10191000F3EE040AB0EE690A1448FFF7F3FDF0EEA7
:10192000482AF0EE681AB0EE491AB0EE690ABDEC2A
:10193000048BBFEE003AB6EE002ABDE81040F3EE8D
:10194000040A0B48FFF7DEBD0000804600000000DF
:10195000A8040020CDCCCCBDB00500200000C843B9
:101960000000C8420AD7A33B500800204C090020C1
:10197000F4090020FEE700F045FD052003F080FF9C
:10198000F9E7000010B5F7EE002A2DED048BF3EE19
:10199000041AF5EE000A9FED298ADFED298AB2EEDE
:1019A000040AB0EE482AB0EE681A264800F030FB70
:1019B0009FED259A2348F7EE002AB0EE482AF0EE74
:1019C000491AB0EE681AF5EE000A9FED200A383089
:1019D00000F01EFB1B48F7EE002AB0EE482AF0EE9E
:1019E000491AB0EE681AF6EE000AB3EE040A383867
:1019F00000F00EFB1348FFEE002AB0EE482AF0EE8E
:101A0000481AB7EE001ADFED120AB7EE080A703076
:101A100000F0FEFAB0EE482ABDEC048BB7EE001AD7
:101A2000B0EE000A0748BDE81040DFED0A2ADFEDFE
:101A30000A1ADFED0A0AA83000F0EABA0000000036
:101A4000CDCCCC3D940600200000A04200003442E2
:101A50006F12033B000048429A99193FCDCCCC3E0F
:101A60007047000030B50F23C27801780125FAB124
:101A7000144A126801F1E02102F4E062C2F5E0626A
:101A8000C2F30722C2F10404D3404278A240847812
:101A90001C401443220181F80024007800F01F014B
:101AA0008D404009800000F1E020C0F8005130BDB9
:101AB00001F01F0085404809800000F1E020C0F8D7
:101AC000805130BD0CED00E0024908430249086036
:101AD000704700000000FA050CED00E00FB42DED9A
:101AE000040B70B52DED0C8BDDED141A31EEC00A30
:101AF000FE4C84ED080A9DED150A30EE600A84ED77
:101B0000090ADDED160A70EEC10AC4ED0C0ADFED1C
:101B1000F80A61EE200A9FEDF71A10EE100A80EE27
:101B2000819A84ED0D9A05F03BFC41EC180B19EEFF
:101B3000100A05F035FC41EC100B01F099FB53EC59
:101B4000182B51EC100B05F06BF941EC190B206AC6
:101B500005F026FC41EC180B606B05F021FC41EC14
:101B6000100B01F021FB53EC182B51EC100B05F07E
:101B700057F953EC192B04F0F9FE04F0C5FEA062EE
:101B8000206A05F00DFC41EC180B606B05F008FCB9
:101B900041EC100B01F06CFB53EC182B51EC100BCB
:101BA00005F03EF941EC190B606A05F0F9FB41ECD8
:101BB000180B606B05F0F4FB41EC100B01F0F4FA2C
:101BC00053EC182B51EC100B05F02AF953EC192BA0
:101BD00005F0FCFA04F098FEE06294ED050AD4EDFD
:101BE0000C0A9DED191AF7EE00DA60EE200A94ED6A
:101BF000060A40EE010A30EE2D0A80EE801A84EDCE
:101C0000101A94ED020A30EE2D0A10EE100A05F0BB
:101C1000C7FB41EC1B0B606B05F0C2FB41EC100BEA
:101C200001F026FBB0EE408AF0EE608A94ED100AD7
:101C3000D4ED0A0A20EE200A10EE100A05F0B0FBDF
:101C400053EC182B05F0ECF841EC1A0B606B05F027
:101C5000A7FB41EC100B01F0A7FAB0EE408AF0EEC2
:101C6000608A94ED100AD4ED0B0A20EE200A10EEE3
:101C7000100A05F095FB53EC182B05F0D1F841EC58
:101C8000190B606B05F08CFB41EC100B01F0F0FAC6
:101C9000189DB0EE408AF0EE608A284605F080FB81
:101CA00053EC182B05F0BCF841EC180B606B05F0F9
:101CB00077FB41EC100B01F077FA9DED17DAB0EEEF
:101CC00040CAF0EE60CA1DEE100A05F069FB53EC45
:101CD0001C2B05F0A5F853EC182B04F047FE53EC31
:101CE000192B04F043FE53EC1A2B05F06FFA41EC6C
:101CF000180BA06805F054FB53EC182B05F090F876
:101D000094ED010AD4ED0A0A41EC180B20EE200AEA
:101D100010EE100A05F044FB53EC182B04F026FEDD
:101D200053EC1B2B04F0CAFE04F0EEFDA06394ED0F
:101D3000040A30EE2D0A10EE100A05F031FB41ECDA
:101D40001C0B606B05F02CFB41EC100B01F02CFA26
:101D5000B0EE408AF0EE608A94ED100AD4ED0A0AE3
:101D600020EE200A10EE100A05F01AFB53EC182B97
:101D700005F056F841EC1B0B606B05F011FB41ECD4
:101D8000100B01F075FAB0EE408AF0EE608A94ED27
:101D9000100AD4ED0B0A20EE200A10EE100A05F00E
:101DA000FFFA53EC182B05F03BF841EC1A0B606B73
:101DB00005F0F6FA41EC100B01F0F6F9B0EE408AAE
:101DC000F0EE608A284605F0EBFA53EC182B05F08C
:101DD00027F841EC190B606B05F0E2FA41EC100BAF
:101DE00001F046FAB0EE408AB1EE4D0AF0EE608A9C
:101DF00010EE100A05F0D4FA53EC182B05F010F889
:101E000053EC192B04F0B2FD53EC1A2B05F0DEF95C
:101E100053EC1B2B05F0DAF941EC180B206905F0A7
:101E2000BFFA53EC182B04F0FBFFD4ED030A94ED3A
:101E30000B0A41EC180B20EE800A10EE100A05F098
:101E4000AFFA53EC182B04F091FD53EC1C2B04F06B
:101E500035FE04F059FDE063606B05F0A1FA41EC3A
:101E6000100B01F005FAB0EE408AF0EE608AE06BEC
:101E700005F096FA53EC182B04F0D2FF41EC190B45
:101E8000606B05F08DFA41EC100B01F08DF9B0EEAE
:101E9000408AF0EE608AA06B05F082FA53EC182BB2
:101EA00004F0BEFF53EC192B05F090F904F02CFD63
:101EB000114DE860606B05F073FA41EC100B01F016
:101EC00073F9B0EE408AF0EE608AE06B05F068FAD4
:101ED00053EC182B04F0A4FF41EC190B606B05F0D8
:101EE0005FFA41EC100B01F0C3F907E09800002005
:101EF000DB0F49400000344354040020B0EE408A18
:101F0000F0EE608AA06B05F04BFA53EC182B04F04E
:101F100087FF53EC192B04F029FD04F0F5FC286130
:101F200094ED100AB1EE400A85ED050ABDEC0C8B6C
:101F300070BC5DF824FBB4EEE00AF1EE10FA01DDAE
:101F4000B0EE600AF1EE600AB4EEE00AF1EE10FACB
:101F500001D2B0EE600A704730EEC00A00B580EDE5
:101F6000050AD0ED040A70EE600AC0ED060AD0ED55
:101F7000010A20EE800AD0ED080AFFF7DCFFD0ED61
:101F8000000A90ED061AB0EE002A00EE810AD0EDAC
:101F9000050A90ED031A70EE811A90ED041A41EED5
:101FA000421A90ED022A02EE210AD0ED091A70EED3
:101FB000211AC0ED091A90ED0A0AF4EEC01AF1EEEA
:101FC00010FA01DD80ED090AD0ED091AB1EE400AE0
:101FD000F4EEC01AF1EE10FA01D280ED090AF5EE26
:101FE000C00A80ED031AF1EE10FAC0ED040A01DC1C
:101FF000F1EE600A90ED0D0AF4EEC00AF1EE10FA6F
:1020000003D29FED020A80ED090A00BD0000000026
:1020100080ED082AC0ED0A1A012180EC030A9FED29
:102020000A0A80ED0B0A80ED030A80ED040A80EDB8
:10203000090A80ED070A80ED050A80ED060A80F89E
:102040003010C0ED0D2A70470000000000B590F878
:102050003010012906D180ED040A80ED030A002129
:1020600080F8301080ED050AD0ED070A70EE800A86
:10207000C0ED070A90ED041A30EE410A80ED060A21
:1020800090ED010A20EE200AD0ED080AFFF753FF79
:1020900090ED001AD0ED050AD0ED061A01EE200AE7
:1020A00090ED021A01EE210A80ED090A90ED0A1A5C
:1020B000B4EEC10AF1EE10FA01DD80ED091AD0ED9F
:1020C000091AB1EE410AF4EEC01AF1EE10FA01D28B
:1020D00080ED090AF5EEC00AC0ED040AF1EE10FA2F
:1020E00001DCF1EE600A90ED0D0AF4EEC00AF1EEAB
:1020F00010FA03D29FED020A80ED090A00BD00002C
:102100000000000070B5F7EE003A2DED048BF0EE04
:10211000408A00EE100AB0EE608AB1EE082AB8EEEE
:10212000C00AF0EE082A764D82B068EE800A754E3D
:1021300080EE880ABDEEC00A10EE104A6C6400EE14
:10214000104AB8EEC00A60EE080A00EE100AB8EEB7
:10215000C01A80EE810A00EE900A01EB8400F8EECE
:10216000E00A38EEC00A20EE200A80EE081A85ED5B
:10217000121A33EEC10A21EE023A60EE000A20EE96
:10218000800AC0EE021A21EE220A60EE010A60EE19
:10219000810A43EE410AB1EE003AC5ED131A30EE62
:1021A000833AC3EE020AB8EE083A21EE033A23EE70
:1021B000013A23EE013A00EE013AC5ED140A01EEB0
:1021C000223A73EE232A82EE820A61EE012A62EE3F
:1021D000812A82EE821A85ED150A85ED161A90ED98
:1021E000002A62EE212A90ED012A42EE202A90ED8B
:1021F000022A42EE002A90ED032A02EB840042EE0E
:10220000012AC6ED002A90ED002A90ED013A22EE57
:10221000212A03EE202A90ED023A03EE002A90EDE7
:10222000033A03EE012A03EB84009FED379A86ED13
:10223000012A90ED003A63EE211A90ED013A43EE47
:10224000201AD0ED020A40EE801A90ED030A40EE0B
:10225000011AC6ED021AE86960B183EEA80A86ED9C
:10226000039A86ED049A86ED059A0020E86185EDD3
:102270001A0A19E095ED170A72EEC00A95ED1A0ACE
:1022800060EE800AC6ED030AD5ED180A72EE600A08
:1022900060EE800AC6ED040AD5ED190A71EEE00A77
:1022A00020EE800A86ED050A16481838D0E90A1291
:1022B000CDE900121549183091EC030A0FC8FFF759
:1022C0000DFC96ED000AF4EEC88A85ED170A96ED2E
:1022D000010A85ED180A96ED020AF1EE10FA85ED75
:1022E000190A0ADD0A4880ED039A80ED049A01205C
:1022F000E86102B0BDEC048B70BD0020F9E700007E
:10230000980000207407002000000000A4030020B3
:1023100054040020044A0029116801D0014300E060
:10232000814311607047000030380240044A0029A0
:10233000116801D0014300E0814311607047000043
:1023400040380240044A0029116801D0014300E0EE
:10235000814311607047000020380240044A002980
:10236000116801D0014300E0814311607047000013
:102370004438024070B5204B1968204C11F00C0114
:1023800004D06610042903D0082903D004601BE0A0
:10239000066019E0184A121F1168C1F380551168D0
:1023A00001F03F0115B1B6FBF1F101E0B4FBF1F131
:1023B00014681268C4F388146143C2F30142521CCA
:1023C0005200B1FBF2F1016019680F2202EA11110B
:1023D0000B4A545C0168E14041601C68072505EA2E
:1023E0009424145D21FA04F484601B6805EA5333D5
:1023F000D25CD140C16070BD083802400024F400B6
:10240000200300200EB51548006800F110010EC928
:102410008DE80E00124991ED020A0FC801F088FC08
:102420001048006800F110010EC98DE80E000E4939
:1024300091ED020A0FC801F073FD0C480068D0E965
:102440000412CDE900120A4991ED020A0FC801F009
:10245000C9FBBDE80E4001F091BE00008C000020D9
:102460005005002090000020A005002094000020CE
:10247000F00500200C4E0D4F0D4C0E4D3078052808
:102480000BD2DFE800F0030A0E0E0E0027600020DA
:1024900000F05EFB002000F061FB052003F0F0F986
:1024A000ECE72560F3E7000030030020680000201F
:1024B0008C0000204006002010B58A0721F003049C
:1024C0000849120F21440F23D1F8084893409C4338
:1024D000C1F80848D1F8083890400343C1F80838DB
:1024E00010BD0000003001400CB5002227490092C9
:1024F0000192086840F4803008604FF4A0430868F7
:1025000000F4003001900098401C0090019810B930
:1025100000989842F3D10868800334D501200190D7
:102520001A484030026842F080520260184802683F
:1025300042F44042026015480830026802600268B6
:1025400042F400420260026842F4A0520260031F9B
:10255000104A1A600A6842F080720A600A689201A2
:10256000FCD50D4940F205720A60016821F00301B3
:102570000160016841F0020101600168C1F381015D
:102580000229FAD10CBD01920CBD000000380240B6
:102590000070004008544007003C02404FF0E0212A
:1025A0000428086903D020F004000861704740F057
:1025B0000400FAE710B503F03FFF012803D0BDE89F
:1025C000104003F02DBC10BD124810B5016841F455
:1025D000700101601048016841F0010101600E4A7C
:1025E00000210832116002680C4B1A400260031D82
:1025F0000B4A1A60026822F48022026006480C30FE
:102600000160FFF771FF03494FF0006080390860F7
:1026100010BD000088ED00E000380240FFFFF6FE2C
:10262000103000242DE9F0438846814601218BB00B
:102630004804FFF793FE01212020FFF76BFE1F4F98
:10264000032206213846FEF719FF4020022500909C
:102650008DF8045003208DF8050000248DF8064005
:1026600001268DF8076069463846FEF7CBFEADF8C7
:102670000880ADF80A40ADF81040114CCDF80C9030
:1026800002A9204600F0D4F97020ADF81400ADF88E
:102690001660ADF8205005A9204600F091F90821F8
:1026A000204600F0BDF90121204600F05DF901212E
:1026B000204600F066F90BB0BDE8F083001402403C
:1026C000004401402DE9F043884681468BB001214A
:1026D0008020FFF72BFE01212020FFF71BFE1F4F5C
:1026E000092208213846FEF7C9FEB81502250090D8
:1026F0008DF8045003208DF8050000248DF8064065
:1027000001268DF8076069463846FEF77BFEADF876
:102710000880ADF80A40ADF81040114CCDF80C908F
:1027200002A9204600F084F97020ADF81400ADF83D
:102730001660ADF8205005A9204600F041F90821A7
:10274000204600F06DF90121204600F00DF901212D
:10275000204600F016F90BB0BDE8F08300140240EB
:10276000001C00402DE9F0438846814601218BB0D2
:102770000802FFF7DBFD01212020FFF7CBFD1F4FF3
:10278000092211463846FEF779FE78150225009099
:102790008DF8045003208DF8050000248DF80640C4
:1027A00001268DF8076069463846FEF72BFEADF826
:1027B0000880ADF80A40ADF81040114CCDF80C90EF
:1027C00002A9204600F034F97020ADF81400ADF8ED
:1027D0001660ADF8205005A9204600F0F1F8082158
:1027E000204600F01DF90121204600F0BDF801212E
:1027F000204600F0C6F80BB0BDE8F083001402409C
:10280000002000401FB501210846FFF78FFD42F26E
:10281000107001905320ADF800000020ADF80200C8
:10282000ADF808004FF080446946204600F000F9FA
:1028300001221146204600F0BAF80121204600F09E
:10284000A0F81C208DF80C0001208DF80D0003214C
:102850008DF80E108DF80F0003A8FFF703F91FBDC8
:1028600010B501218C07204600F095F8002827D0EC
:10287000144901F11C03CA680A61521CCA608888A5
:10288000401C82B28A80642A12D300228A8058882F
:10289000401C80B258803C280AD35A809888401C3B
:1028A00080B298803C2803D39A80D888401CD88076
:1028B000888818802046BDE81040012100F05EB8ED
:1028C00010BD0000440000202DE9F04388468146F9
:1028D00001218BB00804FFF741FD01210846FFF7F5
:1028E00019FD1F4F032202213846FEF7C7FD0420C1
:1028F000022500908DF8045003208DF80500002477
:102900008DF8064001268DF8076069463846FEF7C7
:1029100079FDADF80880ADF80A40ADF81040114CD3
:10292000CDF80C9002A9204600F082F87020ADF896
:102930001400ADF81660ADF8205005A9204600F04F
:102940003FF80821204600F06BF80121204600F0F6
:102950000BF80121204600F014F80BB0BDE8F0831D
:1029600000000240004001400029018802D041F0EF
:10297000800101E021F0800101807047C94301829C
:1029800070470029018802D041F0010101E021F0E7
:1029900001010180704702460020138A92890B4290
:1029A00002EA010202D0002A00D001207047002A6A
:1029B000828901D00A4300E08A4382817047000087
:1029C00030B5028C22F001020284028C8388048BD1
:1029D00022F0020224F073050C882C438D891543E4
:1029E0004A882A430C4DA84202D00C4DA8420DD172
:1029F00022F00805CA8923F440732A4322F0040513
:102A00008A882A430D8A1D434B8A2B438380048383
:102A100089684163028430BD000001400004014028
:102A2000028B22F008020A43028370474163704719
:102A300030B50288164C174DA0420DD0A8420BD0DD
:102A4000B0F1804F08D0144B984205D0134B9842F8
:102A500002D0134B984203D122F070034A881A43E4
:102A6000104B984206D0104B984203D022F440738A
:102A70000A891A4302804A68C2620A880285A04213
:102A800001D0A84201D1897A01860121818230BD1D
:102A90000000014000040140000400400008004024
:102AA000000C004000100040001400402DE9F041EF
:102AB00044F61F6453212046FFF754FE532120465D
:102AC000FFF700FEA7212046FFF7ACFDA721204617
:102AD000FFF7FAFE1A4D4FF4FA6421462846FFF735
:102AE000A5FF184E21463046FFF7A0FFDFF85880BB
:102AF00021464046FFF79AFF144F21463846FFF71C
:102B000095FF6410204601F09FFB204601F09CFBDE
:102B100021463046FFF78AFF21462846FFF786FF09
:102B200021464046FFF782FF21463846FFF77EFFE9
:102B3000204601F089FB2046BDE8F04101F084BB4E
:102B400000200040001C00400040014000440140C3
:102B500001460148FFF76ABF0020004001460148D6
:102B6000FFF764BF001C00402DE9F0412348012518
:102B7000234E40F2255705603946304600F09CF858
:102B8000012839D1304600F025F91E49C0B2002491
:102B900008704A78052A1DD2DFE802F003070F1AF1
:102BA00021000D2822D14D7020E00A2802D00D28E6
:102BB0001CD00FE08C7002200FE0134B8A789854E1
:102BC000521CD0B28870182810D38C70032004E0F7
:102BD0000A2801D04C7009E00420487006E00D4638
:102BE0000D2802D1084800F00FF96C7039463046C4
:102BF000BDE8F04100F050B8BDE8F08104000020CD
:102C0000004C004030000020E00300203EB50D4D98
:102C100040F225542146284600F04EF800280FD0F7
:102C20002146284600F038F8074A02F12001081F23
:102C30008DE80700031F14321039103802F076FBBC
:102C40003EBD0000001001403403002070B5104D5F
:102C500040F225542146284600F02EF8012816D1CE
:102C60002146284600F018F80A494FF6E85208684D
:102C7000904203DDA0F57F40FF380860486890422D
:102C800003DDA0F57F40FF384860401F486070BDFD
:102C900000440040900200200A0A01219140C943EB
:102CA000018070470029818902D041F4005101E080
:102CB00021F400518181704770B501F01F05012694
:102CC0000024C1F3421306FA05F2012B0FD0022BA8
:102CD0000FD0838A4FEA11210088134206FA01F6C9
:102CE00000EA060001D000B10124204670BD8389AE
:102CF000F0E7038AEEE710B5C1F3421301F01F04B9
:102D00000121A140012B07D0022B07D01430002A4B
:102D1000026805D00A4304E00C30F8E71030F6E70B
:102D20008A43026010BD00007FB50446008A0D464C
:102D3000C98820F4405001432182A08941F20C61EE
:102D40008843A9882A8911436A8902431143A181D2
:102D5000A08A20F44071A8890843A0826846FFF742
:102D600009FB1A48844202D01948844201D10398D1
:102D700000E00298A189090400EBC00101EB0010FA
:102D8000296801D5490000E08900B0FBF1F0642218
:102D9000B0FBF2F109010B096FF018056B4300EB72
:102DA0008300A3891D044FF0320306D503EBC00056
:102DB000B0FBF2F000F0070005E003EB0010B0FB01
:102DC000F2F000F00F00084320817FBD00100140A9
:102DD000001401408088C0F30800704730B5094DE9
:102DE000074A6B6A07E014882406FCD510F8014BEB
:102DF00094805B1C6B628B42F5DB0020686230BD07
:102E0000001001403403002070B53D4C2DED048BC3
:102E1000A4F10C05D4ED031A9FED3B9AC4ED061AFC
:102E200094ED040ADFED399A84ED070A90ED001A5B
:102E300084ED001AD0ED010AC4ED010AD0ED020ABA
:102E4000C4ED020AD0ED030AC4ED030A90ED042A92
:102E500070EEE10A84ED042AD0ED052A04F1480061
:102E6000C4ED052A32EE400AC0ED052AC4ED080A79
:102E700084ED090AD4ED0A1A224871EEA00AC4EDC5
:102E80000A0AD4ED0B0A30EE800A84ED0B0A90EDAD
:102E9000010A31EE400A85ED020A60EE090A80EE71
:102EA000A90A10EE100A04F07BFA41EC100B00F0B6
:102EB000DFF9E06804F074FA9FED158B53EC182BE2
:102EC00003F054FD03F020FD286095ED020A60EE4A
:102ED000090A80EEA90A10EE100A04F061FA41EC2A
:102EE000100B00F061F9206904F05AFA53EC182B2A
:102EF00004F06CF903F008FD6860BDEC048B70BD54
:102F0000B003002030000020DB0F494000003443B4
:102F10000000000000000000FEE7000010B52DEDED
:102F20000E8BF0EE40DAB0EE60DA9FED6C0A21EE27
:102F3000800ADFED6B0A80EE208A9FED6A0A61EE5F
:102F4000008A18EE900A04F02BFA41EC1B0B1DEEE0
:102F5000100A04F025FA41EC190B18EE100A04F0DF
:102F60001FFA41EC100B00F083F953EC192B51ECD4
:102F7000100B03F055FF41EC1A0B1DEE900A04F004
:102F80000FFA41EC190B18EE100A04F009FA41ECA3
:102F9000100B00F009F951EC100B03F0A9FC53ECF5
:102FA000192B03F03DFF53EC1A2B04F00FF953ECEF
:102FB0001B2B03F0DBFC9FED4C9B53EC192B03F018
:102FC0007DFD03F0A1FC4A4C206018EE900A04F04D
:102FD000E7F941EC1B0B1DEE100A04F0E1F941EC9E
:102FE0001A0B9FED440A38EE00EA1EEE100A04F0B8
:102FF000D7F941EC100B00F0D7F853EC1A2B51EC39
:10300000100B03F00DFF41EC1C0B1DEE900A04F0B9
:10301000C7F941EC1A0B1EEE100A04F0C1F941EC9D
:10302000100B00F025F953EC1A2B51EC100B03F0A8
:10303000F7FE53EC1C2B04F0C9F853EC1B2B03F0E8
:1030400095FC53EC192B03F039FD03F05DFC606037
:1030500018EE900A04F0A4F941EC1A0B1DEE100AC8
:1030600004F09EF99FED240A41EC1B0B38EE00CAD8
:103070001CEE100A04F094F941EC100B00F0F8F883
:1030800053EC1B2B51EC100B03F0CAFE41EC180B58
:103090001DEE900A04F084F941EC1B0B1CEE100AA3
:1030A00004F07EF941EC100B00F07EF853EC1B2B82
:1030B00051EC100B03F0B4FE53EC182B03F056FC4C
:1030C00053EC1A2B03F052FC53EC192B03F0F6FCD3
:1030D00003F01AFCA060BDEC0E8B10BDDB0F494065
:1030E000000034433BDFCF3E000000C0B88FCE3F2E
:1030F0006C040020920A063F920A863F1A4808B5DF
:10310000D0ED020A60EE801A30EE601AF5EEC01AB9
:10311000F1EE10FA14DAF5EEC00AF1EE10FA01DC65
:10312000F1EE600AB5EEC00AF1EE10FA01DCB1EE84
:10313000400A0E4930EE800A10EE100A884202DC86
:103140008DED001A02E06846FDF7BAFB9DED000A1E
:103150000748FEF77BFF064890ED090A0548B1EEE7
:10316000400A80ED050A08BDA40300200000344396
:103170005C0600205404002003B40198410000982C
:1031800050EAC12018BF04204A0D18BF40F00100CA
:1031900040F2FF72B2EB515F08BF40F0020001281D
:1031A00008BF052002B0704710B52F499FED2C1BBA
:1031B0002DED020B84B0059820F000408842D8BF66
:1031C0009DED040B2DDD2949884209D1049840B9B1
:1031D0004FF00100FDF7F1F900F0E2FC06B010BD80
:1031E00005DB9DED040B00F0CFFC06B010BD68467A
:1031F0009DED040B00F0E0F810F0030004BF9DED1E
:10320000021B9DED000B0CD001280ED09DED021B82
:103210009DED000B022817D0012000F01DFC06B028
:1032200010BD00F0E5FA06B010BD9DED021B9DED4E
:10323000000B012000F010FC51EC100B03F058FBC8
:1032400006B041EC100B10BD00F0D2FA51EC100B9F
:1032500003F04EFB06B041EC100B10BD0000000067
:103260000000000000000000FB21E93F0000F07FAB
:1032700010B52F499FED2C1B2DED020B84B0059846
:1032800020F000408842DCBF00209DED040B32DDC1
:103290002849884209D1049840B94FF00100FDF750
:1032A0008CF900F07DFC06B010BD05DB9DED040B34
:1032B00000F06AFC06B010BD68469DED040B00F0FE
:1032C0007BF810F0030011D0012818D09DED021BEF
:1032D0009DED000B02281AD000F08AFA51EC100B79
:1032E00003F006FB06B041EC100B10BD9DED021B78
:1032F0009DED000B012000F0AFFB06B010BD9DED71
:10330000021B9DED000B00F073FA06B010BD01200A
:1033100000F0A2FB51EC100B03F0EAFA06B041EC0E
:10332000100B10BD000000000000000000000000B5
:10333000FB21E93F0000F07F00B52DED048BB0EEDE
:10334000409AF0EE609A83B051EC190B03F072FED4
:1033500041EC180B18EE100A18EE901A8DED008B48
:10336000002818BF0120084320F00040C0F17F6012
:1033700000F1E040C00F14D019EE101A19EE900AB7
:103380008DED009B002918BF0121084320F000406B
:10339000C0F17F6000F1E040C00F04BF0120FDF7E5
:1033A0000CF9B0EE480A03B0F0EE680ABDEC048BED
:1033B00000BD0000000000002DE9F14F04462DED96
:1033C000020B2DED088B8AB09FEDE70B80ED020B11
:1033D000139EE74826F0004585420ADC9DED120B5E
:1033E000002084ED000B0AB0BDEC088B03B0BDE8F3
:1033F000F08FE0489FEDE0AB9FEDE1BBA84247DDD9
:10340000E14F9FEDE39B9FEDE48B9DED120B53ECA1
:103410001A2B51EC100B002E1CDD03F0D7FE41ECF3
:10342000100BBD4208D053EC1B2B51EC100B03F0DA
:10343000CDFEC4E900010BE053EC192B51EC100B4D
:1034400003F0C4FE53EC182B03F0C0FEC4E90001E6
:103450000120C8E703F08AFA41EC100BBD4208D006
:1034600053EC1B2B51EC100B03F080FAC4E9000164
:103470000BE053EC192B51EC100B03F077FA53ECE3
:10348000182B03F073FAC4E900014FF0FF30AAE7EC
:10349000C348A84279DB9DED120B51EC100B00F0F4
:1034A00009FF41EC180B9FEDC00B53EC102B03F000
:1034B000B7FC9FEDBF1B53EC112B03F057FA03F041
:1034C00055FC074603F081FC41EC190B53EC1A2B19
:1034D00003F0A6FC53EC182B03F0A0FD41EC180BF5
:1034E00053EC1B2B51EC190B03F09AFCDFF8C8A22C
:1034F00041EC100B4FEA15580125FA4453EC102B00
:1035000051EC180B03F062FE032DC4E900013DD01D
:10351000C1F30A5005EB4511A8EB000011398142B7
:1035200034DA0AEB051BB0EE48AA9BED000BF0EE77
:1035300068AA53EC102B51EC190B03F071FC41EC11
:103540001B0B51EC1A0B53EC1B2B03F03FFE41EC11
:10355000180B51EC1A0B53EC182B03F037FE53ECFD
:103560001B2B03F033FE9BED020B41EC1A0B53ECCB
:10357000102B51EC190B03F053FC53EC1A2B03F0F6
:1035800025FE41EC100B6D1CB8E70EE0002EA8BF25
:103590003846BFF628AF94ED000B51EC100B03F04A
:1035A000A7F9C4E9000178421DE7C6F3130040F40F
:1035B000801EC6F30A50A0F2F530471100F01F0537
:1035C000C5F12000DDF848B0089000200690079073
:1035D0000520EC467949002D07EB0002794408BF2D
:1035E00051F8221009D051F8223001EB8201AB4092
:1035F0004A68089922FA01F11943A1FB0E26A1FBA2
:103600000B131A449A4234BF0123002303EB06082C
:103610000CEB8003D3E901A60E448E4234BF012196
:10362000002192448A4411B1924502D903E09245A7
:1036300001D2012100E00021C3E901A641444CF878
:103640002010011EA0F10100C4DC029800F100501E
:10365000850F0298DDE903678000DDF8148003F030
:10366000B4FB41EC1A0B304603F0C6FB9FED541B34
:1036700053EC112B03F0D4FB41EC1B0B384603F049
:10368000BBFB9FED511B53EC112B03F0C9FB41EC2D
:10369000180B404603F0B0FB9FED4D1B53EC112B74
:1036A00003F0BEFB41EC190B51EC180B53EC192B3A
:1036B00003F05CF953EC1B2B03F058F953EC1A2B75
:1036C00003F054F9CDE90801002008909DED080BA6
:1036D00053EC1A2B51EC100B03F078FD53EC1B2B21
:1036E00003F074FD53EC182B03F070FD53EC192B11
:1036F00003F094FC9FED381B53EC112B03F090FB6F
:103700009FED370B41EC180B53EC102B9DED080B84
:1037100051EC100B03F084FB53EC182B03F026F94B
:103720009FED310B41EC180B53EC102B9DED080B6A
:1037300051EC100B03F074FB53EC182B03F016F94B
:1037400041EC100B139810F0004F06D06D4251EC75
:10375000100B03F0CDF841EC100B284684ED000B64
:1037600041E6000000000000000000000000000032
:10377000FB21E93F7CD9024000004054FB21F93F86
:103780003163621A61B4D03DFB21F93F00000000B3
:103790000000601A61B4D03D7370032E8A19A33BF8
:1037A000FB2139410000000083C8C96D305FE43F50
:1037B000000000000000E03FCA3F0000183F00008A
:1037C000000000000000103E000000000000103C5F
:1037D000000000000000103A182D4454FB21F93D70
:1037E0003326A611460B113C00000054FB21F93D85
:1037F00010B52DED040B2DED088B82B0B0EE419A83
:10380000F0EE619A0B9820F000449FED4BABB4F1C1
:10381000795F11DA9DED0A0B51EC100B03F0A6FA5B
:10382000002801BFB0EE4A0AF0EE6A0A02B0BDEC11
:10383000088B04BF04B010BD9DED0A0B53EC102B98
:1038400051EC100B03F0ECFA41EC180B3C4806214C
:10385000B0EE480AF0EE680A784400F081F853ECC4
:10386000182B51EC100B03F0DBFA9DED0A0B41EC29
:103870001B0B53EC192B51EC100B03F0D1FA41EC5C
:10388000190B53EC1B2B51EC180B03F0C9FA53EC3A
:10389000192B03F09BFC9FED2C0B41EC190B53EC07
:1038A000102B51EC180B03F0BBFA41EC100B28481D
:1038B000844210DA53EC192B51EC100B03F086FC08
:1038C00053EC1A2B03F0AAFB41EC100B02B0BDEC39
:1038D000088B04B010BD1F48A042BCBF9FED1E1B4B
:1038E0008DED001B06DBA4F5001001900020009078
:1038F0009DED001B51EC100B53EC112B03F066FCFB
:103900009DED000B41EC180B53EC102B51EC1A0BF6
:1039100003F05CFC41EC1A0B53EC192B51EC180B27
:1039200003F054FC53EC1A2B03F078FB41EC100B22
:10393000CCE7000000000000000000000000F03FA5
:103940003C3C000000000000000000000000E03FE0
:103950003333D33F0000E93F000000000000D23FB6
:1039600070B504462DED028B4D1E00EBC500B0EE88
:10397000408AF0EE608A90ED000B35F0060017D01B
:1039800053EC182B51EC100B03F04AFA41EC100BDE
:103990006D1E04EBC50090ED001B51EC100B53ECB9
:1039A000112B02F0E3FF41EC100B35F00600E7D1DC
:1039B000022D36D0042D1CD0062D1CBFBDEC028B71
:1039C00070BD53EC182B51EC100B03F029FA94ED59
:1039D0000A1B53EC112B02F0C9FF53EC182B03F018
:1039E0001FFA94ED081B53EC112B02F0BFFF41ECC2
:1039F000100B53EC182B51EC100B03F011FA94ED53
:103A0000061B53EC112B02F0B1FF53EC182B03F003
:103A100007FA94ED040B53EC102B02F0A7FF41ECD6
:103A2000100B53EC182B51EC100B03F0F9F994ED3B
:103A3000021B53EC112B02F099FF53EC182B03F0EF
:103A4000EFF994ED001B53EC112B02F08FFFBDEC4E
:103A5000028B41EC100B70BD31B504462DED040B0B
:103A60002DED0A8BB0EE41BAF0EE61BA0B989DEDE8
:103A70000A0B20F00040B0F1795F0DDA51EC100B29
:103A8000FFF77AFB042808BF00F09AF89DED0A0BB7
:103A9000BDEC0A8B05B030BD53EC102B51EC100B74
:103AA00003F0BEF941EC180B9DED0A0B53EC182BFB
:103AB00051EC100B03F0B4F941EC190B2C48B0EEAB
:103AC000480AF0EE680A05217844FFF749FF9FEDA8
:103AD0002ACBB0EE40AAF0EE60AA9CB353EC1C2BAC
:103AE00051EC190B03F09CF941EC1C0B53EC1A2B15
:103AF00051EC190B03F094F99FED210B41EC190BDC
:103B000053EC102B51EC1B0B03F08AF953EC192BDF
:103B100003F05CFB53EC182B03F082F953EC1B2BE6
:103B200003F054FB53EC1C2B03F050FB9DED0A1BE0
:103B300053EC112B03F072FABDEC0A8B05B041EC8B
:103B4000100B30BDFFE753EC1A2B51EC180B03F0B0
:103B500067F953EC1C2B02F009FF53EC192B03F00F
:103B60005FF99DED0A1B53EC112B02F0FFFEE3E71A
:103B7000C43A000000000000495555555555C5BFD1
:103B8000000000000000E03F10B553EC102B51EC9A
:103B9000100B02F0EBFE41EC100B10BD000000001A
:103BA0009FED050B10B553EC102B51EC100B02F0F0
:103BB00085FF41EC100B10BD00000000000000006C
:103BC0009FED050B10B553EC102B51EC100B03F0CF
:103BD00027F941EC100B10BD0000000000000010A0
:103BE000704700000FB44FF07E512DED020B10B561
:103BF0004C4CDDED081A11EE900A884218DCF5EE07
:103C0000C01AF1EE10FA13D3DDED092A12EE900A74
:103C100088420DDCF5EEC02AF1EE10FA08D3DDED96
:103C2000060A9DED052AF4EEC20AF1EE10FA04D25E
:103C30000020A08010BC5DF81CFB9DED040AB5EED1
:103C4000C00AF1EE10FA01DCB1EE400AF0EE003AE3
:103C500061EE801A62EE802A30EE613A21EEA35ABC
:103C600062EEA35AB4EEE11A73EE624A20EEA03A75
:103C700002EE423A83EE054A9DED073A23EE033AFF
:103C8000B0EE435A00EEE05AC5EE252AF1EE10FAE6
:103C900008D222EE020A64EE230A00EE810A10EE38
:103CA000100A1AE071EEA41AF4EEC11AF1EE10FA3D
:103CB00004DDBDEEE00A10EE100A18E070EE410AD5
:103CC00062EEA31AF5EEC00AF1EE10FA01DC71EE15
:103CD000400A01EEE03A13EE100A03F061FB41ECFA
:103CE000100BFFF729FB51EC100B03F03FF880B2EB
:103CF000404200B2A0800C4C00EE900A0B48B4F990
:103D00000210F8EEE00A00EE101AB8EEC00AFDF755
:103D10003BFC064890ED0A0ABDEEC00A10EE100A00
:103D2000E08087E784000020F0050020F4090020EF
:103D30000FB44FF07E512DED020B70B5754C2DED8B
:103D4000028BDDED0D2A12EE900A884218DCF5EEAA
:103D5000C02AF1EE10FA13D39DED0E1A11EE100ADF
:103D600088420DDCB5EEC01AF1EE10FA08D39DEDD5
:103D70000B2ADDED0A1AB4EEE12AF1EE10FA01D2B7
:103D800000200EE09DED088ADDED098AB4EE688A18
:103D9000F1EE10FA0BD121EE820ABDEEC00A10EE50
:103DA000100A2080BDEC028B70BC5DF81CFB78EE25
:103DB000C80AF5EEC00AF1EE10FA01DC78EE680AE6
:103DC000B0EE004AF4EEC88A62EEA02A21EE203A54
:103DD00030EEE21A62EE843A23EE046A31EE435A80
:103DE00022EE021A01EEE11AC1EE234A9DED0C1AF1
:103DF00061EE013AF0EE635A42EE425A85EE863A9F
:103E0000F1EE10FA04DDB4EEC08AF1EE10FA09DC2E
:103E1000F4EEC88AF1EE10FA07D2B4EEC08AF1EEE1
:103E200010FA02D2BDEEE10A15E0F4EEC88AF1EE16
:103E300010FA04DDF4EEC08AF1EE10FA09D3F4EEC4
:103E4000C88AF1EE10FA09D2F4EEC08AF1EE10FA47
:103E500004DDBDEEC10A10EE100A39E030EE481A5A
:103E6000B5EEC01AF1EE10FA01DC38EE401AB4EEED
:103E7000E21AF1EE10FA08D221EEA10A64EE840AE9
:103E800000EE810A10EE100A18E032EE850AB4EE58
:103E9000C10AF1EE10FA02DDBDEEC20ADBE730EE38
:103EA000C10A63EE041AB5EEC00AF1EE10FA01DCA5
:103EB00031EE600A41EEC03A13EE900A03F070FA58
:103EC00041EC100BFFF738FA51EC100B02F04EFFEB
:103ED000F4EEC88A2080F1EE10FA02D280B240429D
:103EE00020800D4DB5F9020000EE100AB4F9000073
:103EF00000EE900AB8EEC00A0848F8EEE00AFDF7B6
:103F000043FB064890ED0A0ABDEEC00A10EE100A07
:103F1000E88047E784000020500500204C0900207D
:103F20000FB44FF07E512DED020B70B5754C2DED99
:103F3000028BDDED0D2A12EE900A884218DCF5EEB8
:103F4000C02AF1EE10FA13D39DED0E1A11EE100AED
:103F500088420DDCB5EEC01AF1EE10FA08D39DEDE3
:103F60000B2ADDED0A1AB4EEE12AF1EE10FA01D2C5
:103F700000200EE09DED088ADDED098AB4EE688A26
:103F8000F1EE10FA0BD121EE820ABDEEC00A10EE5E
:103F9000100A6080BDEC028B70BC5DF81CFB78EEF3
:103FA000C80AF5EEC00AF1EE10FA01DC78EE680AF4
:103FB000B0EE004AF4EEC88A62EEA02A21EE203A62
:103FC00030EEE21A62EE843A23EE046A31EE435A8E
:103FD00022EE021A01EEE11AC1EE234A9DED0C1AFF
:103FE00061EE013AF0EE635A42EE425A85EE863AAD
:103FF000F1EE10FA04DDB4EEC08AF1EE10FA09DC3D
:10400000F4EEC88AF1EE10FA07D2B4EEC08AF1EEEF
:1040100010FA02D2BDEEE10A15E0F4EEC88AF1EE24
:1040200010FA04DDF4EEC08AF1EE10FA09D3F4EED2
:10403000C88AF1EE10FA09D2F4EEC08AF1EE10FA55
:1040400004DDBDEEC10A10EE100A39E030EE481A68
:10405000B5EEC01AF1EE10FA01DC38EE401AB4EEFB
:10406000E21AF1EE10FA08D221EEA10A64EE840AF7
:1040700000EE810A10EE100A18E032EE850AB4EE66
:10408000C10AF1EE10FA02DDBDEEC20ADBE730EE46
:10409000C10A63EE041AB5EEC00AF1EE10FA01DCB3
:1040A00031EE600A41EEC03A13EE900A03F078F95F
:1040B00041EC100BFFF740F951EC100B02F056FEEB
:1040C000F4EEC88A6080F1EE10FA02D280B240426B
:1040D00060800D4DB5F9020000EE100AB4F902003F
:1040E00000EE900AB8EEC00A0848F8EEE00AFDF7C4
:1040F0004BFA064890ED0A0ABDEEC00A10EE100A0F
:10410000E88047E784000020A0050020A0090020E7
:1041100030B585B001212020FEF7FCF8012188038D
:10412000FEF71CF907210520FEF7C6F900248DF8DB
:10413000104002208DF8130003A90F48FDF762F923
:104140008020012500908DF806508DF8044008204D
:104150008DF805006846FDF747F817208DF8080030
:104160008DF809408DF80A408DF80B5002A8FDF734
:1041700079FC05B030BD00000014024000B587B0E6
:1041800000208DF808008DF8090014208DF80A0031
:104190001C494FF400700090C8888DF80C00020A8A
:1041A0008DF80B20C88A020A8DF80D208DF80E00BC
:1041B000C88C8DF81000020A8DF80F20C88E010AF5
:1041C0008DF811108DF812000E48D830C0888DF887
:1041D0001400010A0C488DF81310C088010A8DF8EC
:1041E00015108DF8160008485030C0888DF818005A
:1041F000010A8DF8171069460448FCF742FF07B022
:1042000000BD000078040020A005002000640040EC
:1042100010B504460420FEF7C1F90A484FF47A713C
:10422000047014FB01F1012242804FF0E02002698A
:1042300042F0020202614161016941F00101016144
:1042400010BD00009802002070B5044602F0F4F89A
:1042500001280CD0094D6888844203D3B4FBF0F0E8
:1042600001F00EFB6888B4FBF0F100FB11444FF441
:104270007A706043BDE8704000F002B898020020F8
:1042800070B54FF0E02500216C69094AAB691278DE
:104290005043AA699A42FCD002D2A3EB020302E087
:1042A000A4EB02063344194413468142F1D370BD96
:1042B0009802002082B0CDE9000121F00040019079
:1042C0009DED000B02B051EC100B704704490A88B9
:1042D0005206FCD5024AC1B2121D1180704700007F
:1042E0000044004030B5034600208C240DE013F854
:1042F000012B50400022C50702D084EA500000E0A4
:104300004008521CD2B2082AF5D3491E89B2EED217
:1043100030BD000002683449A2F20122072A62D2AD
:10432000DFE802F004101D2A3745520030F80B2F49
:1043300052BA0A80428852BA4A80808840BA88803D
:1043400029484EE030F80B2F52BA0A82428852BAFE
:104350004A82808840BA88822348103041E030F891
:104360000B2F52BA0A84428852BA4A84808840BAD3
:1043700088841D48203034E030F80B2F52BA0A866A
:10438000428852BA4A86808840BA888616483030B9
:1043900027E030F80B1F4ABA1349D8310A80428807
:1043A00052BA4A80808840BA8880084619E030F8BE
:1043B0000B1F4ABA0D490A80428852BA4A80808847
:1043C00040BA888008460CE030F80B1F4ABA07490B
:1043D00050310A80428852BA4A80808840BA888028
:1043E0000846FDF783B9704778040020A005002037
:1043F0001CB54FF44070FDF767FBA820FFF708FFDE
:10440000FDF7C0FAFCF728FFFCF710FBFCF7BCFB3C
:10441000FDF7D2F9FEF74AFB4FF4FA742046FFF796
:1044200013FFFFF775FE4FF4E13000F029FFFEF7B0
:10443000E9F9FDF757F92046FFF706FF0649012085
:10444000CDE900010023802204A1074801F0C8FF44
:1044500001F0CCFB00201CBD0800002073746172C9
:10446000745F7461736B0000C151000870B524481B
:10447000D0ED021A234890EC030AFEF74FFD224CC0
:10448000204DB4F902000C3500EE100AD5ED000AFB
:104490001E48B8EEC00AFDF75FFDB4F91200D5ED75
:1044A000010A00EE100A1948B8EEC00A3830FDF7CC
:1044B00053FDB4F92200D5ED020A00EE100A1348AC
:1044C000B8EEC00A7030FDF747FD104890ED090ABC
:1044D000BDEEC00A10EE101AE18090ED170ABDEE95
:1044E000C00A10EE101AE18290ED250ABDEEC00A56
:1044F00010EE100AE084BDE87040FFF73FBE0000F8
:10450000A40300206004002078040020A8040020F8
:104510002DED028B84B0834F4FF0020A40F2B45B62
:10452000DFED818A40F23A789FED808A804D814CA0
:10453000DFF8049240F2DC56E889B0427ED2D9F826
:10454000000000287AD1A88820B9E88810B9288806
:1045500000287FD06889A0F2B730B0F5957F0AD8DF
:10456000A88940F2B631884205D940F2E24188423A
:1045700001D2FCF77DFE6989A1F2B5504F2818D20F
:10458000A889B0F5487F04D9B0F5966F01D284F8B8
:1045900000A0584505D940F20462904201D203229E
:1045A0002270404505D940F63402904201D20420E1
:1045B0002070A1F23B71F92949D2A889B0F5487F52
:1045C00045D9B0F5966F11D287F800A02078B0BB1E
:1045D0005A48B0EE680A6422016859480068FDF73D
:1045E00003F86889A0F23B70F92830D2A8895845B1
:1045F00015D940F20461884211D203203870207826
:1046000068B94E48B0EE680A642201684C480068F8
:10461000FCF7EAFF6889A0F23B70F92817D2A88955
:10462000404514D940F63401884210D20420387035
:10463000207820B9B0EE680A642202E011E006E0BA
:1046400008E03E4801683E480068FCF7CDFF6988F5
:10465000414506D93B4880ED048A80ED038A80ED10
:10466000058AE889B04202D9D9F8000020B1D9F80A
:104670000000022803D018E00120207015E0304827
:104680002E49D0ED000A2F48B8EEE00A80ED030A6B
:10469000D1ED000A2C49B8EEE00A80ED040AD1ED14
:1046A000000AB8EEE00A80ED050A28480378284899
:1046B00090ED020AFDEEC00A90ED010A029310EEA1
:1046C000901AFDEEC00A09B210EE902A12B2CDE99E
:1046D000002190ED000AFDEEC00A10EE900A03B230
:1046E000184890ED050AFDEEC00A90ED040A10EEA0
:1046F000901AFDEEC00A90ED030A0AB210EE901A6D
:10470000FDEEC00A09B210EE900A00B200F0CCFE35
:104710000D2001F0B5F8FFF7A9FE052001F0B0F873
:104720000AE70000300300200000484300000000BA
:104730004004002004010020000000204403002069
:1047400040030020540400204803002034030020CC
:10475000A403002070B52DED048BF0EE409AB0EE6E
:10476000618AB0EE609AB0EE410AFEF7C7FC224DB6
:1047700095ED000A30EE690A60EE000A95ED010A37
:1047800030EE490A40EE000A10EE900A02F008FEF0
:1047900041EC100BFEF7D0FD51EC100B02F0B4F819
:1047A00008EE900AB5EEC08AF1EE10FA01DCB1EE27
:1047B000488A124CB0EE680A204684ED0A8AFDF75A
:1047C00045FCD5ED000A94ED090A0D4870EEE90AA2
:1047D00060EE600A80EEA81A80ED031AD5ED010A9A
:1047E00070EEC90A20EE600AC0EE280AC0ED040A85
:1047F000BDEC048B70BD0000A40300200407002062
:10480000540400202DE9F041184E0F460446F56887
:104810003068001D00F0AAFE38B9306890F82C10FE
:1048200001208840316981433161601C07D137B173
:104830003168BDE8F0410E48091D00F0CFBE306878
:104840002C44AC424460316805D2B06BBDE8F04105
:10485000091D00F0ABBE706B091D00F0A7FEB06A29
:10486000844200D2B462BDE8F0810000A4020020BE
:10487000580D00202DE9F041054600F0BBFE2D4EFD
:10488000B068401CB06030682B4F10B1706930B315
:104890002BE03560B068012827D1002404EB8400A8
:1048A00007EB800000F074FE641C202CF6D3234834
:1048B00000F06EFE2148143000F06AFE1F482830D8
:1048C00000F066FE1D483C3000F062FE1B48503090
:1048D00000F05EFE194870631430B06305E0306884
:1048E000E96AC06A884200D83560706A0121401CBC
:1048F00070626864E86A326981401143316100EB9B
:10490000800007EB8000291D00F068FE00F0AEFE7D
:10491000706900280CD03068E96AC06A884207D202
:1049200007494FF080500860BFF34F8FBFF36F8F80
:10493000BDE8F081A4020020880A0020080D0020B4
:1049400004ED00E010B500F055FE0E4C2068A0B953
:104950000D4800F01DFE0C48143000F019FE0A4806
:10496000E0601430206100221021052001F06EFA71
:10497000206010B105A100F04FFFBDE8104000F02D
:1049800075BE0000E00200206C0D0020546D7251D5
:104990000000000070B5124E124D1CE001F070F9DD
:1049A000306820B1002401F075FEA4B901E00124B3
:1049B000F9E700F01FFEF068C468201D00F0D6FD86
:1049C000A868401EA8606868401E686000F04EFE3F
:1049D000204600F052F868680028DFD170BD000062
:1049E000440D0020A402002030B4026C0B46002AC3
:1049F0000BD0C1681144C1604468A14201D3016871
:104A0000C16030BC1846FBF75BBD30BC70472DE978
:104A1000F041856B174604460026026C82B1C7B18F
:104A2000E068FBF74DFDE168206C091AE16022683F
:104A3000914202D26168081AE060022F16D017E096
:104A40002068A8B9606801F07FFD0646002060601C
:104A50000EE0A068FBF734FD216CA0680844A0605C
:104A60006168884204D32068A06001E005B16D1E32
:104A70006D1CA5633046BDE8F08110B50446006B9F
:104A800000F026FE2046BDE8104000F021BE0000E8
:104A900010484FF4A041420706D0C01D0D4920F038
:104AA0000700411AC1F5A0410B4A00230144C2E9A5
:104AB00000030839103A21F0070111604B600B60C8
:104AC0000B1AC0E9001393604FF000405360D060B0
:104AD00070470000940D002010030020074E4FF097
:104AE0008054074DFFF756FF30680128FAD92C6033
:104AF000BFF34F8FBFF36F8FF4E70000880A0020E9
:104B000004ED00E02DE9F047DDE909840E46174683
:104B1000824691009946089DA522206BFBF715FD62
:104B20006FF00301206B01EB8701084420F00707B9
:104B3000780705D040F22B3219A11EA0FBF71AFC12
:104B400000202218315C82F83410315C11B1401C15
:104B50001028F6D3002684F84360202D00D31F25AB
:104B6000E562C4E91356201D00F01DFD04F1180094
:104B700000F019FD2461C5F120006462A061666542
:104B800084F858604A465146384600F003FB2060DE
:104B9000B8F1000F01D0C8F80040BDE8F087000070
:104BA0002E2E5C4672656552544F535C7461736B74
:104BB000732E63004572726F723A25732C25640D53
:104BC0000A00000030B5114900E011460A6882422F
:104BD000FBD34B685C18844203D14068184448609A
:104BE000084643681C18944209D1084C103C2468BC
:104BF000A24209D052681A4442600A6812680260F0
:104C0000814200D0086030BD0460F9E71003002045
:104C100070B5002441600B4D0061914206D8D11A55
:104C20008269914206D2011D286907E09A4203D2A7
:104C3000994201D3012403E0011DE86800F0B6FCAD
:104C4000204670BDE002002010B5044600F0D2FC02
:104C5000A06B20B1002400F009FD204610BD012406
:104C6000F9E700002DE9F34100980F460026846C17
:104C70002CB940F6CE1216A11AA0FBF77BFBA06B55
:104C8000E16B884205D340F6CF1211A115A0FBF7C6
:104C900071FBA06BE16B88420CD294F945503A4607
:104CA00069462046FFF7B3FE0646681C05D06D1C1A
:104CB00084F845503046BDE8FC81606A0028F9D090
:104CC00004F1240001F09AFC0028F3D00126F1E75A
:104CD0002E2E5C4672656552544F535C7175657536
:104CE000652E63004572726F723A25732C25640D30
:104CF0000A000000F8B5054614480E46C068C068B2
:104D0000C468201D00F032FCE069012817D1A069B9
:104D10002B46411932462046FFF77AFF78B1002032
:104D20000346014600902A46204601F099FD30B91D
:104D300007494FF4027201F11800FBF71BFB616A8F
:104D400001B02046BDE8F04008470000E002002026
:104D5000C467000870B586B02F4E53E00198002854
:104D600006DADDE90301029A90470198002849DB41
:104D7000039C606910B1201D00F0F8FB05A800F04D
:104D8000A7F8054601980A283CD2DFE800F005059F
:104D9000053B273805053B270298A16903460144D6
:104DA0002A462046FFF734FF00282BD0616A2046B0
:104DB0008847E069012825D1002000900298A16968
:104DC000002342181946204601F04AFDD0B940F2AE
:104DD000213212A117A0FBF7CDFA13E00298A061CF
:104DE00028B94FF44E720DA112A0FBF7C3FAA069C7
:104DF0002B4641191A462046FFF70AFF02E02046DB
:104E000000F066FC00231A4601A9306801F05AF848
:104E10000028A3D106B070BDE00200202E2E5C4613
:104E200072656552544F535C74696D6572732E637D
:104E3000000000004572726F723A25732C25640DD4
:104E40000A000000F8B50D46064600F019FF684656
:104E500000F03EF80446009810B101F01BFCF8BDCC
:104E60001148ADB101690968D9B10025311B2A4645
:104E7000006800F0E3FC01F00DFC0028EFD10B49C5
:104E80004FF080500860BFF34F8FBFF36F8FF8BDB6
:104E9000A642EBD801F0FEFB21463046FFF72AFF81
:104EA000F8BD0125E2E70000E002002004ED00E08B
:104EB0000648416B096829B1416BC968C9684968EE
:104EC000816270474FF0FF31FAE70000A402002032
:104ED00070B5054601F0BEFA064E0446B06884423D
:104EE00003D200F009F8012000E0002028602046ED
:104EF000B46070BDE0020020F8B5184E26E0C0682E
:104F0000C4680568201D00F031FB616A20468847AF
:104F1000E06901281AD1A0692844A84206D9246171
:104F20006060211DF06800F041FB0FE000200346A7
:104F3000014600902A46204601F092FC30B908490B
:104F400040F2923201F11800FBF714FAF0680168A0
:104F50000029D4D13169C6E90310F8BDE002002070
:104F6000C467000808484068401C05D040F20F1292
:104F700006A111A0FBF7FEF9502080F31188BFF3C2
:104F80004F8FBFF36F8FFEE7F40200202E2E5C469A
:104F900072656552544F535C706F727461626C65D8
:104FA0005C525644535C41524D5F434D34465C70F5
:104FB0006F72742E630000004572726F723A25732F
:104FC0002C25640D0A000000084CE068016839B126
:104FD000002139B10020FFF735FFFFF7BBFEF4E7F2
:104FE0000121F6E7C0680068F5E70000E002002054
:104FF0002DE9F041044600F0FDFA94F9455004F122
:10500000240610E0A06C20B100212046FFF72AFE04
:1050100004E0606A48B1304601F0F0FA08B100F0EF
:1050200021FD6D1E6DB2002DECDC4FF0FF3684F8D3
:10503000456000F01BFB00F0DDFA94F9445004F1E8
:10504000100709E0206948B1384601F0D7FA08B1E5
:1050500000F008FD6D1E6DB2002DF3DC84F8446095
:10506000BDE8F04100F002BB2DE9F0410546002605
:1050700000F006FE324F386808B9FFF709FDF868FE
:1050800005424FD1002D4DD0083568070BD005F0F3
:105090000700C0F108000544680704D0BF2229A119
:1050A00032A0FBF767F9002D3CD07868854239D8EB
:1050B000234910310846046801E02146044660682F
:1050C000A84202D220680028F7D13868B846844246
:1050D00028D00E682068086060680836401B1028D9
:1050E0000ED96719780704D0EC2216A11FA0FBF790
:1050F00041F96068401B786038466560FFF762FDE3
:105100006168D8F804004246401AC8F80400D8F88C
:105110000830984200D29060D8F80C00014300207B
:10512000C4E9000101F0B6FA700705D04FF4967299
:1051300004A10EA0FBF71EF93046BDE8F081000087
:10514000000300202E2E5C4672656552544F535C5E
:10515000706F727461626C655C4D656D4D616E67F8
:105160005C686561705F342E630000004572726F89
:10517000723A25732C25640D0A0000000449086862
:1051800018B10868026D521C02650868704700007B
:10519000A402002010B5031F4FF080741C601B1F79
:1051A00021F001011960191F044B0B6014390A60CA
:1051B000091F6FF0020244380A6010BD654F0008F5
:1051C0001CB500F017FA1A490220CDE900010023AE
:1051D000802218A11A4801F003F915490320083963
:1051E000CDE900010023802216A11B4801F0F8F848
:1051F0000F490420091FCDE900010023802217A1D7
:10520000194801F0EDF80A490520091DCDE9000112
:105210000023802215A1194801F0E2F804480C3857
:10522000006800F0B9FBBDE81C4000F01FBA0000A8
:10523000140000206D6F76655F7461736B00000071
:1052400011450008526F626F745F73746174655F1B
:105250007461736B00000000752400084175746F61
:105260005F5461736B000000190900084D6F746F83
:10527000725F436F6E74726F6C00000077190008E4
:10528000F0B50646012187B00846FDF743F8012135
:105290001020FDF763F8234D072209212846FCF76B
:1052A000EDF807220A212846FCF7E8F802218DF8DC
:1052B00014108DF815104FF4C060002404908DF880
:1052C000164001278DF8177004A92846FCF79AF8B4
:1052D000ADF80440ADF80640ADF80840ADF80C401C
:1052E0000C20114CADF80A00009669462046FDF7E7
:1052F0001BFD01212046FDF7D5FC012240F225517E
:105300002046FDF7F8FC25208DF8180003208DF8C5
:1053100019008DF81A008DF81B7006A8FCF7A2FB87
:1053200007B0F0BD00000240001001402DE9FF5F12
:105330005248FDF74FFD524C0022524D2179C0B228
:10534000112909D0A1780123A1B1012916D0022980
:1053500022D0032903D137E0AA2801D0E07089E0E8
:10536000E078552805D122712870AA206870A270B3
:1053700062707FE0A8706081A3707BE0B4F90610D2
:105380006B18491CD87008B2E080B4F90A10884242
:1053900070DBE280022015E0B4F90A106A18C91C1B
:1053A000D07089B23748FEF79DFF6070B4F90A10DB
:1053B0002944C978814203D033A0FAF7DBFF59E0D2
:1053C000A078401CA07055E0B4F9080010B1012885
:1053D00002D04FE023814DE0294E93464C36228186
:1053E000B71D06F10C0C06F1120806F1180906F1BA
:1053F0001E0AB4F908002918CA7832544A793A5476
:10540000CA790CF800204A7A08F80020CB7A09F80B
:1054100000304A7B0AF80020401C00B2208102289C
:10542000E7DB0098B6F9001001600198B7F90010A9
:1054300001600298BCF9001001600398B8F90010EF
:1054400001600E98B9F9001001600F98BAF90010C8
:1054500001601098E97B017084F802B084F803B011
:105460001121217184F801B0A4F80AB0A4F806B0A3
:10547000A4F808B004B00020BDE8F09F001001407F
:1054800034030020945D002052656365697665648D
:10549000206461746120636865636B2073756D209F
:1054A0006572726F722100002DE9F04F85B00446DD
:1054B0000EA80D4690E8000E98461746142168463F
:1054C000FBF74BF8274E6A463480B41D2580A51D96
:1054D0002F80AF1DBB1DA7F8008003F1060CA3F8B9
:1054E0000090DFF88480ACF800A0002018F80010CD
:1054F0001154401C0228F9DB0D218A468DF8021058
:105500000020B146161819F8008086F8038014F8B8
:10551000008086F8058015F8008086F8078017F867
:10552000008086F8098013F8008086F80B801CF84C
:105530000080401C86F80D800228E3DB54181046DA
:1055400084F802B0C91CFEF7CDFEE07084F804A018
:105550000A20607114216846FDF740FC05B0BDE8E3
:10556000F08F00005C03002096740008D0E901323F
:1055700001699A60D0E901235A604A68824201D1E8
:1055800082684A60002202610868401E0860704715
:1055900000F108014FF0FF32C0E90112C160016162
:1055A00000210160704700210161704730B50C682F
:1055B000621C02D000F1080202E0026904E01A460F
:1055C00053681D68A542FAD953684B6099608A6098
:1055D000516008610168491C016030BD42684A6041
:1055E00093688B6093685960916008610168491CF9
:1055F00001607047502080F31188BFF34F8FBFF3D5
:105600006F8F09494868401C486001280AD1074843
:10561000006810F0FF0F05D040F2B91204A10FA0EE
:10562000FAF7A8BE70470000F402002004ED00E085
:105630002E2E5C4672656552544F535C706F7274C7
:1056400061626C655C525644535C41524D5F434D00
:1056500034465C706F72742E630000004572726F86
:10566000723A25732C25640D0A00000010B5084C11
:10567000606828B94FF4E07206A111A0FAF77AFE2B
:105680006068401E606001D180F3118810BD000089
:10569000F40200202E2E5C4672656552544F535C16
:1056A000706F727461626C655C525644535C415217
:1056B0004D5F434D34465C706F72742E6300000082
:1056C0004572726F723A25732C25640D0A00000032
:1056D00070B500282AD0164DA0F108046068E9686A
:1056E000084205D14FF4A07212A11CA0FAF742FEA5
:1056F000206828B140F241120EA118A0FAF73AFE34
:105700006068E968084211D02268002A0ED18843F7
:10571000606000F0B5FA6068696808446860204617
:10572000FFF750FABDE8704000F0B4BF70BD000054
:10573000000300202E2E5C4672656552544F535C68
:10574000706F727461626C655C4D656D4D616E6702
:105750005C686561705F342E630000004572726F93
:10576000723A25732C25640D0A00000006484FF498
:105770007A710068B0FBF1F14FF0E020491E416101
:1057800007210161704700001C00002010B5FAF7E6
:10579000CBFD104C10280CD300F1E02090F8F00362
:1057A0002178884205D24FF440720BA115A0FAF778
:1057B000E1FD18480068A16800F4E060884207D95C
:1057C000BDE810404FF4447203A10EA0FAF7D2BD19
:1057D00010BD0000F40200202E2E5C46726565525A
:1057E000544F535C706F727461626C655C525644C6
:1057F000535C41524D5F434D34465C706F72742E62
:10580000630000004572726F723A25732C25640D97
:105810000A0000000CED00E010B5074B002253F821
:1058200032401CB1521C082AF9D310BD43F8321083
:1058300003EBC201486010BD480A002070B5154650
:105840000E460446FFF7D6FE94F944100020491C8A
:1058500001D184F8440094F94510491C01D184F821
:105860004500FFF703FFA06B28B92A46314604F133
:10587000240000F027F92046BDE87040FFF7B8BBD0
:1058800010B5040012D00E49096B29B140F2CF4285
:105890000CA111A0FAF76EFD00F0F2F900212046EC
:1058A000FEF7B0FF00F0F6FE002807D10E494FF0DA
:1058B00080500860BFF34F8FBFF36F8F10BD0000A3
:1058C000A40200202E2E5C4672656552544F535C34
:1058D0007461736B732E63004572726F723A257335
:1058E0002C25640D0A00000004ED00E02DE9F041D4
:1058F0000E4605004FF0000405D140F279421BA18D
:105900001FA0FAF737FD2EB940F27A4217A11CA06A
:10591000FAF730FD1E4F386B28B140F27B4213A1DD
:1059200017A0FAF727FD00F0ABF9FA68286881198B
:10593000904202D9884202D804E0884201D89142BC
:1059400000D9012429601CB1881A0021FEF75AFFF2
:1059500000F0A0FE002807D10E494FF080500860EB
:10596000BFF34F8FBFF36F8FBDE8F0812E2E5C46E3
:1059700072656552544F535C7461736B732E630090
:105980004572726F723A25732C25640D0A0000006F
:10599000A402002004ED00E070B50446FFF72AFEE3
:1059A000234D04B92C68201DFFF7E0FD58B9E06ACB
:1059B000204A00EB800152F8211021B901218140D9
:1059C000286988432861A06A18B104F11800FFF71C
:1059D000CDFD686A401C68622868844207D1211D99
:1059E0001548FFF7FBFD6868401C686007E0A86881
:1059F000401EA8602046FFF740F8FFF759FAFFF76E
:105A000035FE6869002812D0286884420FD1286BBF
:105A100028B140F2654209A10DA0FAF7ABFC10498C
:105A20004FF080500860BFF34F8FBFF36F8F70BD92
:105A3000A4020020880A0020440D00202E2E5C467F
:105A400072656552544F535C7461736B732E6300BF
:105A50004572726F723A25732C25640D0A0000009E
:105A600004ED00E001490120C8617047A402002054
:105A700070B50D46040005D140F6063207A10CA012
:105A8000FAF778FC0E48016820461831FFF78EFDC2
:105A90002846BDE870400121FEF7B4BE2E2E5C46BC
:105AA00072656552544F535C7461736B732E63005F
:105AB0004572726F723A25732C25640D0A0000003E
:105AC000A402002070B514460E46050005D140F62C
:105AD000313209A10DA0FAF74DFC104801682846A3
