:020000040800F2
:10000000E860002031030008491600089912000832
:1000100069150008D1090008F12900080000000056
:10002000000000000000000000000000790200084D
:10003000DB10000800000000CD0200081D210008B0
:100040004B0300084B0300084B0300084B03000858
:100050004B0300084B0300084B0300084B03000848
:100060004B0300084B0300084B0300084B03000838
:100070004B0300084B0300084B0300084B03000828
:100080004B0300084B0300084B0300080D0B00084E
:10009000D90A00084B0300084B030008DD100008D4
:1000A0004B0300084B0300084B0300084B030008F8
:1000B000C92300084B0300084B0300084B0300084A
:1000C0004B0300084B0300084B0300084B030008D8
:1000D0004B0300085D2700084B0300084B03000892
:1000E0004B0300084B0300084B0300084B030008B8
:1000F0004B0300084B0300084B0300084B030008A8
:100100004B0300084B0300084B0300084B03000897
:10011000B92600084B0300084B0300084B030008F6
:100120004B0300084B0300084B0300084B03000877
:100130004B0300084B0300084B030008490C000860
:10014000450C00084B0300084B0300084B03000854
:100150004B0300084B0300084B0300084B03000847
:100160004B0300084B0300084B0300084B03000837
:100170004B0300084B0300084B0300084B03000827
:100180004B0300084B03000800F002F800F064F88D
:100190000AA090E8000C82448344AAF10107DA45E2
:1001A00001D100F059F8AFF2090EBAE80F0013F0D0
:1001B000010F18BFFB1A43F0010318474466000003
:1001C000646600000A444FF0000C10F8013B13F085
:1001D000070408BF10F8014B1D1108BF10F8015BA0
:1001E000641E05D010F8016B641E01F8016BF9D193
:1001F00013F0080F1EBF10F8014BAD1C0C1B09D1EA
:100200006D1E58BF01F801CBFAD505E014F8016B5B
:1002100001F8016B6D1EF9D59142D6D370470000ED
:100220000023002400250026103A28BF78C1FBD8FF
:10023000520728BF30C148BF0B607047642900F0E7
:100240000381732900F04282002070471FB506F039
:100250003CFA1FBD10B510BD00F0AEFA1146FFF715
:10026000F5FF03F081FB00F0CCFA03B4FFF7F2FFD7
:1002700003BC03F021FA00002A4B19680868B0E8B3
:10028000F04F80F30988BFF36F8F4FF0000080F3C9
:10029000118870470000000006480068006880F37D
:1002A000088862B661B6BFF34F8FBFF36F8F00DF70
:1002B00000BF00BF08ED00E0DFF80C00016841F46A
:1002C00070010160704700BF88ED00E0EFF3098026
:1002D000BFF36F8F134B1A681EF0100F08BF20ED8D
:1002E000108A20E9F04F106008B44FF0500080F3FE
:1002F0001188BFF34F8FBFF36F8F04F0EDFD4FF008
:10030000000080F3118808BC19680868B0E8F04F55
:100310001EF0100F08BFB0EC108A80F30988BFF3FD
:100320006F8F704744020020EFF305807047000094
:100330000948804709480047FEE7FEE7FEE7FEE779
:10034000FEE7FEE7FEE7FEE7FEE7FEE704480549B5
:10035000054A064B7047000031210008890100085A
:10036000E85A0020E8600020E85C0020E85C0020FB
:10037000704700000FB4044910B503AA029800F0BA
:10038000A9F910BC5DF814FB400200202DE9F041F2
:100390000E460446002020622046E168884730B3BC
:1003A000252805D0D4E901219047206A401CF2E7B6
:1003B000E168204600278847050018D0A5F14100D4
:1003C000192802D820354FF40067324629462046C6
:1003D0002760FFF733FF40B1012804D0F61D26F057
:1003E00007060836D8E7361DD6E72846DAE7206A3A
:1003F000BDE8F08170B50C460546012A05D0287885
:10040000800600D5EA69002302E0012305E05B1CB9
:10041000934202D2E05C0028F9D1A869E618C01A1C
:10042000A861286A184428622846AFF3008004E0D7
:10043000D5E9012114F8010B9047B442F8D32846BE
:10044000AFF3008070BD00002DE9F04106460024A6
:1004500010687529314616A510D0AFF3008000282A
:1004600002DA404213A507E031688A0701D512A5D8
:1004700002E0490704D511A5012401E0AFF3008093
:1004800000210A2206F1240709E0B0FBF2FCB0FBD0
:10049000F2F302FB1C00303078541846491C002847
:1004A000F3D123462A463046BDE8F04100F08BB830
:1004B000000000002D0000002B00000020000000C4
:1004C000032A40F2308010F0030C00F0158011F880
:1004D000013BBCF1020F624498BF11F801CB00F858
:1004E000013B38BF11F8013BA2F1040298BF00F8AC
:1004F00001CB38BF00F8013B11F0030300F0FC8092
:10050000083AC0F0088051F8043B083A51F804CB8F
:10051000A0E80810F5E7121D5CBF51F8043B40F855
:10052000043BAFF30080D20724BF11F8013B11F860
:1005300001CB48BF11F8012B24BF00F8013B00F8A4
:1005400001CB48BF00F8012B704702F0FF0343EADC
:10055000032242EA024200F003B94FF0000200B564
:10056000134694469646203922BFA0E80C50A0E8D6
:100570000C50B1F12001BFF4F7AF090728BFA0E884
:100580000C5048BF0CC05DF804EB890028BF40F850
:10059000042B08BF704748BF20F8022B11F0804F92
:1005A00018BF00F8012B70477047704770477047BD
:1005B00010B500F0F5F8006810BD10B5044600F065
:1005C000EFF8046010BD2DE9F0470D4699469246BC
:1005D000044600F124080168880604D5E06921F08A
:1005E0001001216000E00120A84201DD471B00E06E
:1005F0000027A1697A1902EB0900081AA061207886
:10060000C00602D42046AFF30080002608E0D4E9FB
:1006100001211AF806009047206A401C761C2062CF
:100620004E45F4DB2078C0060AD52046AFF30080A3
:1006300006E0D4E9012130209047206A401C206266
:10064000381EA7F10107F4DC07E0D4E9012118F80E
:1006500005009047206A401C2062281EA5F1010574
:10066000F3DC2046AFF300802078000602D502209C
:10067000BDE8F0870120FBE701694A1C02610878A8
:10068000704700B58FB0CDE90131002105910549D2
:100690007944CDE9031011466846FFF777FE0FB0A5
:1006A00000BD0000E5FFFFFF10B5436913B1AFF3D4
:1006B000008001E0FFF79EFE012010BD127800F1DE
:1006C00024010A7000224A700122EDE711684FF000
:1006D000FF32E9E7074B70B50D467B44FFF7D1FFCA
:1006E0000446284600F060F810B14FF0FF3070BDAE
:1006F000204670BD6731000010B5203AC0F00B8075
:10070000B1E81850203AA0E81850B1E81850A0E815
:100710001850BFF4F5AF5FEA027C24BFB1E818506F
:10072000A0E8185044BF18C918C0BDE810405FEADF
:10073000827C24BF51F8043B40F8043B08BF70475B
:10074000D20728BF31F8023B48BF11F8012B28BF60
:1007500020F8023B48BF00F8012B70474FF0000221
:100760000429C0F0128010F0030C3FF4F8AECCF175
:10077000040CBCF1020F18BF00F8012BA8BF20F831
:10078000022BA1EB0C01FFF7EABE5FEAC17C24BF9C
:1007900000F8012B00F8012B48BF00F8012B70472F
:1007A00000487047845A0020007B00F080007047AA
:1007B00000487047845A00207546FFF7F9FFAE469F
:1007C00005006946534620F00700854618B020B55D
:1007D000FFF7BCFDBDE820404FF000064FF00007DA
:1007E0004FF000084FF0000B21F00701AC46ACE8D9
:1007F000C009ACE8C009ACE8C009ACE8C0098D4646
:1008000070470446AFF300802046FFF72EFD00003E
:10081000F0B5074687B00121042001F06FFB0121EC
:10082000C80401F077FB234E08220A21304600F06D
:1008300023FD08220B21304600F01EFD4FF44060DE
:10084000049002208DF814008DF8150000248DF816
:10085000164001258DF8175004A9304600F0D0FC51
:10086000ADF80440ADF80640ADF80840ADF80C40D6
:100870000C20114CADF80A0000976946204601F0A3
:10088000D5FF0121204601F08FFF34208DF818009C
:100890008DF8195003208DF81A008DF81B5006A80A
:1008A00000F0D4FE012240F22551204601F0A5FFC0
:1008B00007B0F0BD00080240004C004010B5114CDC
:1008C0002178491CC9B22170642916D290ED000A22
:1008D0000D4A10EE101ADFED0D0A914202DD30EEE6
:1008E000600A06E010EE101A094A914205D930EE6E
:1008F000200A80ED000AFFF7E1FF2078401E2070FB
:1009000010BD000064000020000034430000B44328
:10091000000034C32DED028B04F0C0FE1F4DDFED4F
:10092000208A204C9FED208A00266860207878B3CA
:10093000012804D002280FD0052829D116E095ED12
:10094000000A1A4B1A4A30EE280A1A490A2085ED85
:10095000000AF1EE0C0A15E095ED000A164B174A55
:1009600030EE280A164985ED000A08E095ED000AE8
:10097000144B154A30EE280A144985ED000A06206A
:10098000F2EE040A01F0B2F910B185ED008A26708A
:1009900002480A21001D04F0CDF8C7E7B802002084
:1009A0000AD7233C60000020000000009C060020C5
:1009B00004010020D0000020D00600205C010020AF
:1009C00038010020F4060020A4010020800100204E
:1009D000FEE7000070B501218AB0084601F08EFAEA
:1009E0000121480601F096FA394C09220B212046D4
:1009F00000F042FC09220C21204600F03DFC4FF49F
:100A0000C051089102218DF8241008A9204600F059
:100A1000F7FB304E304600F065F9684600F0F5FA15
:100A200000248DF806408DF8074008208DF8084016
:100A300001258DF802408DF8040003218DF809503E
:100A40008DF803408DF80A408DF80510ADF80010C0
:100A50008DF80B406946304600F01CFA8DF81640C0
:100A60008DF817408DF81850ADF80C40ADF81040D7
:100A7000ADF80E40ADF81240ADF814408DF81950A5
:100A800003A800F045F914208DF81C008DF81D50C6
:100A90008DF81E408DF81F5007A800F0D7FD1320D9
:100AA0008DF81C008DF81D508DF81E508DF81F50CC
:100AB00007A800F0CBFD01220221304600F0E2F948
:100AC00001221146304600F0DDF90AB070BD000089
:100AD000000002400064004010B50B4C88B00221B9
:100AE000204600F07BF900280BD06A460021204602
:100AF00000F044FA684602F0C9FE0221204600F0E8
:100B0000B5F808B010BD00000064004010B5074CF7
:100B10000121204600F062F9002805D02046BDE8FA
:100B20001040012100F0A2B810BD00000064004098
:100B30002DE9F0418AB00121022001F0DFF9012105
:100B4000880601F0E7F90121480601F0E3F93B4C82
:100B500009220C21204600F08FFB09220D2120469E
:100B600000F08AFB4FF44051022708918DF8247061
:100B700008A9204600F044FBDFF8C480404600F09E
:100B8000B1F8684600F041FA00248DF806408DF86F
:100B900007408DF80840012508208DF809508DF890
:100BA00002408DF8040003268DF80A408DF80340BA
:100BB0008DF80B408DF80560ADF800606946404641
:100BC00000F068F90E208DF816008DF817408DF8AA
:100BD0001850ADF80C40ADF81040ADF80E40ADF82F
:100BE0001240ADF814408DF8195003A800F090F8A9
:100BF00040208DF81C008DF81D508DF81E708DF86A
:100C00001F5007A800F022FD3F208DF81C008DF832
:100C10001D508DF81E608DF81F5007A800F016FDBE
:100C200001220221404600F02DF9012211464046E2
:100C300000F028F90AB0BDE8F0810000000402408D
:100C4000006800407047000010B5074C01212046A5
:100C500000F0C4F8002805D02046BDE8104001216E
:100C600000F004B810BD00000068004030B5082353
:100C700010240422B1F5007F1DD010DC202929D0DA
:100C800007DC012921D0042922D0082900D1C46021
:100C900030BD402920D0B1F5807FF9D10BE000258F
:100CA000B1F5004F06D008DCB1F5806F03D0B1F587
:100CB000006FEDD18561426030BDB1F5803F0DD050
:100CC000B1F5003FF8D1446030BD0549816030BDC9
:100CD000C36030BD036130BD046130BD436030BDD1
:100CE00001010100094910B588424FF0010101D10D
:100CF0004C0601E04FF08064204601F017F92046D1
:100D0000BDE81040002101F011B90000006400406E
:100D1000F0B5827A2F4D012191402A6842F00102FC
:100D20002A602C4E1C3632688A433260294A047B82
:100D3000294B0C32A4B914688C4314604488C788CA
:100D400044EA0744877A03EBC707C7F8404604889C
:100D5000878844EA0744877A03EBC707C7F8444605
:100D6000047B012C12D114680C431460847A02684D
:100D700003EBC4044FEA3242C4F84026847A426846
:100D800003EBC4034FEA3242C3F84426114AC37A44
:100D9000121D002B136806D00B4313600D4A038904
:100DA000143213B104E08B43F7E713688B431360ED
:100DB0000389012B02D113680B431360407B012888
:100DC00002D1306808433060286820F001002860B4
:100DD000F0BD0000006600400060004002460020B8
:100DE00053690B424AD0B1F5807F3BD013DC082910
:100DF0002ED007DC012926D0022927D004293DD195
:100E0000D0682BE0102925D0202926D0402935D1C3
:100E10001069102130E0B1F5004F2BD00BDCB1F59B
:100E2000007F22D0B1F5806F22D0B1F5006F25D1BF
:100E30009069702120E0B1F5803F11D0B1F5003FFD
:100E40001CD15068E5E790680D4915E0D06802E0D4
:100E5000D068DEE7106903210EE0106908210BE07D
:100E60005068FBE79069012106E09069022103E0E8
:100E7000906900E05068042100F029B97047000033
:100E800001010100002A426901D00A4300E08A43BF
:100E90004261704710B50368002223F0020303602B
:100EA000036843F0010303604FF6FF7300E0521C38
:100EB0004468E40701D19A42F9D14268D2073ED092
:100EC0008A79012A02683CD022F080020260CA7945
:100ED000012A026838D022F0400202600A7A012A10
:100EE000026834D022F0200202604A7A012A0268A5
:100EF00030D022F0100202608A7A012A02682CD0D7
:100F000022F008020260CA7A012A026828D022F080
:100F1000040202608A78CC78920742EA04620C7973
:100F200042EA04424C79098842EA0452491E0A43C3
:100F3000C261016821F001010160002114E000207C
:100F400010BD42F08002C1E742F04002C5E742F026
:100F50002002C9E742F01002CDE742F00802D1E7D3
:100F600042F00402D5E7491C4268D20701D09942F9
:100F7000F9D14068C007E2D1012010BD10B500EBE7
:100F80000113D3F8B04114F004041472D3F8B04143
:100F900033D0E4085460D3F8B04104F00204547232
:100FA000D3F8B44104F00F049472D3F8B441240A86
:100FB000D476D3F8B841D472D3F8B841240A147364
:100FC000D3F8B841240C5473D3F8B841240E947369
:100FD000D3F8BC41D473D3F8BC41240A1474D3F8B9
:100FE000BC41240C5474D3F8BC311B0E937439B13A
:100FF000016941F02001016110BD640D1460CAE770
:10100000C16841F02001C16010BD00218171C17132
:10101000017241728172C1728170C17003210171CC
:101020000221417101210180704730B50246002044
:1010300093685B0108D49068000101D5012003E0AA
:101040009068C00037D5022002EB0012D2F8803140
:1010500003F00103C2F880310B7A73B3D2F88041F8
:101060004D681C434B7A43EAC5031C43C2F88041D8
:101070008B7A03F00F038B72D2F8843123F00F03C5
:10108000C2F88431D2F884318C7A2343C2F8843197
:10109000CB7ACC6843EA0423C2F88831CB7B096958
:1010A00043EA0121C2F88C11D2F8801141F001010C
:1010B000C2F8801130BD042030BDD2F880314C7AA6
:1010C00023430C8843EA4453C2F88031D0E70246F8
:1010D00000200A4200D001207047704770B5802080
:1010E00000F04CF8E0B1204C4FF08040A169616104
:1010F000426AE06840F27123584302EB0010A0619D
:10110000A060401A80B2E08063780025012240F69A
:101110009801012B09D0884202D36270A570257016
:10112000BDE87040802000F023B8884202D3A5704B
:101130002270F5E7A0F2B63140F24C42914210D84D
:101140000A4AA17822F81100491CC8B2A0700828E8
:10115000E6D30649420001F11400FFF7B1F9A5708A
:10116000DEE76570DCE700003C000020580300204B
:101170000149086070470000143C0140034A0146E1
:10118000002012680A4200D001207047143C014040
:1011900030B51A4A8379016853B313688B431360DF
:1011A000111D0B680468A3430B60017911440B689F
:1011B000046823430B60114B083319680468A1438A
:1011C00019601C1D21680568A94321604179102917
:1011D00005D011440A68006802430A6030BD1968EE
:1011E000026811431960216800680143216030BD25
:1011F0000079104402688A43026030BD003C01401F
:10120000F0B5002201274FF0030C0B6807FA02F536
:101210002B40AB422CD1066853000CFA03F4A643D2
:1012200006600E79D0F800E09E4046EA0E060660A1
:101230000E79012E01D0022E12D18668A643866057
:101240004E79D0F808E09E4046EA0E068660466871
:10125000AE43466045688E799640B6B235434560E8
:10126000C568A543C560CC799C40C3681C43C46075
:10127000521C102AC9D3F0BD4B07DB0E9A40C90897
:1012800010B500EB8100016A0F249C40A14301626C
:10129000016A1143016210BDFEE700002DE9F04133
:1012A0000D4602EB820100EB800252002DED048B13
:1012B000B0EE409AA2EB4106002865D000EE105A2D
:1012C000364CB8EEC00AD4ED020A30EE800A10EEB9
:1012D000100A05F089F941EC100B01F035FDB0EE74
:1012E000408AF0EE608A304604F093FE0F4647ECE9
:1012F000120B064653EC182B51EC120B04F0B4FE03
:1013000041EC180B206805F06FF953EC182B05F031
:1013100081F804F01DFC00EE105AD4ED020A09EE2B
:10132000900AB8EEC00A30EE800A10EE100A05F0FE
:101330005BF941EC100B01F0A3FC47EC126B53EC92
:10134000102B51EC120B04F08FFE41EC180B60686F
:1013500005F04AF953EC182B04F02CFC04F0F8FBD0
:1013600000EE105A94ED021AF0EE491AB8EEC00AD7
:1013700000EE900A31EE001AB0EE690ABDEC048B63
:10138000BDE8F04102F082BB06489FED050A80ED02
:10139000050ABDEC048BBDE8F0810000D0020020FE
:1013A00000004843800300204FF4E130FFF730BADB
:1013B00030B59FED2D0A027B018862B3B0F902209F
:1013C000DFED2A0A002ADFED2A1A9FED2A1A9FED87
:1013D0002A2AC28940F6C21441F6FF731FDB9142EC
:1013E000A1EB020205D242F2E0451544A5420CD819
:1013F0001A4400EE102AB8EEC00AC0EE202A22EEEF
:10140000A10AC0EE010A20EE820AB5EEC00AF1EE92
:1014100010FA1EDC23E0C1810121017330BD91422D
:101420001FD95B1A03F2E1451544A5420CD81A44B2
:1014300000EE102AB8EEC00AC0EE202A22EEA10A61
:10144000C0EE010A20EE820AB5EEC00AF1EE10FAF3
:1014500005D2D0ED020A30EE800A80ED020AC18189
:1014600030BD8A1AE4E700000000000000F8FF45E4
:101470000000B4430070604500003B4310B5FFEE30
:10148000002A2DED048BF7EE000AB2EE040A9FED60
:10149000318ADFED318A3148B0EE482AF0EE481A41
:1014A000B0EE681A00F0A8FB2C48FFEE002AB0EE60
:1014B000482AF0EE481AB0EE681AF7EE000AB2EECB
:1014C000040A383000F098FB2448FFEE002AB0EE02
:1014D000482AF0EE481AB0EE681AF7EE000AB2EEAB
:1014E000040A703000F088FB9FED1D9A1B48B0EE97
:1014F000482AF0EE492AF0EE481AB0EE681AF7EEE4
:10150000000AB2EE040AB83000F076FBF0EE492A89
:10151000B0EE482AF0EE481AB0EE681AF7EE000A6C
:10152000B2EE040A0F4800F067FBF0EE492AB0EE75
:10153000482AF0EE481AB0EE681ABDEC048BF7EEBC
:10154000000AB2EE040A0748BDE81040503000F02F
:1015500053BB00000000804600000000D4030020C0
:10156000CDCCCCBDDC040020FEE7000010B5F7EECA
:10157000002A2DED028BF3EE041A9FED298ADFED90
:10158000298AF5EE000AB0EE482AB0EE681AB2EEEB
:10159000040A254800F030FB2348F7EE002AB0EE9D
:1015A000482ADFED221AB0EE681AF5EE000A9FED28
:1015B000200A383000F020FB1B48F7EE002AB0EE7E
:1015C000482ADFED1C1AB0EE681AF0EE040AB0EEFD
:1015D000480A383800F010FB1348FFEE002AB0EE3E
:1015E000482AF0EE481AB7EE001ADFED130AB7EEFC
:1015F000080A703000F000FBB0EE482ABDEC028B08
:10160000B7EE001A0848BDE81040DFED0C2ADFED08
:101610000C1ADFED0C0AB0EE000AA83000F0ECBAAC
:1016200000000000CDCCCC3DA40500200000A0426D
:1016300000003442000034436F12033B0000484274
:101640009A99193FCDCCCC3E7047000030B50F239E
:10165000C27801780125FAB1144A126801F1E0213B
:1016600002F4E062C2F5E062C2F30722C2F10404B0
:10167000D3404278A24084781C401443220181F870
:101680000024007800F01F018D404009800000F127
:10169000E020C0F8005130BD01F01F00854048092E
:1016A000800000F1E020C0F8805130BD0CED00E07A
:1016B0000249084302490860704700000000FA052B
:1016C0000CED00E00FB42DED040B70B52DED0C8B7F
:1016D000DDED141A31EEC00AFE4C84ED080A9DEDD2
:1016E000150A30EE600A84ED090ADDED160A70EE87
:1016F000C10AC4ED0C0ADFEDF80A61EE200A9FED85
:10170000F71A10EE100A80EE819A84ED0D9A04F01B
:101710006BFF41EC180B19EE100A04F065FF41EC69
:10172000100B01F011FB53EC182B51EC100B04F0D3
:101730009BFC41EC190B206A04F056FF41EC180B9E
:10174000606B04F051FF41EC100B01F099FA53EC7F
:10175000182B51EC100B04F087FC53EC192B04F000
:1017600029FA04F0F5F9A062206A04F03DFF41EC8B
:10177000180B606B04F038FF41EC100B01F0E4FA39
:1017800053EC182B51EC100B04F06EFC41EC190BD0
:10179000606A04F029FF41EC180B606B04F024FF31
:1017A00041EC100B01F06CFA53EC182B51EC100BC0
:1017B00004F05AFC53EC192B04F02CFE04F0C8F989
:1017C000E06294ED050AD4ED0C0A9DED191AF7EECE
:1017D00000DA60EE200A94ED060A40EE010A30EECF
:1017E0002D0A80EE801A84ED101A94ED020A30EE74
:1017F0002D0A10EE100A04F0F7FE41EC1B0B606B93
:1018000004F0F2FE41EC100B01F09EFAB0EE408ABB
:10181000F0EE608A94ED100AD4ED0A0A20EE200A58
:1018200010EE100A04F0E0FE53EC182B04F01CFC40
:1018300041EC1A0B606B04F0D7FE41EC100B01F089
:101840001FFAB0EE408AF0EE608A94ED100AD4EDF3
:101850000B0A20EE200A10EE100A04F0C5FE53EC2D
:10186000182B04F001FC41EC190B606B04F0BCFE7A
:1018700041EC100B01F068FA189DB0EE408AF0EED2
:10188000608A284604F0B0FE53EC182B04F0ECFB01
:1018900041EC180B606B04F0A7FE41EC100B01F05B
:1018A000EFF99DED17DAB0EE40CAF0EE60CA1DEE1A
:1018B000100A04F099FE53EC1C2B04F0D5FB53ECFA
:1018C000182B04F077F953EC192B04F073F953EC4F
:1018D0001A2B04F09FFD41EC180BA06804F084FE65
:1018E00053EC182B04F0C0FB94ED010AD4ED0A0A66
:1018F00041EC180B20EE200A10EE100A04F074FEE2
:1019000053EC182B04F056F953EC1B2B04F0FAF9A6
:1019100004F01EF9A06394ED040A30EE2D0A10EED7
:10192000100A04F061FE41EC1C0B606B04F05CFEDD
:1019300041EC100B01F0A4F9B0EE408AF0EE608AA1
:1019400094ED100AD4ED0A0A20EE200A10EE100AD7
:1019500004F04AFE53EC182B04F086FB41EC1B0B01
:10196000606B04F041FE41EC100B01F0EDF9B0EEBC
:10197000408AF0EE608A94ED100AD4ED0B0A20EE56
:10198000200A10EE100A04F02FFE53EC182B04F07E
:101990006BFB41EC1A0B606B04F026FE41EC100B64
:1019A00001F06EF9B0EE408AF0EE608A284604F04D
:1019B0001BFE53EC182B04F057FB41EC190B606B2A
:1019C00004F012FE41EC100B01F0BEF9B0EE408ABB
:1019D000B1EE4D0AF0EE608A10EE100A04F004FE3B
:1019E00053EC182B04F040FB53EC192B04F0E2F8F5
:1019F00053EC1A2B04F00EFD53EC1B2B04F00AFDE4
:101A000041EC180B206904F0EFFD53EC182B04F0A7
:101A10002BFBD4ED030A94ED0B0A41EC180B20EEDE
:101A2000800A10EE100A04F0DFFD53EC182B04F0CE
:101A3000C1F853EC1C2B04F065F904F089F8E0635D
:101A4000606B04F0D1FD41EC100B01F07DF9B0EEBC
:101A5000408AF0EE608AE06B04F0C6FD53EC182B70
:101A600004F002FB41EC190B606B04F0BDFD41EC8E
:101A7000100B01F005F9B0EE408AF0EE608AA06B21
:101A800004F0B2FD53EC182B04F0EEFA53EC192BD2
:101A900004F0C0FC04F05CF8114DE860606B04F0E9
:101AA000A3FD41EC100B01F0EBF8B0EE408AF0EE34
:101AB000608AE06B04F098FD53EC182B04F0D4FA24
:101AC00041EC190B606B04F08FFD41EC100B01F041
:101AD0003BF907E064000020DB0F4940000034437D
:101AE00080030020B0EE408AF0EE608AA06B04F024
:101AF0007BFD53EC182B04F0B7FA53EC192B04F0D0
:101B000059F804F025F8286194ED100AB1EE400A66
:101B100085ED050ABDEC0C8B70BC5DF824FBB4EEC2
:101B2000E00AF1EE10FA01DDB0EE600AF1EE600AB3
:101B3000B4EEE00AF1EE10FA01D2B0EE600A70479E
:101B400030EEC00A00B580ED050AD0ED040A70EE53
:101B5000600AC0ED060AD0ED010A20EE800AD0ED41
:101B6000080AFFF7DCFFD0ED000A90ED061AB0EE90
:101B7000002A00EE810AD0ED050A90ED031A70EEFE
:101B8000811A90ED041A41EE421A90ED022A02EEFB
:101B9000210AD0ED091A70EE211AC0ED091A90ED54
:101BA0000A0AF4EEC01AF1EE10FA01DD80ED090A1E
:101BB000D0ED091AB1EE400AF4EEC01AF1EE10FAB7
:101BC00001D280ED090AF5EEC00A80ED031AF1EEAC
:101BD00010FAC0ED040A01DCF1EE600A90ED0D0A86
:101BE000F4EEC00AF1EE10FA03D29FED020A80ED86
:101BF000090A00BD0000000080ED082AC0ED0A1AA5
:101C0000012180EC030A9FED0A0A80ED0B0A80EDAA
:101C1000030A80ED040A80ED090A80ED070A80EDD1
:101C2000050A80ED060A80F83010C0ED0D2A7047D5
:101C30000000000000B590F83010012906D180EDB9
:101C4000040A80ED030A002180F8301080ED050AB7
:101C5000D0ED070A70EE800AC0ED070A90ED041A75
:101C600030EE410A80ED060A90ED010A20EE200ACE
:101C7000D0ED080AFFF753FF90ED001AD0ED050AEA
:101C8000D0ED061A01EE200A90ED021A01EE210AAB
:101C900080ED090A90ED0A1AB4EEC10AF1EE10FACD
:101CA00001DD80ED091AD0ED091AB1EE410AF4EE1A
:101CB000C01AF1EE10FA01D280ED090AF5EEC00A61
:101CC000C0ED040AF1EE10FA01DCF1EE600A90EDCD
:101CD0000D0AF4EEC00AF1EE10FA03D29FED020AEB
:101CE00080ED090A00BD00000000000070B5F7EEAD
:101CF000003A2DED048BF0EE408A00EE100AB0EEB3
:101D0000608AB1EE082AB8EEC00AF0EE082A764DD5
:101D100082B068EE800A754E80EE880ABDEEC00A79
:101D200010EE104A6C6400EE104AB8EEC00A60EE85
:101D3000080A00EE100AB8EEC01A80EE810A00EE22
:101D4000900A01EB8400F8EEE00A38EEC00A20EEBB
:101D5000200A80EE081A85ED121A33EEC10A21EE30
:101D6000023A60EE000A20EE800AC0EE021A21EE6E
:101D7000220A60EE010A60EE810A43EE410AB1EEEA
:101D8000003AC5ED131A30EE833AC3EE020AB8EEFC
:101D9000083A21EE033A23EE013A23EE013A00EE2F
:101DA000013AC5ED140A01EE223A73EE232A82EEBF
:101DB000820A61EE012A62EE812A82EE821A85EDA4
:101DC000150A85ED161A90ED002A62EE212A90ED93
:101DD000012A42EE202A90ED022A42EE002A90EDDE
:101DE000032A02EB840042EE012AC6ED002A90EDA0
:101DF000002A90ED013A22EE212A03EE202A90EDEE
:101E0000023A03EE002A90ED033A03EE012A03EBB7
:101E100084009FED379A86ED012A90ED003A63EE3B
:101E2000211A90ED013A43EE201AD0ED020A40EE5D
:101E3000801A90ED030A40EE011AC6ED021AE86915
:101E400060B183EEA80A86ED039A86ED049A86EDCA
:101E5000059A0020E86185ED1A0A19E095ED170A48
:101E600072EEC00A95ED1A0A60EE800AC6ED030A0A
:101E7000D5ED180A72EE600A60EE800AC6ED040A1B
:101E8000D5ED190A71EEE00A20EE800A86ED050A0A
:101E900016481838D0E90A12CDE900121549183051
:101EA00091EC030A0FC8FFF70DFC96ED000AF4EE63
:101EB000C88A85ED170A96ED010A85ED180A96ED98
:101EC000020AF1EE10FA85ED190A0ADD0A4880EDE2
:101ED000039A80ED049A0120E86102B0BDEC048B06
:101EE00070BD0020F9E70000640000208406002097
:101EF00000000000D002002080030020044A0029D6
:101F0000116801D0014300E0814311607047000077
:101F100030380240044A0029116801D0014300E032
:101F2000814311607047000040380240044A002994
:101F3000116801D0014300E0814311607047000047
:101F400020380240044A0029116801D0014300E012
:101F500081431160704700004438024070B5204B47
:101F60001968204C11F00C0104D06610042903D02C
:101F7000082903D004601BE0066019E0184A121F0C
:101F80001168C1F38055116801F03F0115B1B6FB2E
:101F9000F1F101E0B4FBF1F114681268C4F38814A4
:101FA0006143C2F30142521C5200B1FBF2F10160E5
:101FB00019680F2202EA11110B4A545C0168E140D2
:101FC00041601C68072505EA9424145D21FA04F495
:101FD00084601B6805EA5333D25CD140C16070BD98
:101FE000083802400024F400C00200202DED028BCE
:101FF0009FED088A084D094CB0EE480A6422296812
:102000002068FFF74BF901F0EBFC052002F05CFDC6
:10201000F2E7000000004843D8010020D40100206E
:1020200010B58A0721F003040849120F21440F2339
:10203000D1F8084893409C43C1F80848D1F80838C3
:1020400090400343C1F8083810BD00000030014043
:102050000CB50022274900920192086840F48030B4
:1020600008604FF4A043086800F400300190009825
:10207000401C0090019810B900989842F3D108686C
:10208000800334D5012001901A484030026842F0A4
:10209000805202601848026842F4404202601548CB
:1020A000083002680260026842F40042026002687E
:1020B00042F4A0520260031F104A1A600A6842F0FC
:1020C00080720A600A689201FCD50D4940F20572DF
:1020D0000A60016821F003010160016841F002011A
:1020E00001600168C1F381010229FAD10CBD01929E
:1020F0000CBD00000038024000700040085440074A
:10210000003C02404FF0E0210428086903D020F091
:1021100004000861704740F00400FAE710B503F0CE
:10212000AFFA012803D0BDE8104002F09DBF10BDFA
:10213000124810B5016841F470010160104801684F
:1021400041F0010101600E4A00210832116002686D
:102150000C4B1A400260031D0B4A1A60026822F4FD
:102160008022026006480C300160FFF771FF0349CE
:102170004FF000608039086010BD000088ED00E07D
:1021800000380240FFFFF6FE103000242DE9F04336
:102190008846814601218BB04804FFF7D3FE012118
:1021A0002020FFF7ABFE1F4F032206213846FFF722
:1021B00063F84020022500908DF8045003208DF82C
:1021C000050000248DF8064001268DF80760694659
:1021D0003846FFF715F8ADF80880ADF80A40ADF8BD
:1021E0001040114CCDF80C9002A9204600F0D4F913
:1021F0007020ADF81400ADF81660ADF8205005A9B8
:10220000204600F091F90821204600F0BDF9012197
:10221000204600F05DF90121204600F066F90BB080
:10222000BDE8F08300140240004401402DE9F04372
:10223000884681468BB001218020FFF76BFE01218B
:102240002020FFF75BFE1F4F092208213846FFF7C9
:1022500013F8B815022500908DF8045003208DF86E
:10226000050000248DF8064001268DF807606946B8
:102270003846FEF7C5FFADF80880ADF80A40ADF866
:102280001040114CCDF80C9002A9204600F084F9C2
:102290007020ADF81400ADF81660ADF8205005A917
:1022A000204600F041F90821204600F06DF9012197
:1022B000204600F00DF90121204600F016F90BB080
:1022C000BDE8F08300140240001C00402DE9F043FB
:1022D0008846814601218BB00802FFF71BFE0121D1
:1022E0002020FFF70BFE1F4F092211463846FEF74C
:1022F000C3FF7815022500908DF8045003208DF857
:10230000050000248DF8064001268DF80760694617
:102310003846FEF775FFADF80880ADF80A40ADF815
:102320001040114CCDF80C9002A9204600F034F971
:102330007020ADF81400ADF81660ADF8205005A976
:10234000204600F0F1F80821204600F01DF9012197
:10235000204600F0BDF80121204600F0C6F80BB081
:10236000BDE8F08300140240002000401FB50121A9
:102370000846FFF7CFFD42F2107001905320ADF8F0
:1023800000000020ADF80200ADF808004FF08044D6
:102390006946204600F000F901221146204600F06F
:1023A000BAF80121204600F0A0F81C208DF80C009E
:1023B00001208DF80D0003218DF80E108DF80F000F
:1023C00003A8FFF743F91FBD10B501218C07204674
:1023D00000F095F8002827D0144901F11C03CA68C1
:1023E0000A61521CCA608888401C82B28A80642AB2
:1023F00012D300228A805888401C80B258803C2822
:102400000AD35A809888401C80B298803C2803D315
:102410009A80D888401CD880888818802046BDE8DB
:102420001040012100F05EB810BD00003C0000200B
:102430002DE9F0438846814601218BB00804FFF75F
:1024400081FD01210846FFF759FD1F4F032202219C
:102450003846FEF711FF0420022500908DF8045045
:1024600003208DF8050000248DF8064001268DF824
:10247000076069463846FEF7C3FEADF80880ADF840
:102480000A40ADF81040114CCDF80C9002A920463E
:1024900000F082F87020ADF81400ADF81660ADF8C9
:1024A000205005A9204600F03FF80821204600F002
:1024B0006BF80121204600F00BF80121204600F0C6
:1024C00014F80BB0BDE8F08300000240004001406A
:1024D0000029018802D041F0800101E021F0800153
:1024E00001807047C943018270470029018802D0EA
:1024F00041F0010101E021F0010101807047024635
:102500000020138A92890B4202EA010202D0002ABB
:1025100000D001207047002A828901D00A4300E0E0
:102520008A4382817047000030B5028C22F001029C
:102530000284028C8388048B22F0020224F073054B
:102540000C882C438D8915434A882A430C4DA84298
:1025500002D00C4DA8420DD122F00805CA8923F4FF
:1025600040732A4322F004058A882A430D8A1D43BA
:102570004B8A2B438380048389684163028430BD86
:102580000000014000040140028B22F008020A43CF
:10259000028370474163704730B50288164C174D6F
:1025A000A0420DD0A8420BD0B0F1804F08D0144B00
:1025B000984205D0134B984202D0134B984203D156
:1025C00022F070034A881A43104B984206D0104BF1
:1025D000984203D022F440730A891A4302804A6861
:1025E000C2620A880285A04201D0A84201D1897A3C
:1025F00001860121818230BD0000014000040140BC
:102600000004004000080040000C004000100040A2
:10261000001400402DE9F04144F61F645321204688
:10262000FFF754FE53212046FFF700FEA721204666
:10263000FFF7ACFDA7212046FFF7FAFE1A4D4FF435
:10264000FA6421462846FFF7A5FF184E214630467A
:10265000FFF7A0FFDFF8588021464046FFF79AFFBA
:10266000144F21463846FFF795FF6410204601F0CD
:10267000A7F8204601F0A4F821463046FFF78AFF6C
:1026800021462846FFF786FF21464046FFF782FF96
:1026900021463846FFF77EFF204601F091F820469C
:1026A000BDE8F04101F08CB800200040001C004063
:1026B00000400140004401402DE9F041234801253C
:1026C000234E40F2255705603946304600F076F833
:1026D000012839D1304600F0FFF81E49C0B200246D
:1026E00008704A78052A1DD2DFE802F003070F1AA6
:1026F00021000D2822D14D7020E00A2802D00D289B
:102700001CD00FE08C7002200FE0134B8A78985495
:10271000521CD0B28870182810D38C70032004E0AB
:102720000A2801D04C7009E00420487006E00D46EC
:102730000D2802D1084800F0D3F86C7039463046B5
:10274000BDE8F04100F02AB8BDE8F08100000020AB
:10275000004C0040280000200C0300203EB50D4D29
:1027600040F225542146284600F028F800280FD0D2
:102770002146284600F012F8074A02F12001081FFE
:102780008DE80700031F14321039103801F054FF90
:102790003EBD000000100140C80100200A0A0121CE
:1027A0009140C943018070470029818902D041F4DA
:1027B000005101E021F400518181704770B501F0B2
:1027C0001F0501260024C1F3421306FA05F2012B6E
:1027D0000FD0022B0FD0838A4FEA112100881342B9
:1027E00006FA01F600EA060001D000B101242046F5
:1027F00070BD8389F0E7038AEEE710B5C1F3421399
:1028000001F01F040121A140012B07D0022B07D0AA
:102810001430002A026805D00A4304E00C30F8E7BF
:102820001030F6E78A43026010BD00007FB5044611
:10283000008A0D46C98820F4405001432182A089B6
:1028400041F20C618843A9882A8911436A890243AD
:102850001143A181A08A20F44071A8890843A08275
:102860006846FFF77BFB1A48844202D0194884422D
:1028700001D1039800E00298A189090400EBC0018E
:1028800001EB0010296801D5490000E08900B0FB88
:10289000F1F06422B0FBF2F109010B096FF01805A9
:1028A0006B4300EB8300A3891D044FF0320306D570
:1028B00003EBC000B0FBF2F000F0070005E003EB13
:1028C0000010B0FBF2F000F00F00084320817FBD44
:1028D00000100140001401408088C0F308007047D8
:1028E00070B53D4C2DED048BA4F10C05D4ED031A0D
:1028F0009FED3B9AC4ED061A94ED040ADFED399A78
:1029000084ED070A90ED001A84ED001AD0ED010A5B
:10291000C4ED010AD0ED020AC4ED020AD0ED030AAB
:10292000C4ED030A90ED042A70EEE10A84ED042A56
:10293000D0ED052A04F14800C4ED052A32EE400A24
:10294000C0ED052AC4ED080A84ED090AD4ED0A1A7F
:10295000224871EEA00AC4ED0A0AD4ED0B0A30EE4B
:10296000800A84ED0B0A90ED010A31EE400A85EDF4
:10297000020A60EE090A80EEA90A10EE100A03F0BE
:1029800033FE41EC100B00F0DFF9E06803F02CFEA1
:102990009FED158B53EC182B03F00CF903F0D8F8CE
:1029A000286095ED020A60EE090A80EEA90A10EE91
:1029B000100A03F019FE41EC100B00F061F92069D8
:1029C00003F012FE53EC182B03F024FD03F0C0F8C3
:1029D0006860BDEC048B70BDDC0200202800002084
:1029E000DB0F4940000034430000000000000000FD
:1029F000FEE7000010B52DED0E8BF0EE40DAB0EEE4
:102A000060DA9FED6C0A21EE800ADFED6B0A80EE42
:102A1000208A9FED6A0A61EE008A18EE900A03F0A0
:102A2000E3FD41EC1B0B1DEE100A03F0DDFD41EC54
:102A3000190B18EE100A03F0D7FD41EC100B00F053
:102A400083F953EC192B51EC100B03F00DFB41EC07
:102A50001A0B1DEE900A03F0C7FD41EC190B18EE9E
:102A6000100A03F0C1FD41EC100B00F009F951EC24
:102A7000100B03F061F853EC192B03F0F5FA53EC4B
:102A80001A2B03F0C7FC53EC1B2B03F093F89FEDBC
:102A90004C9B53EC192B03F035F903F059F84A4CD1
:102AA000206018EE900A03F09FFD41EC1B0B1DEE19
:102AB000100A03F099FD41EC1A0B9FED440A38EE21
:102AC00000EA1EEE100A03F08FFD41EC100B00F03F
:102AD000D7F853EC1A2B51EC100B03F0C5FA41EC6C
:102AE0001C0B1DEE900A03F07FFD41EC1A0B1EEE4D
:102AF000100A03F079FD41EC100B00F025F953ECBE
:102B00001A2B51EC100B03F0AFFA53EC1C2B03F013
:102B100081FC53EC1B2B03F04DF853EC192B03F005
:102B2000F1F803F015F8606018EE900A03F05CFD10
:102B300041EC1A0B1DEE100A03F056FD9FED240A1E
:102B400041EC1B0B38EE00CA1CEE100A03F04CFDE2
:102B500041EC100B00F0F8F853EC1B2B51EC100B70
:102B600003F082FA41EC180B1DEE900A03F03CFDD5
:102B700041EC1B0B1CEE100A03F036FD41EC100B70
:102B800000F07EF853EC1B2B51EC100B03F06CFAA9
:102B900053EC182B03F00EF853EC1A2B03F00AF841
:102BA00053EC192B03F0AEF802F0D2FFA060BDEC9D
:102BB0000E8B10BDDB0F4940000034433BDFCF3E9E
:102BC000000000C0B88FCE3F98030020920A063F55
:102BD000920A863F1A4808B5D0ED020A60EE801AC4
:102BE00030EE601AF5EEC01AF1EE10FA14DAF5EED6
:102BF000C00AF1EE10FA01DCF1EE600AB5EEC00A8F
:102C0000F1EE10FA01DCB1EE400A0E4930EE800A16
:102C100010EE100A884202DC8DED001A02E06846D0
:102C2000FDF74CFE9DED000A0748FFF703F8064844
:102C300090ED090A0548B1EE400A80ED050A08BD8D
:102C4000D0020020000034436C05002080030020E7
:102C500003B401984100009850EAC12018BF042035
:102C60004A0D18BF40F0010040F2FF72B2EB515F15
:102C700008BF40F00200012808BF052002B07047DD
:102C800010B52F499FED2C1B2DED020B84B005983C
:102C900020F000408842D8BF9DED040B2DDD29496E
:102CA000884209D1049840B94FF00100FDF785FC36
:102CB00000F0E2FC06B010BD05DB9DED040B00F05A
:102CC000CFFC06B010BD68469DED040B00F0E0F8A7
:102CD00010F0030004BF9DED021B9DED000B0CD016
:102CE00001280ED09DED021B9DED000B022817D090
:102CF000012000F01DFC06B010BD00F0E5FA06B0A2
:102D000010BD9DED021B9DED000B012000F010FC9D
:102D100051EC100B02F010FF06B041EC100B10BD8F
:102D200000F0D2FA51EC100B02F006FF06B041ECB5
:102D3000100B10BD000000000000000000000000AB
:102D4000FB21E93F0000F07F10B52F499FED2C1BC0
:102D50002DED020B84B0059820F000408842DCBFC6
:102D600000209DED040B32DD2849884209D10498EA
:102D700040B94FF00100FDF720FC00F07DFC06B0EB
:102D800010BD05DB9DED040B00F06AFC06B010BD24
:102D900068469DED040B00F07BF810F0030011D0A5
:102DA000012818D09DED021B9DED000B02281AD0C2
:102DB00000F08AFA51EC100B02F0BEFE06B041ECB6
:102DC000100B10BD9DED021B9DED000B012000F0CE
:102DD000AFFB06B010BD9DED021B9DED000B00F09A
:102DE00073FA06B010BD012000F0A2FB51EC100BED
:102DF00002F0A2FE06B041EC100B10BD0000000076
:102E00000000000000000000FB21E93F0000F07F0F
:102E100000B52DED048BB0EE409AF0EE609A83B0D1
:102E200051EC190B03F02AFA41EC180B18EE100ABA
:102E300018EE901A8DED008B002818BF0120084372
:102E400020F00040C0F17F6000F1E040C00F14D0DE
:102E500019EE101A19EE900A8DED009B002918BF8B
:102E60000121084320F00040C0F17F6000F1E04004
:102E7000C00F04BF0120FDF7A0FBB0EE480A03B06D
:102E8000F0EE680ABDEC048B00BD000000000000FD
:102E90002DE9F14F04462DED020B2DED088B8AB084
:102EA0009FEDE70B80ED020B139EE74826F00045EF
:102EB00085420ADC9DED120B002084ED000B0AB068
:102EC000BDEC088B03B0BDE8F08FE0489FEDE0ABB0
:102ED0009FEDE1BBA84247DDE14F9FEDE39B9FEDF6
:102EE000E48B9DED120B53EC1A2B51EC100B002EC2
:102EF0001CDD03F08FFA41EC100BBD4208D053ECFF
:102F00001B2B51EC100B03F085FAC4E900010BE018
:102F100053EC192B51EC100B03F07CFA53EC182BEB
:102F200003F078FAC4E900010120C8E702F042FE8C
:102F300041EC100BBD4208D053EC1B2B51EC100B95
:102F400002F038FEC4E900010BE053EC192B51EC00
:102F5000100B02F02FFE53EC182B02F02BFEC4E9ED
:102F600000014FF0FF30AAE7C348A84279DB9DED8E
:102F7000120B51EC100B00F059FC41EC180B9FEDBB
:102F8000C00B53EC102B03F06FF89FEDBF1B53ECFD
:102F9000112B02F00FFE03F00DF8074603F039F88D
:102FA00041EC190B53EC1A2B03F05EF853EC182B81
:102FB00003F058F941EC180B53EC1B2B51EC190B97
:102FC00003F052F8DFF8C8A241EC100B4FEA155895
:102FD0000125FA4453EC102B51EC180B03F01AFAAC
:102FE000032DC4E900013DD0C1F30A5005EB4511A2
:102FF000A8EB00001139814234DA0AEB051BB0EE70
:1030000048AA9BED000BF0EE68AA53EC102B51EC94
:10301000190B03F029F841EC1B0B51EC1A0B53EC84
:103020001B2B03F0F7F941EC180B51EC1A0B53EC86
:10303000182B03F0EFF953EC1B2B03F0EBF99BED8E
:10304000020B41EC1A0B53EC102B51EC190B03F053
:103050000BF853EC1A2B03F0DDF941EC100B6D1C4F
:10306000B8E70EE0002EA8BF3846BFF628AF94EDB3
:10307000000B51EC100B02F05FFDC4E90001784237
:103080001DE7C6F3130040F4801EC6F30A50A0F2F9
:10309000F530471100F01F05C5F12000DDF848B0FC
:1030A00008900020069007900520EC467949002DF5
:1030B00007EB0002794408BF51F8221009D051F8FB
:1030C000223001EB8201AB404A68089922FA01F1F3
:1030D0001943A1FB0E26A1FB0B131A449A4234BFDD
:1030E0000123002303EB06080CEB8003D3E901A6C0
:1030F0000E448E4234BF0121002192448A4411B112
:10310000924502D903E0924501D2012100E000215D
:10311000C3E901A641444CF82010011EA0F10100B2
:10312000C4DC029800F10050850F0298DDE90367C6
:103130008000DDF8148002F06CFF41EC1A0B304681
:1031400002F07EFF9FED541B53EC112B02F08CFF1D
:1031500041EC1B0B384602F073FF9FED511B53EC03
:10316000112B02F081FF41EC180B404602F068FF82
:103170009FED4D1B53EC112B02F076FF41EC190B28
:1031800051EC180B53EC192B02F014FD53EC1B2BD4
:1031900002F010FD53EC1A2B02F00CFDCDE90801F2
:1031A000002008909DED080B53EC1A2B51EC100BEE
:1031B00003F030F953EC1B2B03F02CF953EC182BD4
:1031C00003F028F953EC192B03F04CF89FED381B52
:1031D00053EC112B02F048FF9FED370B41EC180B1D
:1031E00053EC102B9DED080B51EC100B02F03CFF43
:1031F00053EC182B02F0DEFC9FED310B41EC180B69
:1032000053EC102B9DED080B51EC100B02F02CFF32
:1032100053EC182B02F0CEFC41EC100B139810F07D
:10322000004F06D06D4251EC100B02F085FC41ECD2
:10323000100B284684ED000B41E600000000000062
:103240000000000000000000FB21E93F7CD90240A3
:1032500000004054FB21F93F3163621A61B4D03D54
:10326000FB21F93F000000000000601A61B4D03D6E
:103270007370032E8A19A33BFB2139410000000023
:1032800083C8C96D305FE43F000000000000E03FEC
:103290003A37000088360000000000000000103EB1
:1032A000000000000000103C000000000000103A88
:1032B000182D4454FB21F93D3326A611460B113C31
:1032C00000000054FB21F93D10B52DED040B2DED50
:1032D000088B82B0B0EE419AF0EE619A0B9820F024
:1032E00000449FED4BABB4F1795F11DA9DED0A0B11
:1032F00051EC100B02F05EFE002801BFB0EE4A0A4E
:10330000F0EE6A0A02B0BDEC088B04BF04B010BD39
:103310009DED0A0B53EC102B51EC100B02F0A4FEA8
:1033200041EC180B3C480621B0EE480AF0EE680A62
:10333000784400F081F853EC182B51EC100B02F09C
:1033400093FE9DED0A0B41EC1B0B53EC192B51EC3A
:10335000100B02F089FE41EC190B53EC1B2B51ECC6
:10336000180B02F081FE53EC192B03F053F89FED7C
:103370002C0B41EC190B53EC102B51EC180B02F0F9
:1033800073FE41EC100B2848844210DA53EC192BE1
:1033900051EC100B03F03EF853EC1A2B02F062FFD5
:1033A00041EC100B02B0BDEC088B04B010BD1F48FF
:1033B000A042BCBF9FED1E1B8DED001B06DBA4F5DC
:1033C00000100190002000909DED001B51EC100BAF
:1033D00053EC112B03F01EF89DED000B41EC180B84
:1033E00053EC102B51EC1A0B03F014F841EC1A0BB0
:1033F00053EC192B51EC180B03F00CF853EC1A2B6F
:1034000002F030FF41EC100BCCE7000000000000A0
:10341000000000000000F03FAC330000000000009E
:10342000000000000000E03F3333D33F0000E93FDD
:10343000000000000000D23F70B504462DED028B65
:103440004D1E00EBC500B0EE408AF0EE608A90EDB4
:10345000000B35F0060017D053EC182B51EC100B75
:1034600002F002FE41EC100B6D1E04EBC50090ED66
:10347000001B51EC100B53EC112B02F09BFB41ECA9
:10348000100B35F00600E7D1022D36D0042D1CD0EC
:10349000062D1CBFBDEC028B70BD53EC182B51ECFC
:1034A000100B02F0E1FD94ED0A1B53EC112B02F01E
:1034B00081FB53EC182B02F0D7FD94ED081B53EC65
:1034C000112B02F077FB41EC100B53EC182B51EC55
:1034D000100B02F0C9FD94ED061B53EC112B02F00A
:1034E00069FB53EC182B02F0BFFD94ED040B53EC79
:1034F000102B02F05FFB41EC100B53EC182B51EC3E
:10350000100B02F0B1FD94ED021B53EC112B02F0F5
:1035100051FB53EC182B02F0A7FD94ED001B53EC6C
:10352000112B02F047FBBDEC028B41EC100B70BD80
:1035300031B504462DED040B2DED0A8BB0EE41BAEA
:10354000F0EE61BA0B989DED0A0B20F00040B0F14F
:10355000795F0DDA51EC100BFFF77AFB042808BFF6
:1035600000F09AF89DED0A0BBDEC0A8B05B030BD5A
:1035700053EC102B51EC100B02F076FD41EC180BC4
:103580009DED0A0B53EC182B51EC100B02F06CFD67
:1035900041EC190B2C48B0EE480AF0EE680A052100
:1035A0007844FFF749FF9FED2ACBB0EE40AAF0EE3A
:1035B00060AA9CB353EC1C2B51EC190B02F054FD88
:1035C00041EC1C0B53EC1A2B51EC190B02F04CFD87
:1035D0009FED210B41EC190B53EC102B51EC1B0B05
:1035E00002F042FD53EC192B02F014FF53EC182BA0
:1035F00002F03AFD53EC1B2B02F00CFF53EC1C2B9A
:1036000002F008FF9DED0A1B53EC112B02F02AFE7D
:10361000BDEC0A8B05B041EC100B30BDFFE753EC5D
:103620001A2B51EC180B02F01FFD53EC1C2B02F06F
:10363000C1FA53EC192B02F017FD9DED0A1B53EC58
:10364000112B02F0B7FAE3E734320000000000006B
:10365000495555555555C5BF000000000000E03FD5
:1036600010B553EC102B51EC100B02F0A3FA41EC07
:10367000100B10BD000000009FED050B10B553ECC2
:10368000102B51EC100B02F03DFB41EC100B10BD68
:1036900000000000000000009FED050B10B553EC8A
:1036A000102B51EC100B02F0DFFC41EC100B10BDA5
:1036B00000000000000000107047000030B585B029
:1036C00001212020FEF71AFC01218803FEF73AFCB5
:1036D00007210520FEF7A4FC00248DF810400220ED
:1036E0008DF8130003A90F48FDF78AFD80200125FE
:1036F00000908DF806508DF8044008208DF80500E4
:103700006846FDF745FD17208DF808008DF8094043
:103710008DF80A408DF80B5002A8FDF797FF05B011
:1037200030BD00000014024000B587B000208DF8C5
:1037300008008DF8090006208DF80A0010494FF4A2
:1037400000700090C8888DF80C00020A8DF80B20DC
:10375000C88A020A8DF80D208DF80E00C88C8DF8ED
:103760001000020A8DF80F20C88E010A8DF8111082
:103770008DF8120069460348FDF757FC07B000BDFD
:10378000A40300200064004010B504460420FEF7A6
:10379000B9FC0A484FF47A71047014FB01F101225C
:1037A00042804FF0E020026942F002020261416172
:1037B000016941F00101016110BD000038020020E3
:1037C00070B5044601F05CFF01280CD0094D6888F3
:1037D000844203D3B4FBF0F001F076F96888B4FBBF
:1037E000F0F100FB11444FF47A706043BDE8704083
:1037F00000F002B83802002070B54FF0E02500213B
:103800006C69094AAB6912785043AA699A42FCD0A4
:1038100002D2A3EB020302E0A4EB020633441944F4
:1038200013468142F1D370BD3802002082B0CDE949
:10383000000121F0004001909DED000B02B051EC21
:10384000100B704704490A885206FCD5024AC1B2DF
:10385000121D1180704700000044004030B503463F
:1038600000208C240DE013F8012B50400022C507E6
:1038700002D084EA500000E04008521CD2B2082A6C
:10388000F5D3491E89B2EED230BD0000026834493A
:10389000A2F20122072A62D2DFE802F004101D2AF8
:1038A0003745520030F80B2F52BA0A80428852BA7C
:1038B0004A80808840BA888029484EE030F80B2F33
:1038C00052BA0A82428852BA4A82808840BA8882B2
:1038D0002348103041E030F80B2F52BA0A84428856
:1038E00052BA4A84808840BA88841D48203034E027
:1038F00030F80B2F52BA0A86428852BA4A8680881C
:1039000040BA88861648303027E030F80B1F4ABA94
:103910001349D8310A80428852BA4A80808840BA16
:103920008880084619E030F80B1F4ABA0D490A8012
:10393000428852BA4A80808840BA888008460CE0A3
:1039400030F80B1F4ABA074950310A80428852BAF0
:103950004A80808840BA88800846FDF729BD7047B4
:10396000A4030020CC0400201CB54FF44070FDF7E8
:103970009FFEA820FFF708FFFDF7F8FDFDF72AF8E6
:10398000FDF7D6F8FDF77AFDFEF744FE4FF4FA7422
:103990002046FFF715FFFFF791FE4FF4E13000F0EE
:1039A000F5FDFEF7E3FCFDF7FFFC2046FFF708FFFF
:1039B00006490120CDE900010023802204A1074827
:1039C00001F032FE01F036FA00201CBD0400002098
:1039D00073746172745F7461736B0000F944000862
:1039E00070B52448D0ED021A234890EC030AFFF783
:1039F00001F8224C204DB4F902000C3500EE100AFB
:103A0000D5ED000A1E48B8EEC00AFEF799F8B4F9E1
:103A10001200D5ED010A00EE100A1948B8EEC00AEE
:103A20003830FEF78DF8B4F92200D5ED020A00EE29
:103A3000100A1348B8EEC00A7030FEF781F810483B
:103A400090ED090ABDEEC00A10EE101AE18090ED6B
:103A5000170ABDEEC00A10EE101AE18290ED250A99
:103A6000BDEEC00A10EE100AE084BDE87040FFF71A
:103A70005BBE0000D00200208C030020A4030020C5
:103A8000D4030020052001F01FF8FBE770B52DEDF1
:103A9000048BF0EE409AB0EE618AB0EE609AB0EE20
:103AA000410AFFF797F8224D95ED000A30EE690ABA
:103AB00060EE000A95ED010A30EE490A40EE000A78
:103AC00010EE900A02F090FD41EC100BFFF7A0F908
:103AD00051EC100B02F03CF808EE900AB5EEC08AEB
:103AE000F1EE10FA01DCB1EE488A124CB0EE680A31
:103AF000204684ED0A8AFEF79DF8D5ED000A94ED84
:103B0000090A0D4870EEE90A60EE600A80EEA81A14
:103B100080ED031AD5ED010A70EEC90A20EE600AA5
:103B2000C0EE280AC0ED040ABDEC048B70BD000095
:103B3000D002002014060020800300202DE9F0416F
:103B4000184E0F460446F5683068001D00F032FE3E
:103B500038B9306890F82C100120884031698143D1
:103B60003161601C07D137B13168BDE8F0410E48C2
:103B7000091D00F057BE30682C44AC4244603168E7
:103B800005D2B06BBDE8F041091D00F033BE706B8B
:103B9000091D00F02FFEB06A844200D2B462BDE875
:103BA000F081000044020020480A00202DE9F04185
:103BB000054600F043FE2D4EB068401CB0603068F2
:103BC0002B4F10B1706930B32BE03560B06801281D
:103BD00027D1002404EB840007EB800000F0FCFDFB
:103BE000641C202CF6D3234800F0F6FD2148143045
:103BF00000F0F2FD1F48283000F0EEFD1D483C307B
:103C000000F0EAFD1B48503000F0E6FD19487063F3
:103C10001430B06305E03068E96AC06A884200D8B1
:103C20003560706A0121401C70626864E86A32691C
:103C300081401143316100EB800007EB8000291DBA
:103C400000F0F0FD00F036FE706900280CD03068FE
:103C5000E96AC06A884207D207494FF0805008607D
:103C6000BFF34F8FBFF36F8FBDE8F0814402002098
:103C700078070020F809002004ED00E010B500F0FE
:103C8000DDFD0E4C2068A0B90D4800F0A5FD0C48E4
:103C9000143000F0A1FD0A48E060143020610022D9
:103CA0001021052001F0F6F9206010B105A100F007
:103CB000D7FEBDE8104000F0FDBD000080020020EE
:103CC0005C0A0020546D72510000000070B5124E65
:103CD000124D1CE001F0F8F8306820B1002401F02A
:103CE000FDFDA4B901E00124F9E700F0A7FDF068AB
:103CF000C468201D00F05EFDA868401EA8606868CA
:103D0000401E686000F0D6FD204600F052F868685A
:103D10000028DFD170BD0000340A002044020020DA
:103D200030B4026C0B46002A0BD0C1681144C1604C
:103D30004468A14201D30168C16030BC1846FCF759
:103D4000BFBB30BC70472DE9F041856B1746044678
:103D50000026026C82B1C7B1E068FCF7B1FBE168F4
:103D6000206C091AE1602268914202D26168081A47
:103D7000E060022F16D017E02068A8B9606801F053
:103D800007FD0646002060600EE0A068FCF798FB87
:103D9000216CA0680844A0606168884204D3206850
:103DA000A06001E005B16D1E6D1CA5633046BDE845
:103DB000F08110B50446006B00F0AEFD2046BDE872
:103DC000104000F0A9BD000010484FF4A041420788
:103DD00006D0C01D0D4920F00700411AC1F5A041D1
:103DE0000B4A00230144C2E900030839103A21F0CC
:103DF000070111604B600B600B1AC0E90013936060
:103E00004FF000405360D06070470000840A0020EB
:103E1000B0020020074E4FF08054074DFFF756FFC9
:103E200030680128FAD92C60BFF34F8FBFF36F8F32
:103E3000F4E700007807002004ED00E02DE9F047EA
:103E4000DDE909840E461746824691009946089D91
:103E5000A522206BFCF779FB6FF00301206B01EBCF
:103E60008701084420F00707780705D040F22B327D
:103E700019A11EA0FCF77EFA00202218315C82F8FE
:103E80003410315C11B1401C1028F6D3002684F8A0
:103E90004360202D00D31F25E562C4E91356201D81
:103EA00000F0A5FC04F1180000F0A1FC2461C5F1AC
:103EB00020006462A061666584F858604A465146F5
:103EC000384600F003FB2060B8F1000F01D0C8F8BD
:103ED0000040BDE8F08700002E2E5C4672656552FA
:103EE000544F535C7461736B732E63004572726F31
:103EF000723A25732C25640D0A00000030B5114973
:103F000000E011460A688242FBD34B685C18844289
:103F100003D1406818444860084643681C1894421E
:103F200009D1084C103C2468A24209D052681A44B6
:103F300042600A6812680260814200D0086030BDA9
:103F40000460F9E7B002002070B5002441600B4D19
:103F50000061914206D8D11A8269914206D2011DB0
:103F6000286907E09A4203D2994201D3012403E071
:103F7000011DE86800F03EFC204670BD8002002074
:103F800010B5044600F05AFCA06B20B1002400F0EC
:103F900091FC204610BD0124F9E700002DE9F34112
:103FA00000980F460026846C2CB940F6CE1216A15C
:103FB0001AA0FCF7DFF9A06BE16B884205D340F64D
:103FC000CF1211A115A0FCF7D5F9A06BE16B8842C7
:103FD0000CD294F945503A4669462046FFF7B3FEA5
:103FE0000646681C05D06D1C84F845503046BDE877
:103FF000FC81606A0028F9D004F1240001F022FC61
:104000000028F3D00126F1E72E2E5C46726565523A
:10401000544F535C71756575652E63004572726F00
:10402000723A25732C25640D0A000000F8B5054688
:1040300014480E46C068C068C468201D00F0BAFB72
:10404000E069012817D1A0692B4641193246204664
:10405000FFF77AFF78B100200346014600902A4618
:10406000204601F021FD30B907494FF4027201F1F9
:104070001800FCF77FF9616A01B02046BDE8F04006
:1040800008470000800200200C5A000870B586B076
:104090002F4E53E00198002806DADDE90301029A69
:1040A00090470198002849DB039C606910B1201DEE
:1040B00000F080FB05A800F0A7F8054601980A2843
:1040C0003CD2DFE800F00505053B273805053B2716
:1040D0000298A169034601442A462046FFF734FFAF
:1040E00000282BD0616A20468847E069012825D145
:1040F000002000900298A16900234218194620462A
:1041000001F0D2FCD0B940F2213212A117A0FCF785
:1041100031F913E00298A06128B94FF44E720DA155
:1041200012A0FCF727F9A0692B4641191A46204630
:10413000FFF70AFF02E0204600F0EEFB00231A46DC
:1041400001A9306800F0E2FF0028A3D106B070BDDD
:10415000800200202E2E5C4672656552544F535CDF
:1041600074696D6572732E63000000004572726F92
:10417000723A25732C25640D0A000000F8B50D462F
:10418000064600F0A1FE684600F03EF8044600989E
:1041900010B101F0A3FBF8BD1148ADB10169096888
:1041A000D9B10025311B2A46006800F06BFC01F0F4
:1041B00095FB0028EFD10B494FF080500860BFF30A
:1041C0004F8FBFF36F8FF8BDA642EBD801F086FB8F
:1041D00021463046FFF72AFFF8BD0125E2E700003F
:1041E0008002002004ED00E00648416B096829B117
:1041F000416BC968C9684968816270474FF0FF31F7
:10420000FAE700004402002070B5054601F046FAC6
:10421000064E0446B068844203D200F009F801203B
:1042200000E0002028602046B46070BD80020020BD
:10423000F8B5184E26E0C068C4680568201D00F077
:10424000B9FA616A20468847E06901281AD1A06955
:104250002844A84206D924616060211DF06800F05E
:10426000C9FA0FE000200346014600902A46204686
:1042700001F01AFC30B9084940F2923201F11800FD
:10428000FCF778F8F06801680029D4D13169C6E9F3
:104290000310F8BD800200200C5A0008084840684E
:1042A000401C05D040F20F1206A111A0FCF762F8E5
:1042B000502080F31188BFF34F8FBFF36F8FFEE75D
:1042C000940200202E2E5C4672656552544F535C5A
:1042D000706F727461626C655C525644535C4152FB
:1042E0004D5F434D34465C706F72742E6300000066
:1042F0004572726F723A25732C25640D0A00000016
:10430000084CE068016839B1002139B10020FFF79D
:1043100035FFFFF7BBFEF4E70121F6E7C068006850
:10432000F5E70000800200202DE9F041044600F08E
:1043300085FA94F9455004F1240610E0A06C20B1F0
:1043400000212046FFF72AFE04E0606A48B13046AB
:1043500001F078FA08B100F0A9FC6D1E6DB2002DD5
:10436000ECDC4FF0FF3684F8456000F0A3FA00F073
:1043700065FA94F9445004F1100709E0206948B146
:10438000384601F05FFA08B100F090FC6D1E6DB286
:10439000002DF3DC84F84460BDE8F04100F08ABAF7
:1043A0002DE9F0410546002600F08EFD324F3868B9
:1043B00008B9FFF709FDF86805424FD1002D4DD02F
:1043C000083568070BD005F00700C0F10800054468
:1043D000680704D0BF2229A132A0FBF7CBFF002D34
:1043E0003CD07868854239D82349103108460468A2
:1043F00001E0214604466068A84202D220680028F5
:10440000F7D13868B846844228D00E682068086022
:1044100060680836401B10280ED96719780704D049
:10442000EC2216A11FA0FBF7A5FF6068401B786077
:1044300038466560FFF762FD6168D8F804004246BF
:10444000401AC8F80400D8F80830984200D29060AA
:10445000D8F80C0001430020C4E9000101F03EFA45
:10446000700705D04FF4967204A10EA0FBF782FFEF
:104470003046BDE8F0810000A00200202E2E5C46F0
:1044800072656552544F535C706F727461626C65F3
:104490005C4D656D4D616E675C686561705F342E63
:1044A000630000004572726F723A25732C25640D0B
:1044B0000A0000000449086818B10868026D521C1F
:1044C00002650868704700004402002010B5031F11
:1044D0004FF080741C601B1F21F001011960191F2F
:1044E000044B0B6014390A60091F6FF00202443854
:1044F0000A6010BD9D4200081CB500F09FF91449E8
:104500000220CDE900010023802212A1144801F00D
:104510008BF80F4903200839CDE9000100238022E0
:1045200010A1154801F080F809490420091FCDE9C0
:1045300000010023802211A1134801F075F80448FE
:104540000C38006800F04CFBBDE81C4000F0B2B92C
:10455000100000206D6F76655F7461736B00000062
:10456000853A0008526F626F745F73746174655F9F
:104570007461736B00000000ED1F00084175746FDB
:104580005F5461736B00000015090008F0B5064622
:10459000012187B00846FDF7B1FC01211020FDF78D
:1045A000D1FC234D072209212846FCF765FE07228E
:1045B0000A212846FCF760FE02218DF814108DF8C0
:1045C00015104FF4C060002404908DF816400127A8
:1045D0008DF8177004A92846FCF712FEADF80440C8
:1045E000ADF80640ADF80840ADF80C400C20114C79
:1045F000ADF80A00009669462046FEF717F901213A
:104600002046FEF7D1F8012240F225512046FEF760
:10461000F4F825208DF8180003208DF819008DF886
:104620001A008DF81B7006A8FDF710F807B0F0BD52
:1046300000000240001001402DE9FF5F5248FEF7E4
:104640004BF9524C0022524D2179C0B2112909D0A8
:10465000A1780123A1B1012916D0022922D0032972
:1046600003D137E0AA2801D0E07089E0E07855282E
:1046700005D122712870AA206870A27062707FE054
:10468000A8706081A3707BE0B4F906106B18491C18
:10469000D87008B2E080B4F90A10884270DBE2807A
:1046A000022015E0B4F90A106A18C91CD07089B24A
:1046B0003748FFF7D3F86070B4F90A102944C97875
:1046C000814203D033A0FBF755FE59E0A078401C8F
:1046D000A07055E0B4F9080010B1012802D04FE0F5
:1046E00023814DE0294E93464C362281B71D06F1B9
:1046F0000C0C06F1120806F1180906F11E0AB4F9AD
:1047000008002918CA7832544A793A54CA790CF800
:1047100000204A7A08F80020CB7A09F800304A7B5A
:104720000AF80020401C00B220810228E7DB009834
:10473000B6F9001001600198B7F900100160029805
:10474000BCF9001001600398B8F9001001600E98E0
:10475000B9F9001001600F98BAF9001001601098C3
:10476000E97B017084F802B084F803B01121217153
:1047700084F801B0A4F80AB0A4F806B0A4F808B010
:1047800004B00020BDE8F09F00100140C8010020E7
:10479000180700205265636569766564206461745A
:1047A0006120636865636B2073756D206572726F3D
:1047B00072210000D0E9013201699A60D0E9012339
:1047C0005A604A68824201D182684A6000220261CE
:1047D0000868401E0860704700F108014FF0FF3282
:1047E000C0E90112C1600161002101607047002130
:1047F0000161704730B50C68621C02D000F10802FC
:1048000002E0026904E01A4653681D68A542FAD91D
:1048100053684B6099608A60516008610168491C67
:10482000016030BD42684A6093688B60936859604C
:10483000916008610168491C01607047502080F355
:104840001188BFF34F8FBFF36F8F09494868401C31
:10485000486001280AD10748006810F0FF0F05D012
:1048600040F2B91204A10FA0FBF784BD704700000D
:104870009402002004ED00E02E2E5C467265655225
:10488000544F535C706F727461626C655C52564435
:10489000535C41524D5F434D34465C706F72742ED1
:1048A000630000004572726F723A25732C25640D07
:1048B0000A00000010B5084C606828B94FF4E07297
:1048C00006A111A0FBF756FD6068401E606001D193
:1048D00080F3118810BD0000940200202E2E5C464B
:1048E00072656552544F535C706F727461626C658F
:1048F0005C525644535C41524D5F434D34465C70AC
:104900006F72742E630000004572726F723A2573E5
:104910002C25640D0A00000070B500282AD0164D21
:10492000A0F108046068E968084205D14FF4A0725C
:1049300012A11CA0FBF71EFD206828B140F2411215
:104940000EA118A0FBF716FD6068E968084211D0B7
:104950002268002A0ED18843606000F0B5FA6068D2
:104960006968084468602046FFF7C8FABDE87040EF
:1049700000F0B4BF70BD0000A00200202E2E5C46E7
:1049800072656552544F535C706F727461626C65EE
:104990005C4D656D4D616E675C686561705F342E5E
:1049A000630000004572726F723A25732C25640D06
:1049B0000A00000006484FF47A710068B0FBF1F17C
:1049C0004FF0E020491E416107210161704700005E
:1049D0001400002010B5FBF7A7FC104C10280CD3D6
:1049E00000F1E02090F8F0032178884205D24FF4DE
:1049F00040720BA115A0FBF7BDFC18480068A16828
:104A000000F4E060884207D9BDE810404FF44472DA
:104A100003A10EA0FBF7AEBC10BD00009402002065
:104A20002E2E5C4672656552544F535C706F7274E3
:104A300061626C655C525644535C41524D5F434D1C
:104A400034465C706F72742E630000004572726FA2
:104A5000723A25732C25640D0A0000000CED00E06D
:104A600010B5074B002253F832401CB1521C082AE3
:104A7000F9D310BD43F8321003EBC201486010BDFA
:104A80003807002070B515460E460446FFF7D6FEDF
:104A900094F944100020491C01D184F8440094F991
:104AA0004510491C01D184F84500FFF703FFA06BB6
:104AB00028B92A46314604F1240000F027F920469F
:104AC000BDE87040FFF730BC10B5040012D00E49AD
:104AD000096B29B140F2CF420CA111A0FBF74AFCAF
:104AE00000F0F2F900212046FFF728F800F0F6FE6A
:104AF000002807D10E494FF080500860BFF34F8F58
:104B0000BFF36F8F10BD0000440200202E2E5C46C4
:104B100072656552544F535C7461736B732E6300FE
:104B20004572726F723A25732C25640D0A000000DD
:104B300004ED00E02DE9F0410E4605004FF00004C1
:104B400005D140F279421BA11FA0FBF713FC2EB93F
:104B500040F27A4217A11CA0FBF70CFC1E4F386BE9
:104B600028B140F27B4213A117A0FBF703FC00F031
:104B7000ABF9FA6828688119904202D9884202D8B4
:104B800004E0884201D8914200D9012429601CB177
:104B9000881A0021FEF7D2FF00F0A0FE002807D1FE
:104BA0000E494FF080500860BFF34F8FBFF36F8FF7
:104BB000BDE8F0812E2E5C4672656552544F535C01
:104BC0007461736B732E63004572726F723A257352
:104BD0002C25640D0A0000004402002004ED00E0D2
:104BE00070B50446FFF72AFE234D04B92C68201D3A
:104BF000FFF7E0FD58B9E06A204A00EB800152F867
:104C0000211021B901218140286988432861A06AC7
:104C100018B104F11800FFF7CDFD686A401C686206
:104C20002868844207D1211D1548FFF7FBFD6868FD
:104C3000401C686007E0A868401EA8602046FFF797
:104C4000B8F8FFF7D1FAFFF735FE6869002812D0EF
:104C5000286884420FD1286B28B140F2654209A12F
:104C60000DA0FBF787FB10494FF080500860BFF3A1
:104C70004F8FBFF36F8F70BD440200207807002074
:104C8000340A00202E2E5C4672656552544F535CE8
:104C90007461736B732E63004572726F723A257381
:104CA0002C25640D0A00000004ED00E001490120FC
:104CB000C86170474402002070B50D46040005D15C
:104CC00040F6063207A10CA0FBF754FB0E48016822
:104CD00020461831FFF78EFD2846BDE870400121BF
:104CE000FEF72CBF2E2E5C4672656552544F535C06
:104CF0007461736B732E63004572726F723A257321
:104D00002C25640D0A0000004402002070B51446F2
:104D10000E46050005D140F6313209A10DA0FBF782
:104D200029FB1048016828461831FFF77BFD0CB1BC
:104D30004FF0FF3621463046BDE87040FEF7FEBE1C
:104D40002E2E5C4672656552544F535C7461736BD2
:104D5000732E63004572726F723A25732C25640DB1
:104D60000A0000004402002070B5040039D01D4D37
:104D7000E06A2968C96A884233D2A069002804DB46
:104D80002868C06AC0F12000A061E06A164E00EBFE
:104D90008000616906EB800081421FD1201DFFF772
:104DA00009FD012150B9E06A00EB800256F822208B
:104DB00022B92A6901FA00F082432A612868C06A90
:104DC000E0622A6981401143296100EB800006EB13
:104DD0008000211DBDE87040FFF724BD2868C06A2F
:104DE000E06270BD440200207807002010B5040086
:104DF00005D140F6C13205A109A0FBF7BBFA0C486A
:104E0000016A2160C068606010BD00002E2E5C4603
:104E100072656552544F535C7461736B732E6300FB
:104E20004572726F723A25732C25640D0A000000DA
:104E3000440200201CB517480024CDE90040234659
:104E4000822215A1164800F0EFFB012803D100F0E3
:104E5000F1FD01280AD0401C1BD102B040F284723F
:104E6000BDE810400FA114A0FBF784BA502080F3D6
:104E70001188BFF34F8FBFF36F8F06484FF0FF319C
:104E80002C38816201214161C460BDE81C4000F002
:104E900061B81CBD7002002049444C450000000070
:104EA000153E00082E2E5C4672656552544F535CC9
:104EB0007461736B732E63004572726F723A25735F
:104EC0002C25640D0A0000000248016B491C016397
:104ED000704700004402002070B5134D286B10B1DC
:104EE0000120E86170BD0020E86128690F4EB0FA2A
:104EF00080F0C0F11F0000EB800456F8240028B9B0
:104F000040F6F6220AA10FA0FBF734FA06EB840064
:104F100000F10802416849684160914201D1496845
:104F20004160C868286070BD4402002078070020F6
:104F30002E2E5C4672656552544F535C7461736BE0
:104F4000732E63004572726F723A25732C25640DBF
:104F50000A0000001CB5304C20683049884205D159
:104F600040F259122EA139A0FBF704FA20682B4910
:104F7000491E884205D14FF4AD7229A133A0FBF739
:104F8000F9F9364C20780190FF20207020788DF8B8
:104F900000009DF800009DF8001000F0F00088422D
:104FA00005D040F273121EA128A0FBF7E3F99DF88B
:104FB00000002B4A00F0500010700720906007E0BE
:104FC0009068401E90609DF8000040008DF8000041
:104FD0009DF800000006F3D4107A000200F4E060AF
:104FE0009060019820700C482030016841F47001F5
:104FF0000160016841F070410160FFF7DBFC0020B7
:105000005060FBF759F91748016841F040410160D1
:10501000FBF742F900201CBD00ED00E071C20F411A
:105020002E2E5C4672656552544F535C706F7274DD
:1050300061626C655C525644535C41524D5F434D16
:1050400034465C706F72742E630000004572726F9C
:10505000723A25732C25640D0A00000000E400E07C
:105060009402002034EF00E010B5502080F3118846
:10507000BFF34F8FBFF36F8F00F016FB18B10449D9
:105080004FF080500860002080F3118810BD0000B0
:1050900004ED00E02DE9F04117460E46050005D16C
:1050A0004FF4C47210A115A0FBF764F9BEB105FB63
:1050B00006F05430FFF774F904000ED004F15400E8
:1050C0007EB12060C4E90F562046012100F0E0F8CF
:1050D00084F8507000212046A164BDE8F0810020D2
:1050E000E7E72460EEE700002E2E5C46726565520D
:1050F000544F535C71756575652E63004572726F10
:10510000723A25732C25640D0A0000002DE9FF4F2B
:1051100083B09B468A4604004FF0000605D140F25A
:10512000DC4251A155A0FBF725F9BAF1000F07D1D8
:10513000206C28B140F2DD424BA150A0FBF71AF9D8
:1051400000F09EFA38B9059828B14FF49C6246A148
:105150004AA0FBF70FF94FF000094FF08057DFF836
:105160002C81FFF76BFBA56B45B351462046E668E3
:10517000FEF7D6FDBBF1000F13D0E660606A50B1B8
:1051800004F1240000F05EFB28B1C8F80070BFF302
:105190004F8FBFF36F8FFFF78DFB012007B0BDE886
:1051A000F08F6D1EA563206810B9FFF783F960606A
:1051B00020690028EFD004F11000E3E7059808B15A
:1051C0001EB106E0FFF776FB27E06846FFF70EFE0C
:1051D0000126FFF76FFBFFF777FEFFF72FFB94F930
:1051E0004400401C01D184F8449094F94500401CCF
:1051F00001D184F84590FFF75DFB05A9684600F0F2
:10520000CFF9002820460AD0FFF78EF800F066FBA1
:105210002046FEF7B5FE0028A3D00020BEE7FEF72B
:10522000AFFED8B1206830B9FFF708FB6068FFF720
:105230009BFDFFF73FFB04F124000599FFF73CFDC0
:105240002046FFF771F800F049FB002889D1C8F823
:105250000070BFF34F8FBFF36F8F82E72046FFF7D9
:1052600063F800F03BFB7CE72E2E5C4672656552CE
:10527000544F535C71756575652E63004572726F8E
:10528000723A25732C25640D0A00000004ED00E03D
:1052900070B50D46040005D140F21B121CA121A0DF
:1052A000FBF768F8FFF7CAFAD4E90F20216802FB80
:1052B000001161600021A1632168A1600A46D4E960
:1052C0000F01401E00FB0121E16021464FF0FF303D
:1052D00001F8440F487004F110004DB1FFF77CFA5B
:1052E00004F12400FFF778FAFFF7E4FA012070BD1B
:1052F00021690029F8D000F0A5FA0028F4D00D4962
:105300004FF080500860BFF34F8FBFF36F8FEBE714
:105310002E2E5C4672656552544F535C71756575EF
:10532000652E63004572726F723A25732C25640DE9
:105330000A00000004ED00E02DE9FF4F83B099461C
:105340008B4604004FF0000605D140F2D92252A14D
:1053500056A0FBF70FF8BBF1000F07D1206C28B166
:1053600040F2DA224CA151A0FBF704F8B9F1020F88
:1053700008D1E06B012805D040F2DB2246A14BA00A
:10538000FAF7F8FF00F07CF938B9059828B140F237
:10539000DE2241A145A0FAF7EDFF4FF0000A4FF0E1
:1053A0008057DFF81881FFF749FAA06BE16B88425C
:1053B00006D3B9F1020F03D0059800B316B325E068
:1053C0004A4659462046FEF7BEFCA16C21B149462B
:1053D0002046FEF7E3FD05E0616A19B104F12400FF
:1053E00000F030FA28B1C8F80070BFF34F8FBFF358
:1053F0006F8FFFF75FFA012007B0BDE8F08FFFF76E
:1054000059FA21E06846FFF7F1FC0126FFF752FA4E
:10541000FFF75AFDFFF712FA94F94400401C01D13E
:1054200084F844A094F94500401C01D184F845A0BB
:10543000FFF740FA05A9684600F0B2F830B12046FF
:10544000FEF772FF00F04AFA0020D5E7FFF7F6F901
:10545000A06BE16B884201D1012500E00025FFF738
:1054600029FA95B104F110000599FFF725FC2046B3
:10547000FEF75AFF00F032FA002894D1C8F8007005
:10548000BFF34F8FBFF36F8F8DE72046FEF74CFFC2
:1054900000F024FA87E700002E2E5C467265655204
:1054A000544F535C71756575652E63004572726F5C
:1054B000723A25732C25640D0A00000004ED00E00B
:1054C0002DE9F047984615468946040005D140F27B
:1054D0009F322AA12EA0FAF74DFFB9F1000F07D194
:1054E000206C28B14FF4687224A129A0FAF742FF7A
:1054F000B8F1020F08D1E06B012805D040F2A132CB
:105500001EA123A0FAF736FFFFF764FA5020EFF34D
:10551000118780F31188BFF34F8FBFF36F8FA06B9C
:10552000E16B884207D3B8F1020F04D0002087F363
:105530001188BDE8F08794F9456042464946204607
:10554000FEF701FC701C04D0761C84F84560012035
:10555000EDE7A06C012620B141462046FEF71EFD76
:1055600006E0606A0028F2D004F1240000F06AF935
:105570000028ECD0002DEAD02E60E8E72E2E5C4605
:1055800072656552544F535C71756575652E630085
:105590004572726F723A25732C25640D0A00000063
:1055A00070B50D46040005D140F6CB3214A119A008
:1055B000FAF7E0FE2DB940F6CC3211A115A0FAF7AA
:1055C000D9FEFFF73BF9174AD06829684B1C0FD06A
:1055D0002368126A934202D0626882420AD96268E2
:1055E000801A884206D2081A28602046FFF7FEFB80
:1055F000002400E00124FFF75DF9204670BD0000A3
:105600002E2E5C4672656552544F535C7461736B09
:10561000732E63004572726F723A25732C25640DE8
:105620000A000000440200202DE9FF5F8346DDE907
:105630000E87994616468A469000FEF7B1FE050091
:105640001AD05C20FEF7ACFE040012D025630021C6
:10565000CDE90241CDE900874B46324651465846D6
:10566000FEF7ECFB2046FEF7A1FA012004B0BDE8EE
:10567000F09F2846FFF750F94FF0FF30F6E70000A3
:105680000548416919B1006B18B10020704701202D
:105690007047022070470000440200200148C068A3
:1056A00070470000440200202DE9F0412D4F0026F4
:1056B000386B40B1B869401CB861F86900B1012687
:1056C0003046BDE8F081FD686D1CFD6011D1786B3E
:1056D000006828B140F6D91223A128A0FAF74AFEA3
:1056E000786BB96B7963B863386A401C3862FEF72F
:1056F0007BFDB86ADFF89480854209D3786B006837
:1057000080B1786BC068C468606885420DD2B862A9
:105710003868C06A00EB800158F821000128CCD914
:105720000126CAE74FF0FF30F1E7201DFFF742F8EE
:10573000A06A18B104F11800FFF73CF8E06A0121F3
:105740003A6981401143396100EB800108EB810027
:10575000211DFFF767F8E06A3968C96A8842CDD32E
:105760000126CBE7440200202E2E5C46726565526E
:10577000544F535C7461736B732E63004572726F88
:10578000723A25732C25640D0A000000780700206A
:1057900070B504004FF000063CD01F4D28688442CD
:1057A00005D040F6C7621DA121A0FAF7E3FD206DE8
:1057B00028B940F6C96219A11DA0FAF7DBFD206DDA
:1057C000401E2065E26CE16A914223D010BB201D8F
:1057D000FEF7F0FF1A49012250B9E06A00EB80039E
:1057E00051F8233023B92B6902FA00F083432B616F
:1057F000E06CE062C0F12000A061E06A2B698240A9
:105800001A432A6100EB800001EB8000211DFFF7A5
:1058100009F80126304670BD440200202E2E5C4659
:1058200072656552544F535C7461736B732E6300E1
:105830004572726F723A25732C25640D0A000000C0
:10584000780700202DE9F041C068C4682CB940F603
:10585000613216A11AA0FAF78DFD04F1180007466F
:10586000FEF7A8FF1A4D286B012660B1394619488A
:10587000FEF7D8FFE06A2968C96A884213D9012077
:10588000EE61BDE8F081201DFEF794FFE06A2A6911
:1058900006FA00F1114329610F4900EB800001EB8A
:1058A0008000211DE4E70020EBE700002E2E5C467F
:1058B00072656552544F535C7461736B732E630051
:1058C0004572726F723A25732C25640D0A00000030
:1058D00044020020200A0020780700202DE9F0472C
:1058E0002B4D00242746286B28B94FF4FD6229A1CF
:1058F0002DA0FAF73FFDFEF7A1FF286B401E28639D
:10590000286BE8BBA8682C490126C8B3A1F52A7901
:105910008846D8F80010E9B1D8F80C00C46804F142
:105920001800FEF747FF201DFEF744FFE06A2A69D2
:1059300006FA00F11143296100EB800109EB8100B7
:10594000211DFEF76FFFE06A2968C96A8842E0D32B
:10595000EE61DEE70CB1FEF747FCAC693CB1FFF746
:10596000A3FE00B1EE61641EF9D10020A861E869D0
:1059700030B11249012738070860BFF34F8F00E0AC
:1059800001E0BFF36F8FFEF795FF3846BDE8F08763
:10599000440200202E2E5C4672656552544F535CC3
:1059A0007461736B732E63004572726F723A257364
:1059B0002C25640D0A000000200A002004ED00E000
:1059C0002DE9F0470746994616460D462C20DDF88E
:1059D00020A0FEF7E5FC040014D0B8464F46D1469F
:1059E0002DB94FF4C67209A10EA0FAF7C3FCFEF759
:1059F00045F904F11801C4F8008081E8E002201D97
:105A0000FEF7F5FE2046BDE8F08700002E2E5C462E
:105A100072656552544F535C74696D6572732E6381
:105A2000000000004572726F723A25732C25640DD8
:105A30000A0000001CB50024FEF720F90C4800689D
:105A400068B10B491F20091DCDE9000100234FF467
:105A5000827208A10948FFF7E7FD040005D140F272
:105A6000331207A10CA0FAF785FC20461CBD0000EC
:105A700080020020546D72205376630001430008B9
:105A80002E2E5C4672656552544F535C74696D6589
:105A900072732E63000000004572726F723A2573B4
:105AA0002C25640D0A0000002DE9FF47DDF830A029
:105AB000994690460D4606004FF0000705D14FF479
:105AC000D37212A117A0FAF755FC1A4C206880B1C6
:105AD000CDE900580296062D11DAFFF7D1FD022814
